{
	"election.sol": {
		"MASelection": {
			"abi": [
				{
					"inputs": [],
					"stateMutability": "nonpayable",
					"type": "constructor"
				},
				{
					"inputs": [],
					"name": "admin",
					"outputs": [
						{
							"internalType": "address",
							"name": "",
							"type": "address"
						}
					],
					"stateMutability": "view",
					"type": "function"
				},
				{
					"inputs": [],
					"name": "candidateCount",
					"outputs": [
						{
							"internalType": "uint256",
							"name": "",
							"type": "uint256"
						}
					],
					"stateMutability": "view",
					"type": "function"
				},
				{
					"inputs": [
						{
							"internalType": "uint256",
							"name": "",
							"type": "uint256"
						}
					],
					"name": "candidates",
					"outputs": [
						{
							"internalType": "string",
							"name": "name",
							"type": "string"
						},
						{
							"internalType": "string",
							"name": "description",
							"type": "string"
						},
						{
							"internalType": "uint256",
							"name": "voteCount",
							"type": "uint256"
						},
						{
							"internalType": "string",
							"name": "nationalID",
							"type": "string"
						}
					],
					"stateMutability": "view",
					"type": "function"
				},
				{
					"inputs": [],
					"name": "endVoting",
					"outputs": [],
					"stateMutability": "nonpayable",
					"type": "function"
				},
				{
					"inputs": [],
					"name": "getWinner",
					"outputs": [
						{
							"internalType": "string",
							"name": "winnerName",
							"type": "string"
						},
						{
							"internalType": "uint256",
							"name": "totalVotes",
							"type": "uint256"
						}
					],
					"stateMutability": "view",
					"type": "function"
				},
				{
					"inputs": [
						{
							"internalType": "address",
							"name": "_candidateAddress",
							"type": "address"
						},
						{
							"internalType": "string",
							"name": "_name",
							"type": "string"
						},
						{
							"internalType": "string",
							"name": "_description",
							"type": "string"
						},
						{
							"internalType": "string",
							"name": "_nationalID",
							"type": "string"
						}
					],
					"name": "registerCandidate",
					"outputs": [],
					"stateMutability": "nonpayable",
					"type": "function"
				},
				{
					"inputs": [
						{
							"internalType": "address",
							"name": "_voterAddress",
							"type": "address"
						},
						{
							"internalType": "string",
							"name": "_nationalID",
							"type": "string"
						}
					],
					"name": "registerVoter",
					"outputs": [],
					"stateMutability": "nonpayable",
					"type": "function"
				},
				{
					"inputs": [
						{
							"internalType": "string",
							"name": "",
							"type": "string"
						}
					],
					"name": "registeredNationalID",
					"outputs": [
						{
							"internalType": "bool",
							"name": "",
							"type": "bool"
						}
					],
					"stateMutability": "view",
					"type": "function"
				},
				{
					"inputs": [
						{
							"internalType": "uint256",
							"name": "_limit",
							"type": "uint256"
						}
					],
					"name": "setVoterLimit",
					"outputs": [],
					"stateMutability": "nonpayable",
					"type": "function"
				},
				{
					"inputs": [],
					"name": "startVoting",
					"outputs": [],
					"stateMutability": "nonpayable",
					"type": "function"
				},
				{
					"inputs": [
						{
							"internalType": "uint256",
							"name": "_candidateID",
							"type": "uint256"
						},
						{
							"internalType": "string",
							"name": "_nationalID",
							"type": "string"
						}
					],
					"name": "vote",
					"outputs": [],
					"stateMutability": "nonpayable",
					"type": "function"
				},
				{
					"inputs": [],
					"name": "voterCount",
					"outputs": [
						{
							"internalType": "uint256",
							"name": "",
							"type": "uint256"
						}
					],
					"stateMutability": "view",
					"type": "function"
				},
				{
					"inputs": [],
					"name": "voterLimit",
					"outputs": [
						{
							"internalType": "uint256",
							"name": "",
							"type": "uint256"
						}
					],
					"stateMutability": "view",
					"type": "function"
				},
				{
					"inputs": [
						{
							"internalType": "address",
							"name": "",
							"type": "address"
						}
					],
					"name": "voters",
					"outputs": [
						{
							"internalType": "string",
							"name": "nationalID",
							"type": "string"
						},
						{
							"internalType": "bool",
							"name": "hasVoted",
							"type": "bool"
						}
					],
					"stateMutability": "view",
					"type": "function"
				},
				{
					"inputs": [],
					"name": "votingOpen",
					"outputs": [
						{
							"internalType": "bool",
							"name": "",
							"type": "bool"
						}
					],
					"stateMutability": "view",
					"type": "function"
				}
			],
			"devdoc": {
				"kind": "dev",
				"methods": {},
				"version": 1
			},
			"evm": {
				"assembly": "    /* \"election.sol\":222:7001  contract MASelection{ //smart contract of election, everything is in this one contract... */\n  mstore(0x40, 0x80)\n    /* \"election.sol\":1577:1847  constructor(){... */\n  callvalue\n  dup1\n  iszero\n  tag_1\n  jumpi\n  0x00\n  dup1\n  revert\ntag_1:\n  pop\n    /* \"election.sol\":1609:1619  msg.sender */\n  caller\n    /* \"election.sol\":1601:1606  admin */\n  0x00\n  dup1\n    /* \"election.sol\":1601:1619  admin = msg.sender */\n  0x0100\n  exp\n  dup2\n  sload\n  dup2\n  0xffffffffffffffffffffffffffffffffffffffff\n  mul\n  not\n  and\n  swap1\n  dup4\n  0xffffffffffffffffffffffffffffffffffffffff\n  and\n  mul\n  or\n  swap1\n  sstore\n  pop\n    /* \"election.sol\":1700:1701  0 */\n  0x00\n    /* \"election.sol\":1683:1697  candidateCount */\n  0x01\n    /* \"election.sol\":1683:1701  candidateCount = 0 */\n  dup2\n  swap1\n  sstore\n  pop\n    /* \"election.sol\":1725:1726  0 */\n  0x00\n    /* \"election.sol\":1712:1722  voterCount */\n  0x02\n    /* \"election.sol\":1712:1726  voterCount = 0 */\n  dup2\n  swap1\n  sstore\n  pop\n    /* \"election.sol\":1750:1755  false */\n  0x00\n    /* \"election.sol\":1737:1747  votingOpen */\n  0x04\n  0x00\n    /* \"election.sol\":1737:1755  votingOpen = false */\n  0x0100\n  exp\n  dup2\n  sload\n  dup2\n  0xff\n  mul\n  not\n  and\n  swap1\n  dup4\n  iszero\n  iszero\n  mul\n  or\n  swap1\n  sstore\n  pop\n    /* \"election.sol\":1779:1782  100 */\n  0x64\n    /* \"election.sol\":1766:1776  voterLimit */\n  0x03\n    /* \"election.sol\":1766:1782  voterLimit = 100 */\n  dup2\n  swap1\n  sstore\n  pop\n    /* \"election.sol\":222:7001  contract MASelection{ //smart contract of election, everything is in this one contract... */\n  dataSize(sub_0)\n  dup1\n  dataOffset(sub_0)\n  0x00\n  codecopy\n  0x00\n  return\nstop\n\nsub_0: assembly {\n        /* \"election.sol\":222:7001  contract MASelection{ //smart contract of election, everything is in this one contract... */\n      mstore(0x40, 0x80)\n      callvalue\n      dup1\n      iszero\n      tag_1\n      jumpi\n      0x00\n      dup1\n      revert\n    tag_1:\n      pop\n      jumpi(tag_2, lt(calldatasize, 0x04))\n      shr(0xe0, calldataload(0x00))\n      dup1\n      0x8e7ea5b2\n      gt\n      tag_18\n      jumpi\n      dup1\n      0xc3403ddf\n      gt\n      tag_19\n      jumpi\n      dup1\n      0xc3403ddf\n      eq\n      tag_14\n      jumpi\n      dup1\n      0xdbaf67bb\n      eq\n      tag_15\n      jumpi\n      dup1\n      0xebbb4f84\n      eq\n      tag_16\n      jumpi\n      dup1\n      0xf851a440\n      eq\n      tag_17\n      jumpi\n      jump(tag_2)\n    tag_19:\n      dup1\n      0x8e7ea5b2\n      eq\n      tag_10\n      jumpi\n      dup1\n      0xa3ec138d\n      eq\n      tag_11\n      jumpi\n      dup1\n      0xa95824b4\n      eq\n      tag_12\n      jumpi\n      dup1\n      0xa9a981a3\n      eq\n      tag_13\n      jumpi\n      jump(tag_2)\n    tag_18:\n      dup1\n      0x3477ee2e\n      gt\n      tag_20\n      jumpi\n      dup1\n      0x3477ee2e\n      eq\n      tag_6\n      jumpi\n      dup1\n      0x42169e48\n      eq\n      tag_7\n      jumpi\n      dup1\n      0x4e0877f4\n      eq\n      tag_8\n      jumpi\n      dup1\n      0x70b01bbd\n      eq\n      tag_9\n      jumpi\n      jump(tag_2)\n    tag_20:\n      dup1\n      0x1ec6b60a\n      eq\n      tag_3\n      jumpi\n      dup1\n      0x21b3f528\n      eq\n      tag_4\n      jumpi\n      dup1\n      0x24108475\n      eq\n      tag_5\n      jumpi\n    tag_2:\n      0x00\n      dup1\n      revert\n        /* \"election.sol\":5028:5288  function startVoting()public onlyAdmin{ //admin can open the voting... */\n    tag_3:\n      tag_21\n      tag_22\n      jump\t// in\n    tag_21:\n      stop\n        /* \"election.sol\":3810:5019  function registerCandidate(address _candidateAddress, string memory _name, string memory _description, string memory _nationalID) public onlyAdmin { //admin can register candidate... */\n    tag_4:\n      tag_23\n      0x04\n      dup1\n      calldatasize\n      sub\n      dup2\n      add\n      swap1\n      tag_24\n      swap2\n      swap1\n      tag_25\n      jump\t// in\n    tag_24:\n      tag_26\n      jump\t// in\n    tag_23:\n      stop\n        /* \"election.sol\":5460:6232  function vote(uint256 _candidateID, string memory _nationalID) public onlyDuringVoting{ //function for voter to vote... */\n    tag_5:\n      tag_27\n      0x04\n      dup1\n      calldatasize\n      sub\n      dup2\n      add\n      swap1\n      tag_28\n      swap2\n      swap1\n      tag_29\n      jump\t// in\n    tag_28:\n      tag_30\n      jump\t// in\n    tag_27:\n      stop\n        /* \"election.sol\":813:859  mapping(uint256 => Candidate)public candidates */\n    tag_6:\n      tag_31\n      0x04\n      dup1\n      calldatasize\n      sub\n      dup2\n      add\n      swap1\n      tag_32\n      swap2\n      swap1\n      tag_33\n      jump\t// in\n    tag_32:\n      tag_34\n      jump\t// in\n    tag_31:\n      mload(0x40)\n      tag_35\n      swap5\n      swap4\n      swap3\n      swap2\n      swap1\n      tag_36\n      jump\t// in\n    tag_35:\n      mload(0x40)\n      dup1\n      swap2\n      sub\n      swap1\n      return\n        /* \"election.sol\":676:701  uint256 public voterCount */\n    tag_7:\n      tag_37\n      tag_38\n      jump\t// in\n    tag_37:\n      mload(0x40)\n      tag_39\n      swap2\n      swap1\n      tag_40\n      jump\t// in\n    tag_39:\n      mload(0x40)\n      dup1\n      swap2\n      sub\n      swap1\n      return\n        /* \"election.sol\":1853:2117  function setVoterLimit(uint256 _limit)public  onlyAdmin {... */\n    tag_8:\n      tag_41\n      0x04\n      dup1\n      calldatasize\n      sub\n      dup2\n      add\n      swap1\n      tag_42\n      swap2\n      swap1\n      tag_33\n      jump\t// in\n    tag_42:\n      tag_43\n      jump\t// in\n    tag_41:\n      stop\n        /* \"election.sol\":708:733  uint256 public voterLimit */\n    tag_9:\n      tag_44\n      tag_45\n      jump\t// in\n    tag_44:\n      mload(0x40)\n      tag_46\n      swap2\n      swap1\n      tag_40\n      jump\t// in\n    tag_46:\n      mload(0x40)\n      dup1\n      swap2\n      sub\n      swap1\n      return\n        /* \"election.sol\":6241:6998  function getWinner()public view onlyAfterVoting returns (string memory winnerName, uint256 totalVotes){ //funciton to get winner of the election... */\n    tag_10:\n      tag_47\n      tag_48\n      jump\t// in\n    tag_47:\n      mload(0x40)\n      tag_49\n      swap3\n      swap2\n      swap1\n      tag_50\n      jump\t// in\n    tag_49:\n      mload(0x40)\n      dup1\n      swap2\n      sub\n      swap1\n      return\n        /* \"election.sol\":866:904  mapping(address => Voter)public voters */\n    tag_11:\n      tag_51\n      0x04\n      dup1\n      calldatasize\n      sub\n      dup2\n      add\n      swap1\n      tag_52\n      swap2\n      swap1\n      tag_53\n      jump\t// in\n    tag_52:\n      tag_54\n      jump\t// in\n    tag_51:\n      mload(0x40)\n      tag_55\n      swap3\n      swap2\n      swap1\n      tag_56\n      jump\t// in\n    tag_55:\n      mload(0x40)\n      dup1\n      swap2\n      sub\n      swap1\n      return\n        /* \"election.sol\":740:762  bool public votingOpen */\n    tag_12:\n      tag_57\n      tag_58\n      jump\t// in\n    tag_57:\n      mload(0x40)\n      tag_59\n      swap2\n      swap1\n      tag_60\n      jump\t// in\n    tag_59:\n      mload(0x40)\n      dup1\n      swap2\n      sub\n      swap1\n      return\n        /* \"election.sol\":640:669  uint256 public candidateCount */\n    tag_13:\n      tag_61\n      tag_62\n      jump\t// in\n    tag_61:\n      mload(0x40)\n      tag_63\n      swap2\n      swap1\n      tag_40\n      jump\t// in\n    tag_63:\n      mload(0x40)\n      dup1\n      swap2\n      sub\n      swap1\n      return\n        /* \"election.sol\":5296:5452  function endVoting()public onlyAdmin{//admin can closed voting... */\n    tag_14:\n      tag_64\n      tag_65\n      jump\t// in\n    tag_64:\n      stop\n        /* \"election.sol\":911:961  mapping(string => bool)public registeredNationalID */\n    tag_15:\n      tag_66\n      0x04\n      dup1\n      calldatasize\n      sub\n      dup2\n      add\n      swap1\n      tag_67\n      swap2\n      swap1\n      tag_68\n      jump\t// in\n    tag_67:\n      tag_69\n      jump\t// in\n    tag_66:\n      mload(0x40)\n      tag_70\n      swap2\n      swap1\n      tag_60\n      jump\t// in\n    tag_70:\n      mload(0x40)\n      dup1\n      swap2\n      sub\n      swap1\n      return\n        /* \"election.sol\":2696:3802  function registerVoter(address _voterAddress, string memory _nationalID) public onlyAdmin{ //admin can register voter, need voter account address and their nationalID... */\n    tag_16:\n      tag_71\n      0x04\n      dup1\n      calldatasize\n      sub\n      dup2\n      add\n      swap1\n      tag_72\n      swap2\n      swap1\n      tag_73\n      jump\t// in\n    tag_72:\n      tag_74\n      jump\t// in\n    tag_71:\n      stop\n        /* \"election.sol\":613:633  address public admin */\n    tag_17:\n      tag_75\n      tag_76\n      jump\t// in\n    tag_75:\n      mload(0x40)\n      tag_77\n      swap2\n      swap1\n      tag_78\n      jump\t// in\n    tag_77:\n      mload(0x40)\n      dup1\n      swap2\n      sub\n      swap1\n      return\n        /* \"election.sol\":5028:5288  function startVoting()public onlyAdmin{ //admin can open the voting... */\n    tag_22:\n        /* \"election.sol\":1177:1182  admin */\n      0x00\n      dup1\n      sload\n      swap1\n      0x0100\n      exp\n      swap1\n      div\n      0xffffffffffffffffffffffffffffffffffffffff\n      and\n        /* \"election.sol\":1163:1182  msg.sender == admin */\n      0xffffffffffffffffffffffffffffffffffffffff\n      and\n        /* \"election.sol\":1163:1173  msg.sender */\n      caller\n        /* \"election.sol\":1163:1182  msg.sender == admin */\n      0xffffffffffffffffffffffffffffffffffffffff\n      and\n      eq\n        /* \"election.sol\":1155:1221  require(msg.sender == admin, \"Only admin can perform this action\") */\n      tag_80\n      jumpi\n      mload(0x40)\n      0x08c379a000000000000000000000000000000000000000000000000000000000\n      dup2\n      mstore\n      0x04\n      add\n      tag_81\n      swap1\n      tag_82\n      jump\t// in\n    tag_81:\n      mload(0x40)\n      dup1\n      swap2\n      sub\n      swap1\n      revert\n    tag_80:\n        /* \"election.sol\":5131:5132  2 */\n      0x02\n        /* \"election.sol\":5113:5127  candidateCount */\n      sload(0x01)\n        /* \"election.sol\":5113:5132  candidateCount >= 2 */\n      lt\n      iszero\n        /* \"election.sol\":5105:5189  require(candidateCount >= 2, \"At least two candidates are required to start voting\") */\n      tag_84\n      jumpi\n      mload(0x40)\n      0x08c379a000000000000000000000000000000000000000000000000000000000\n      dup2\n      mstore\n      0x04\n      add\n      tag_85\n      swap1\n      tag_86\n      jump\t// in\n    tag_85:\n      mload(0x40)\n      dup1\n      swap2\n      sub\n      swap1\n      revert\n    tag_84:\n        /* \"election.sol\":5275:5279  true */\n      0x01\n        /* \"election.sol\":5262:5272  votingOpen */\n      0x04\n      0x00\n        /* \"election.sol\":5262:5279  votingOpen = true */\n      0x0100\n      exp\n      dup2\n      sload\n      dup2\n      0xff\n      mul\n      not\n      and\n      swap1\n      dup4\n      iszero\n      iszero\n      mul\n      or\n      swap1\n      sstore\n      pop\n        /* \"election.sol\":5028:5288  function startVoting()public onlyAdmin{ //admin can open the voting... */\n      jump\t// out\n        /* \"election.sol\":3810:5019  function registerCandidate(address _candidateAddress, string memory _name, string memory _description, string memory _nationalID) public onlyAdmin { //admin can register candidate... */\n    tag_26:\n        /* \"election.sol\":1177:1182  admin */\n      0x00\n      dup1\n      sload\n      swap1\n      0x0100\n      exp\n      swap1\n      div\n      0xffffffffffffffffffffffffffffffffffffffff\n      and\n        /* \"election.sol\":1163:1182  msg.sender == admin */\n      0xffffffffffffffffffffffffffffffffffffffff\n      and\n        /* \"election.sol\":1163:1173  msg.sender */\n      caller\n        /* \"election.sol\":1163:1182  msg.sender == admin */\n      0xffffffffffffffffffffffffffffffffffffffff\n      and\n      eq\n        /* \"election.sol\":1155:1221  require(msg.sender == admin, \"Only admin can perform this action\") */\n      tag_88\n      jumpi\n      mload(0x40)\n      0x08c379a000000000000000000000000000000000000000000000000000000000\n      dup2\n      mstore\n      0x04\n      add\n      tag_89\n      swap1\n      tag_82\n      jump\t// in\n    tag_89:\n      mload(0x40)\n      dup1\n      swap2\n      sub\n      swap1\n      revert\n    tag_88:\n        /* \"election.sol\":4008:4028  registeredNationalID */\n      0x07\n        /* \"election.sol\":4029:4040  _nationalID */\n      dup2\n        /* \"election.sol\":4008:4041  registeredNationalID[_nationalID] */\n      mload(0x40)\n      tag_91\n      swap2\n      swap1\n      tag_92\n      jump\t// in\n    tag_91:\n      swap1\n      dup2\n      mstore\n      0x20\n      add\n      mload(0x40)\n      dup1\n      swap2\n      sub\n      swap1\n      keccak256\n      0x00\n      swap1\n      sload\n      swap1\n      0x0100\n      exp\n      swap1\n      div\n      0xff\n      and\n        /* \"election.sol\":4007:4041  !registeredNationalID[_nationalID] */\n      iszero\n        /* \"election.sol\":3999:4077  require(!registeredNationalID[_nationalID], \"Candidate is already registered\") */\n      tag_93\n      jumpi\n      mload(0x40)\n      0x08c379a000000000000000000000000000000000000000000000000000000000\n      dup2\n      mstore\n      0x04\n      add\n      tag_94\n      swap1\n      tag_95\n      jump\t// in\n    tag_94:\n      mload(0x40)\n      dup1\n      swap2\n      sub\n      swap1\n      revert\n    tag_93:\n        /* \"election.sol\":4203:4204  0 */\n      0x00\n        /* \"election.sol\":4155:4161  voters */\n      0x06\n        /* \"election.sol\":4155:4180  voters[_candidateAddress] */\n      0x00\n        /* \"election.sol\":4162:4179  _candidateAddress */\n      dup7\n        /* \"election.sol\":4155:4180  voters[_candidateAddress] */\n      0xffffffffffffffffffffffffffffffffffffffff\n      and\n      0xffffffffffffffffffffffffffffffffffffffff\n      and\n      dup2\n      mstore\n      0x20\n      add\n      swap1\n      dup2\n      mstore\n      0x20\n      add\n      0x00\n      keccak256\n        /* \"election.sol\":4155:4191  voters[_candidateAddress].nationalID */\n      0x00\n      add\n        /* \"election.sol\":4149:4199  bytes(voters[_candidateAddress].nationalID).length */\n      dup1\n      sload\n      tag_96\n      swap1\n      tag_97\n      jump\t// in\n    tag_96:\n      swap1\n      pop\n        /* \"election.sol\":4149:4204  bytes(voters[_candidateAddress].nationalID).length == 0 */\n      eq\n        /* \"election.sol\":4141:4260  require(bytes(voters[_candidateAddress].nationalID).length == 0, \"This address is already associated with a candidate\") */\n      tag_98\n      jumpi\n      mload(0x40)\n      0x08c379a000000000000000000000000000000000000000000000000000000000\n      dup2\n      mstore\n      0x04\n      add\n      tag_99\n      swap1\n      tag_100\n      jump\t// in\n    tag_99:\n      mload(0x40)\n      dup1\n      swap2\n      sub\n      swap1\n      revert\n    tag_98:\n        /* \"election.sol\":4329:4360  validateNationalID(_nationalID) */\n      tag_101\n        /* \"election.sol\":4348:4359  _nationalID */\n      dup2\n        /* \"election.sol\":4329:4347  validateNationalID */\n      tag_102\n        /* \"election.sol\":4329:4360  validateNationalID(_nationalID) */\n      jump\t// in\n    tag_101:\n        /* \"election.sol\":4321:4420  require(validateNationalID(_nationalID), \"Invalid national ID, you are not eligible for candidate\") */\n      tag_103\n      jumpi\n      mload(0x40)\n      0x08c379a000000000000000000000000000000000000000000000000000000000\n      dup2\n      mstore\n      0x04\n      add\n      tag_104\n      swap1\n      tag_105\n      jump\t// in\n    tag_104:\n      mload(0x40)\n      dup1\n      swap2\n      sub\n      swap1\n      revert\n    tag_103:\n        /* \"election.sol\":4479:4493  candidateCount */\n      0x01\n      0x00\n        /* \"election.sol\":4479:4496  candidateCount ++ */\n      dup2\n      sload\n      dup1\n      swap3\n      swap2\n      swap1\n      tag_106\n      swap1\n      tag_107\n      jump\t// in\n    tag_106:\n      swap2\n      swap1\n      pop\n      sstore\n      pop\n        /* \"election.sol\":4577:4757  Candidate ({ //store data of candidate... */\n      mload(0x40)\n      dup1\n      0x80\n      add\n      0x40\n      mstore\n      dup1\n        /* \"election.sol\":4635:4640  _name */\n      dup5\n        /* \"election.sol\":4577:4757  Candidate ({ //store data of candidate... */\n      dup2\n      mstore\n      0x20\n      add\n        /* \"election.sol\":4668:4680  _description */\n      dup4\n        /* \"election.sol\":4577:4757  Candidate ({ //store data of candidate... */\n      dup2\n      mstore\n      0x20\n      add\n        /* \"election.sol\":4706:4707  0 */\n      0x00\n        /* \"election.sol\":4577:4757  Candidate ({ //store data of candidate... */\n      dup2\n      mstore\n      0x20\n      add\n        /* \"election.sol\":4734:4745  _nationalID */\n      dup3\n        /* \"election.sol\":4577:4757  Candidate ({ //store data of candidate... */\n      dup2\n      mstore\n      pop\n        /* \"election.sol\":4548:4558  candidates */\n      0x05\n        /* \"election.sol\":4548:4574  candidates[candidateCount] */\n      0x00\n        /* \"election.sol\":4559:4573  candidateCount */\n      sload(0x01)\n        /* \"election.sol\":4548:4574  candidates[candidateCount] */\n      dup2\n      mstore\n      0x20\n      add\n      swap1\n      dup2\n      mstore\n      0x20\n      add\n      0x00\n      keccak256\n        /* \"election.sol\":4548:4757  candidates[candidateCount] = Candidate ({ //store data of candidate... */\n      0x00\n      dup3\n      add\n      mload\n      dup2\n      0x00\n      add\n      swap1\n      dup2\n      tag_108\n      swap2\n      swap1\n      tag_109\n      jump\t// in\n    tag_108:\n      pop\n      0x20\n      dup3\n      add\n      mload\n      dup2\n      0x01\n      add\n      swap1\n      dup2\n      tag_110\n      swap2\n      swap1\n      tag_109\n      jump\t// in\n    tag_110:\n      pop\n      0x40\n      dup3\n      add\n      mload\n      dup2\n      0x02\n      add\n      sstore\n      0x60\n      dup3\n      add\n      mload\n      dup2\n      0x03\n      add\n      swap1\n      dup2\n      tag_111\n      swap2\n      swap1\n      tag_109\n      jump\t// in\n    tag_111:\n      pop\n      swap1\n      pop\n      pop\n        /* \"election.sol\":4795:4844  Voter({nationalID: _nationalID, hasVoted: false}) */\n      mload(0x40)\n      dup1\n      0x40\n      add\n      0x40\n      mstore\n      dup1\n        /* \"election.sol\":4814:4825  _nationalID */\n      dup3\n        /* \"election.sol\":4795:4844  Voter({nationalID: _nationalID, hasVoted: false}) */\n      dup2\n      mstore\n      0x20\n      add\n        /* \"election.sol\":4837:4842  false */\n      0x00\n        /* \"election.sol\":4795:4844  Voter({nationalID: _nationalID, hasVoted: false}) */\n      iszero\n      iszero\n      dup2\n      mstore\n      pop\n        /* \"election.sol\":4768:4774  voters */\n      0x06\n        /* \"election.sol\":4768:4793  voters[_candidateAddress] */\n      0x00\n        /* \"election.sol\":4775:4792  _candidateAddress */\n      dup7\n        /* \"election.sol\":4768:4793  voters[_candidateAddress] */\n      0xffffffffffffffffffffffffffffffffffffffff\n      and\n      0xffffffffffffffffffffffffffffffffffffffff\n      and\n      dup2\n      mstore\n      0x20\n      add\n      swap1\n      dup2\n      mstore\n      0x20\n      add\n      0x00\n      keccak256\n        /* \"election.sol\":4768:4844  voters[_candidateAddress]= Voter({nationalID: _nationalID, hasVoted: false}) */\n      0x00\n      dup3\n      add\n      mload\n      dup2\n      0x00\n      add\n      swap1\n      dup2\n      tag_112\n      swap2\n      swap1\n      tag_109\n      jump\t// in\n    tag_112:\n      pop\n      0x20\n      dup3\n      add\n      mload\n      dup2\n      0x01\n      add\n      exp(0x0100, 0x00)\n      dup2\n      sload\n      dup2\n      0xff\n      mul\n      not\n      and\n      swap1\n      dup4\n      iszero\n      iszero\n      mul\n      or\n      swap1\n      sstore\n      pop\n      swap1\n      pop\n      pop\n        /* \"election.sol\":4957:4961  true */\n      0x01\n        /* \"election.sol\":4923:4943  registeredNationalID */\n      0x07\n        /* \"election.sol\":4944:4955  _nationalID */\n      dup3\n        /* \"election.sol\":4923:4956  registeredNationalID[_nationalID] */\n      mload(0x40)\n      tag_113\n      swap2\n      swap1\n      tag_92\n      jump\t// in\n    tag_113:\n      swap1\n      dup2\n      mstore\n      0x20\n      add\n      mload(0x40)\n      dup1\n      swap2\n      sub\n      swap1\n      keccak256\n      0x00\n        /* \"election.sol\":4923:4961  registeredNationalID[_nationalID]=true */\n      0x0100\n      exp\n      dup2\n      sload\n      dup2\n      0xff\n      mul\n      not\n      and\n      swap1\n      dup4\n      iszero\n      iszero\n      mul\n      or\n      swap1\n      sstore\n      pop\n        /* \"election.sol\":3810:5019  function registerCandidate(address _candidateAddress, string memory _name, string memory _description, string memory _nationalID) public onlyAdmin { //admin can register candidate... */\n      pop\n      pop\n      pop\n      pop\n      jump\t// out\n        /* \"election.sol\":5460:6232  function vote(uint256 _candidateID, string memory _nationalID) public onlyDuringVoting{ //function for voter to vote... */\n    tag_30:\n        /* \"election.sol\":1347:1357  votingOpen */\n      0x04\n      0x00\n      swap1\n      sload\n      swap1\n      0x0100\n      exp\n      swap1\n      div\n      0xff\n      and\n        /* \"election.sol\":1339:1390  require(votingOpen, \"Voting is not currently open\") */\n      tag_115\n      jumpi\n      mload(0x40)\n      0x08c379a000000000000000000000000000000000000000000000000000000000\n      dup2\n      mstore\n      0x04\n      add\n      tag_116\n      swap1\n      tag_117\n      jump\t// in\n    tag_116:\n      mload(0x40)\n      dup1\n      swap2\n      sub\n      swap1\n      revert\n    tag_115:\n        /* \"election.sol\":5610:5611  0 */\n      0x00\n        /* \"election.sol\":5595:5607  _candidateID */\n      dup3\n        /* \"election.sol\":5595:5611  _candidateID > 0 */\n      gt\n        /* \"election.sol\":5595:5645  _candidateID > 0 && _candidateID <= candidateCount */\n      dup1\n      iszero\n      tag_119\n      jumpi\n      pop\n        /* \"election.sol\":5631:5645  candidateCount */\n      sload(0x01)\n        /* \"election.sol\":5615:5627  _candidateID */\n      dup3\n        /* \"election.sol\":5615:5645  _candidateID <= candidateCount */\n      gt\n      iszero\n        /* \"election.sol\":5595:5645  _candidateID > 0 && _candidateID <= candidateCount */\n    tag_119:\n        /* \"election.sol\":5586:5671  require (_candidateID > 0 && _candidateID <= candidateCount , \"Invalid candidate ID\") */\n      tag_120\n      jumpi\n      mload(0x40)\n      0x08c379a000000000000000000000000000000000000000000000000000000000\n      dup2\n      mstore\n      0x04\n      add\n      tag_121\n      swap1\n      tag_122\n      jump\t// in\n    tag_121:\n      mload(0x40)\n      dup1\n      swap2\n      sub\n      swap1\n      revert\n    tag_120:\n        /* \"election.sol\":5807:5818  _nationalID */\n      dup1\n        /* \"election.sol\":5790:5819  abi.encodePacked(_nationalID) */\n      add(0x20, mload(0x40))\n      tag_123\n      swap2\n      swap1\n      tag_92\n      jump\t// in\n    tag_123:\n      mload(0x40)\n      0x20\n      dup2\n      dup4\n      sub\n      sub\n      dup2\n      mstore\n      swap1\n      0x40\n      mstore\n        /* \"election.sol\":5780:5820  keccak256(abi.encodePacked(_nationalID)) */\n      dup1\n      mload\n      swap1\n      0x20\n      add\n      keccak256\n        /* \"election.sol\":5745:5751  voters */\n      0x06\n        /* \"election.sol\":5745:5763  voters[msg.sender] */\n      0x00\n        /* \"election.sol\":5752:5762  msg.sender */\n      caller\n        /* \"election.sol\":5745:5763  voters[msg.sender] */\n      0xffffffffffffffffffffffffffffffffffffffff\n      and\n      0xffffffffffffffffffffffffffffffffffffffff\n      and\n      dup2\n      mstore\n      0x20\n      add\n      swap1\n      dup2\n      mstore\n      0x20\n      add\n      0x00\n      keccak256\n        /* \"election.sol\":5745:5774  voters[msg.sender].nationalID */\n      0x00\n      add\n        /* \"election.sol\":5728:5775  abi.encodePacked(voters[msg.sender].nationalID) */\n      add(0x20, mload(0x40))\n      tag_124\n      swap2\n      swap1\n      tag_125\n      jump\t// in\n    tag_124:\n      mload(0x40)\n      0x20\n      dup2\n      dup4\n      sub\n      sub\n      dup2\n      mstore\n      swap1\n      0x40\n      mstore\n        /* \"election.sol\":5718:5776  keccak256(abi.encodePacked(voters[msg.sender].nationalID)) */\n      dup1\n      mload\n      swap1\n      0x20\n      add\n      keccak256\n        /* \"election.sol\":5718:5820  keccak256(abi.encodePacked(voters[msg.sender].nationalID)) == keccak256(abi.encodePacked(_nationalID)) */\n      eq\n        /* \"election.sol\":5710:5870  require(keccak256(abi.encodePacked(voters[msg.sender].nationalID)) == keccak256(abi.encodePacked(_nationalID)), ... */\n      tag_126\n      jumpi\n      mload(0x40)\n      0x08c379a000000000000000000000000000000000000000000000000000000000\n      dup2\n      mstore\n      0x04\n      add\n      tag_127\n      swap1\n      tag_128\n      jump\t// in\n    tag_127:\n      mload(0x40)\n      dup1\n      swap2\n      sub\n      swap1\n      revert\n    tag_126:\n        /* \"election.sol\":5974:5980  voters */\n      0x06\n        /* \"election.sol\":5974:5992  voters[msg.sender] */\n      0x00\n        /* \"election.sol\":5981:5991  msg.sender */\n      caller\n        /* \"election.sol\":5974:5992  voters[msg.sender] */\n      0xffffffffffffffffffffffffffffffffffffffff\n      and\n      0xffffffffffffffffffffffffffffffffffffffff\n      and\n      dup2\n      mstore\n      0x20\n      add\n      swap1\n      dup2\n      mstore\n      0x20\n      add\n      0x00\n      keccak256\n        /* \"election.sol\":5974:6001  voters[msg.sender].hasVoted */\n      0x01\n      add\n      0x00\n      swap1\n      sload\n      swap1\n      0x0100\n      exp\n      swap1\n      div\n      0xff\n      and\n        /* \"election.sol\":5973:6001  !voters[msg.sender].hasVoted */\n      iszero\n        /* \"election.sol\":5965:6036  require(!voters[msg.sender].hasVoted,\"Soz, you can only vote one time\") */\n      tag_129\n      jumpi\n      mload(0x40)\n      0x08c379a000000000000000000000000000000000000000000000000000000000\n      dup2\n      mstore\n      0x04\n      add\n      tag_130\n      swap1\n      tag_131\n      jump\t// in\n    tag_130:\n      mload(0x40)\n      dup1\n      swap2\n      sub\n      swap1\n      revert\n    tag_129:\n        /* \"election.sol\":6086:6096  candidates */\n      0x05\n        /* \"election.sol\":6086:6110  candidates[_candidateID] */\n      0x00\n        /* \"election.sol\":6097:6109  _candidateID */\n      dup4\n        /* \"election.sol\":6086:6110  candidates[_candidateID] */\n      dup2\n      mstore\n      0x20\n      add\n      swap1\n      dup2\n      mstore\n      0x20\n      add\n      0x00\n      keccak256\n        /* \"election.sol\":6086:6120  candidates[_candidateID].voteCount */\n      0x02\n      add\n      0x00\n        /* \"election.sol\":6086:6123  candidates[_candidateID].voteCount ++ */\n      dup2\n      sload\n      dup1\n      swap3\n      swap2\n      swap1\n      tag_132\n      swap1\n      tag_107\n      jump\t// in\n    tag_132:\n      swap2\n      swap1\n      pop\n      sstore\n      pop\n        /* \"election.sol\":6219:6223  true */\n      0x01\n        /* \"election.sol\":6189:6195  voters */\n      0x06\n        /* \"election.sol\":6189:6207  voters[msg.sender] */\n      0x00\n        /* \"election.sol\":6196:6206  msg.sender */\n      caller\n        /* \"election.sol\":6189:6207  voters[msg.sender] */\n      0xffffffffffffffffffffffffffffffffffffffff\n      and\n      0xffffffffffffffffffffffffffffffffffffffff\n      and\n      dup2\n      mstore\n      0x20\n      add\n      swap1\n      dup2\n      mstore\n      0x20\n      add\n      0x00\n      keccak256\n        /* \"election.sol\":6189:6216  voters[msg.sender].hasVoted */\n      0x01\n      add\n      0x00\n        /* \"election.sol\":6189:6223  voters[msg.sender].hasVoted = true */\n      0x0100\n      exp\n      dup2\n      sload\n      dup2\n      0xff\n      mul\n      not\n      and\n      swap1\n      dup4\n      iszero\n      iszero\n      mul\n      or\n      swap1\n      sstore\n      pop\n        /* \"election.sol\":5460:6232  function vote(uint256 _candidateID, string memory _nationalID) public onlyDuringVoting{ //function for voter to vote... */\n      pop\n      pop\n      jump\t// out\n        /* \"election.sol\":813:859  mapping(uint256 => Candidate)public candidates */\n    tag_34:\n      mstore(0x20, 0x05)\n      dup1\n      0x00\n      mstore\n      keccak256(0x00, 0x40)\n      0x00\n      swap2\n      pop\n      swap1\n      pop\n      dup1\n      0x00\n      add\n      dup1\n      sload\n      tag_133\n      swap1\n      tag_97\n      jump\t// in\n    tag_133:\n      dup1\n      0x1f\n      add\n      0x20\n      dup1\n      swap2\n      div\n      mul\n      0x20\n      add\n      mload(0x40)\n      swap1\n      dup2\n      add\n      0x40\n      mstore\n      dup1\n      swap3\n      swap2\n      swap1\n      dup2\n      dup2\n      mstore\n      0x20\n      add\n      dup3\n      dup1\n      sload\n      tag_134\n      swap1\n      tag_97\n      jump\t// in\n    tag_134:\n      dup1\n      iszero\n      tag_135\n      jumpi\n      dup1\n      0x1f\n      lt\n      tag_136\n      jumpi\n      0x0100\n      dup1\n      dup4\n      sload\n      div\n      mul\n      dup4\n      mstore\n      swap2\n      0x20\n      add\n      swap2\n      jump(tag_135)\n    tag_136:\n      dup3\n      add\n      swap2\n      swap1\n      0x00\n      mstore\n      keccak256(0x00, 0x20)\n      swap1\n    tag_137:\n      dup2\n      sload\n      dup2\n      mstore\n      swap1\n      0x01\n      add\n      swap1\n      0x20\n      add\n      dup1\n      dup4\n      gt\n      tag_137\n      jumpi\n      dup3\n      swap1\n      sub\n      0x1f\n      and\n      dup3\n      add\n      swap2\n    tag_135:\n      pop\n      pop\n      pop\n      pop\n      pop\n      swap1\n      dup1\n      0x01\n      add\n      dup1\n      sload\n      tag_138\n      swap1\n      tag_97\n      jump\t// in\n    tag_138:\n      dup1\n      0x1f\n      add\n      0x20\n      dup1\n      swap2\n      div\n      mul\n      0x20\n      add\n      mload(0x40)\n      swap1\n      dup2\n      add\n      0x40\n      mstore\n      dup1\n      swap3\n      swap2\n      swap1\n      dup2\n      dup2\n      mstore\n      0x20\n      add\n      dup3\n      dup1\n      sload\n      tag_139\n      swap1\n      tag_97\n      jump\t// in\n    tag_139:\n      dup1\n      iszero\n      tag_140\n      jumpi\n      dup1\n      0x1f\n      lt\n      tag_141\n      jumpi\n      0x0100\n      dup1\n      dup4\n      sload\n      div\n      mul\n      dup4\n      mstore\n      swap2\n      0x20\n      add\n      swap2\n      jump(tag_140)\n    tag_141:\n      dup3\n      add\n      swap2\n      swap1\n      0x00\n      mstore\n      keccak256(0x00, 0x20)\n      swap1\n    tag_142:\n      dup2\n      sload\n      dup2\n      mstore\n      swap1\n      0x01\n      add\n      swap1\n      0x20\n      add\n      dup1\n      dup4\n      gt\n      tag_142\n      jumpi\n      dup3\n      swap1\n      sub\n      0x1f\n      and\n      dup3\n      add\n      swap2\n    tag_140:\n      pop\n      pop\n      pop\n      pop\n      pop\n      swap1\n      dup1\n      0x02\n      add\n      sload\n      swap1\n      dup1\n      0x03\n      add\n      dup1\n      sload\n      tag_143\n      swap1\n      tag_97\n      jump\t// in\n    tag_143:\n      dup1\n      0x1f\n      add\n      0x20\n      dup1\n      swap2\n      div\n      mul\n      0x20\n      add\n      mload(0x40)\n      swap1\n      dup2\n      add\n      0x40\n      mstore\n      dup1\n      swap3\n      swap2\n      swap1\n      dup2\n      dup2\n      mstore\n      0x20\n      add\n      dup3\n      dup1\n      sload\n      tag_144\n      swap1\n      tag_97\n      jump\t// in\n    tag_144:\n      dup1\n      iszero\n      tag_145\n      jumpi\n      dup1\n      0x1f\n      lt\n      tag_146\n      jumpi\n      0x0100\n      dup1\n      dup4\n      sload\n      div\n      mul\n      dup4\n      mstore\n      swap2\n      0x20\n      add\n      swap2\n      jump(tag_145)\n    tag_146:\n      dup3\n      add\n      swap2\n      swap1\n      0x00\n      mstore\n      keccak256(0x00, 0x20)\n      swap1\n    tag_147:\n      dup2\n      sload\n      dup2\n      mstore\n      swap1\n      0x01\n      add\n      swap1\n      0x20\n      add\n      dup1\n      dup4\n      gt\n      tag_147\n      jumpi\n      dup3\n      swap1\n      sub\n      0x1f\n      and\n      dup3\n      add\n      swap2\n    tag_145:\n      pop\n      pop\n      pop\n      pop\n      pop\n      swap1\n      pop\n      dup5\n      jump\t// out\n        /* \"election.sol\":676:701  uint256 public voterCount */\n    tag_38:\n      sload(0x02)\n      dup2\n      jump\t// out\n        /* \"election.sol\":1853:2117  function setVoterLimit(uint256 _limit)public  onlyAdmin {... */\n    tag_43:\n        /* \"election.sol\":1177:1182  admin */\n      0x00\n      dup1\n      sload\n      swap1\n      0x0100\n      exp\n      swap1\n      div\n      0xffffffffffffffffffffffffffffffffffffffff\n      and\n        /* \"election.sol\":1163:1182  msg.sender == admin */\n      0xffffffffffffffffffffffffffffffffffffffff\n      and\n        /* \"election.sol\":1163:1173  msg.sender */\n      caller\n        /* \"election.sol\":1163:1182  msg.sender == admin */\n      0xffffffffffffffffffffffffffffffffffffffff\n      and\n      eq\n        /* \"election.sol\":1155:1221  require(msg.sender == admin, \"Only admin can perform this action\") */\n      tag_149\n      jumpi\n      mload(0x40)\n      0x08c379a000000000000000000000000000000000000000000000000000000000\n      dup2\n      mstore\n      0x04\n      add\n      tag_150\n      swap1\n      tag_82\n      jump\t// in\n    tag_150:\n      mload(0x40)\n      dup1\n      swap2\n      sub\n      swap1\n      revert\n    tag_149:\n        /* \"election.sol\":1937:1938  0 */\n      0x00\n        /* \"election.sol\":1928:1934  _limit */\n      dup2\n        /* \"election.sol\":1928:1938  _limit > 0 */\n      gt\n        /* \"election.sol\":1920:1975  require(_limit > 0 , \"limit must be greater than zero\") */\n      tag_152\n      jumpi\n      mload(0x40)\n      0x08c379a000000000000000000000000000000000000000000000000000000000\n      dup2\n      mstore\n      0x04\n      add\n      tag_153\n      swap1\n      tag_154\n      jump\t// in\n    tag_153:\n      mload(0x40)\n      dup1\n      swap2\n      sub\n      swap1\n      revert\n    tag_152:\n        /* \"election.sol\":2039:2045  _limit */\n      dup1\n        /* \"election.sol\":2026:2036  voterLimit */\n      0x03\n        /* \"election.sol\":2026:2045  voterLimit = _limit */\n      dup2\n      swap1\n      sstore\n      pop\n        /* \"election.sol\":1853:2117  function setVoterLimit(uint256 _limit)public  onlyAdmin {... */\n      pop\n      jump\t// out\n        /* \"election.sol\":708:733  uint256 public voterLimit */\n    tag_45:\n      sload(0x03)\n      dup2\n      jump\t// out\n        /* \"election.sol\":6241:6998  function getWinner()public view onlyAfterVoting returns (string memory winnerName, uint256 totalVotes){ //funciton to get winner of the election... */\n    tag_48:\n        /* \"election.sol\":6298:6322  string memory winnerName */\n      0x60\n        /* \"election.sol\":6324:6342  uint256 totalVotes */\n      0x00\n        /* \"election.sol\":1515:1525  votingOpen */\n      0x04\n      0x00\n      swap1\n      sload\n      swap1\n      0x0100\n      exp\n      swap1\n      div\n      0xff\n      and\n        /* \"election.sol\":1514:1525  !votingOpen */\n      iszero\n        /* \"election.sol\":1506:1549  require(!votingOpen,\"Voting is still open\") */\n      tag_156\n      jumpi\n      mload(0x40)\n      0x08c379a000000000000000000000000000000000000000000000000000000000\n      dup2\n      mstore\n      0x04\n      add\n      tag_157\n      swap1\n      tag_158\n      jump\t// in\n    tag_157:\n      mload(0x40)\n      dup1\n      swap2\n      sub\n      swap1\n      revert\n    tag_156:\n        /* \"election.sol\":6421:6422  0 */\n      0x00\n        /* \"election.sol\":6404:6418  candidateCount */\n      sload(0x01)\n        /* \"election.sol\":6404:6422  candidateCount > 0 */\n      gt\n        /* \"election.sol\":6395:6485  require (candidateCount > 0 , \"You cannot vote for a candidate, if no one is a candidate\") */\n      tag_160\n      jumpi\n      mload(0x40)\n      0x08c379a000000000000000000000000000000000000000000000000000000000\n      dup2\n      mstore\n      0x04\n      add\n      tag_161\n      swap1\n      tag_162\n      jump\t// in\n    tag_161:\n      mload(0x40)\n      dup1\n      swap2\n      sub\n      swap1\n      revert\n    tag_160:\n        /* \"election.sol\":6546:6566  uint256 highestVotes */\n      0x00\n        /* \"election.sol\":6577:6594  uint256 winningID */\n      dup1\n        /* \"election.sol\":6612:6621  uint256 i */\n      0x00\n        /* \"election.sol\":6624:6625  1 */\n      0x01\n        /* \"election.sol\":6612:6625  uint256 i = 1 */\n      swap1\n      pop\n        /* \"election.sol\":6607:6848  for (uint256 i = 1; i <= candidateCount; i++){ //calculate the votes... */\n    tag_163:\n        /* \"election.sol\":6632:6646  candidateCount */\n      sload(0x01)\n        /* \"election.sol\":6627:6628  i */\n      dup2\n        /* \"election.sol\":6627:6646  i <= candidateCount */\n      gt\n        /* \"election.sol\":6607:6848  for (uint256 i = 1; i <= candidateCount; i++){ //calculate the votes... */\n      tag_164\n      jumpi\n        /* \"election.sol\":6719:6731  highestVotes */\n      dup3\n        /* \"election.sol\":6693:6703  candidates */\n      0x05\n        /* \"election.sol\":6693:6706  candidates[i] */\n      0x00\n        /* \"election.sol\":6704:6705  i */\n      dup4\n        /* \"election.sol\":6693:6706  candidates[i] */\n      dup2\n      mstore\n      0x20\n      add\n      swap1\n      dup2\n      mstore\n      0x20\n      add\n      0x00\n      keccak256\n        /* \"election.sol\":6693:6716  candidates[i].voteCount */\n      0x02\n      add\n      sload\n        /* \"election.sol\":6693:6731  candidates[i].voteCount > highestVotes */\n      gt\n        /* \"election.sol\":6689:6837  if (candidates[i].voteCount > highestVotes){... */\n      iszero\n      tag_166\n      jumpi\n        /* \"election.sol\":6766:6776  candidates */\n      0x05\n        /* \"election.sol\":6766:6779  candidates[i] */\n      0x00\n        /* \"election.sol\":6777:6778  i */\n      dup3\n        /* \"election.sol\":6766:6779  candidates[i] */\n      dup2\n      mstore\n      0x20\n      add\n      swap1\n      dup2\n      mstore\n      0x20\n      add\n      0x00\n      keccak256\n        /* \"election.sol\":6766:6789  candidates[i].voteCount */\n      0x02\n      add\n      sload\n        /* \"election.sol\":6751:6789  highestVotes = candidates[i].voteCount */\n      swap3\n      pop\n        /* \"election.sol\":6820:6821  i */\n      dup1\n        /* \"election.sol\":6808:6821  winningID = i */\n      swap2\n      pop\n        /* \"election.sol\":6689:6837  if (candidates[i].voteCount > highestVotes){... */\n    tag_166:\n        /* \"election.sol\":6648:6651  i++ */\n      dup1\n      dup1\n      tag_167\n      swap1\n      tag_107\n      jump\t// in\n    tag_167:\n      swap2\n      pop\n      pop\n        /* \"election.sol\":6607:6848  for (uint256 i = 1; i <= candidateCount; i++){ //calculate the votes... */\n      jump(tag_163)\n    tag_164:\n      pop\n        /* \"election.sol\":6873:6883  candidates */\n      0x05\n        /* \"election.sol\":6873:6894  candidates[winningID] */\n      0x00\n        /* \"election.sol\":6884:6893  winningID */\n      dup3\n        /* \"election.sol\":6873:6894  candidates[winningID] */\n      dup2\n      mstore\n      0x20\n      add\n      swap1\n      dup2\n      mstore\n      0x20\n      add\n      0x00\n      keccak256\n        /* \"election.sol\":6873:6899  candidates[winningID].name */\n      0x00\n      add\n        /* \"election.sol\":6860:6899  winnerName = candidates[winningID].name */\n      dup1\n      sload\n      tag_168\n      swap1\n      tag_97\n      jump\t// in\n    tag_168:\n      dup1\n      0x1f\n      add\n      0x20\n      dup1\n      swap2\n      div\n      mul\n      0x20\n      add\n      mload(0x40)\n      swap1\n      dup2\n      add\n      0x40\n      mstore\n      dup1\n      swap3\n      swap2\n      swap1\n      dup2\n      dup2\n      mstore\n      0x20\n      add\n      dup3\n      dup1\n      sload\n      tag_169\n      swap1\n      tag_97\n      jump\t// in\n    tag_169:\n      dup1\n      iszero\n      tag_170\n      jumpi\n      dup1\n      0x1f\n      lt\n      tag_171\n      jumpi\n      0x0100\n      dup1\n      dup4\n      sload\n      div\n      mul\n      dup4\n      mstore\n      swap2\n      0x20\n      add\n      swap2\n      jump(tag_170)\n    tag_171:\n      dup3\n      add\n      swap2\n      swap1\n      0x00\n      mstore\n      keccak256(0x00, 0x20)\n      swap1\n    tag_172:\n      dup2\n      sload\n      dup2\n      mstore\n      swap1\n      0x01\n      add\n      swap1\n      0x20\n      add\n      dup1\n      dup4\n      gt\n      tag_172\n      jumpi\n      dup3\n      swap1\n      sub\n      0x1f\n      and\n      dup3\n      add\n      swap2\n    tag_170:\n      pop\n      pop\n      pop\n      pop\n      pop\n      swap4\n      pop\n        /* \"election.sol\":6923:6933  candidates */\n      0x05\n        /* \"election.sol\":6923:6944  candidates[winningID] */\n      0x00\n        /* \"election.sol\":6934:6943  winningID */\n      dup3\n        /* \"election.sol\":6923:6944  candidates[winningID] */\n      dup2\n      mstore\n      0x20\n      add\n      swap1\n      dup2\n      mstore\n      0x20\n      add\n      0x00\n      keccak256\n        /* \"election.sol\":6923:6954  candidates[winningID].voteCount */\n      0x02\n      add\n      sload\n        /* \"election.sol\":6910:6954  totalVotes = candidates[winningID].voteCount */\n      swap3\n      pop\n        /* \"election.sol\":6343:6998  { //funciton to get winner of the election... */\n      pop\n      pop\n        /* \"election.sol\":6241:6998  function getWinner()public view onlyAfterVoting returns (string memory winnerName, uint256 totalVotes){ //funciton to get winner of the election... */\n      swap1\n      swap2\n      jump\t// out\n        /* \"election.sol\":866:904  mapping(address => Voter)public voters */\n    tag_54:\n      mstore(0x20, 0x06)\n      dup1\n      0x00\n      mstore\n      keccak256(0x00, 0x40)\n      0x00\n      swap2\n      pop\n      swap1\n      pop\n      dup1\n      0x00\n      add\n      dup1\n      sload\n      tag_173\n      swap1\n      tag_97\n      jump\t// in\n    tag_173:\n      dup1\n      0x1f\n      add\n      0x20\n      dup1\n      swap2\n      div\n      mul\n      0x20\n      add\n      mload(0x40)\n      swap1\n      dup2\n      add\n      0x40\n      mstore\n      dup1\n      swap3\n      swap2\n      swap1\n      dup2\n      dup2\n      mstore\n      0x20\n      add\n      dup3\n      dup1\n      sload\n      tag_174\n      swap1\n      tag_97\n      jump\t// in\n    tag_174:\n      dup1\n      iszero\n      tag_175\n      jumpi\n      dup1\n      0x1f\n      lt\n      tag_176\n      jumpi\n      0x0100\n      dup1\n      dup4\n      sload\n      div\n      mul\n      dup4\n      mstore\n      swap2\n      0x20\n      add\n      swap2\n      jump(tag_175)\n    tag_176:\n      dup3\n      add\n      swap2\n      swap1\n      0x00\n      mstore\n      keccak256(0x00, 0x20)\n      swap1\n    tag_177:\n      dup2\n      sload\n      dup2\n      mstore\n      swap1\n      0x01\n      add\n      swap1\n      0x20\n      add\n      dup1\n      dup4\n      gt\n      tag_177\n      jumpi\n      dup3\n      swap1\n      sub\n      0x1f\n      and\n      dup3\n      add\n      swap2\n    tag_175:\n      pop\n      pop\n      pop\n      pop\n      pop\n      swap1\n      dup1\n      0x01\n      add\n      0x00\n      swap1\n      sload\n      swap1\n      0x0100\n      exp\n      swap1\n      div\n      0xff\n      and\n      swap1\n      pop\n      dup3\n      jump\t// out\n        /* \"election.sol\":740:762  bool public votingOpen */\n    tag_58:\n      0x04\n      0x00\n      swap1\n      sload\n      swap1\n      0x0100\n      exp\n      swap1\n      div\n      0xff\n      and\n      dup2\n      jump\t// out\n        /* \"election.sol\":640:669  uint256 public candidateCount */\n    tag_62:\n      sload(0x01)\n      dup2\n      jump\t// out\n        /* \"election.sol\":5296:5452  function endVoting()public onlyAdmin{//admin can closed voting... */\n    tag_65:\n        /* \"election.sol\":1177:1182  admin */\n      0x00\n      dup1\n      sload\n      swap1\n      0x0100\n      exp\n      swap1\n      div\n      0xffffffffffffffffffffffffffffffffffffffff\n      and\n        /* \"election.sol\":1163:1182  msg.sender == admin */\n      0xffffffffffffffffffffffffffffffffffffffff\n      and\n        /* \"election.sol\":1163:1173  msg.sender */\n      caller\n        /* \"election.sol\":1163:1182  msg.sender == admin */\n      0xffffffffffffffffffffffffffffffffffffffff\n      and\n      eq\n        /* \"election.sol\":1155:1221  require(msg.sender == admin, \"Only admin can perform this action\") */\n      tag_179\n      jumpi\n      mload(0x40)\n      0x08c379a000000000000000000000000000000000000000000000000000000000\n      dup2\n      mstore\n      0x04\n      add\n      tag_180\n      swap1\n      tag_82\n      jump\t// in\n    tag_180:\n      mload(0x40)\n      dup1\n      swap2\n      sub\n      swap1\n      revert\n    tag_179:\n        /* \"election.sol\":5376:5386  votingOpen */\n      0x04\n      0x00\n      swap1\n      sload\n      swap1\n      0x0100\n      exp\n      swap1\n      div\n      0xff\n      and\n        /* \"election.sol\":5368:5415  require(votingOpen, \"Voting is already closed\") */\n      tag_182\n      jumpi\n      mload(0x40)\n      0x08c379a000000000000000000000000000000000000000000000000000000000\n      dup2\n      mstore\n      0x04\n      add\n      tag_183\n      swap1\n      tag_184\n      jump\t// in\n    tag_183:\n      mload(0x40)\n      dup1\n      swap2\n      sub\n      swap1\n      revert\n    tag_182:\n        /* \"election.sol\":5439:5444  false */\n      0x00\n        /* \"election.sol\":5426:5436  votingOpen */\n      0x04\n      0x00\n        /* \"election.sol\":5426:5444  votingOpen = false */\n      0x0100\n      exp\n      dup2\n      sload\n      dup2\n      0xff\n      mul\n      not\n      and\n      swap1\n      dup4\n      iszero\n      iszero\n      mul\n      or\n      swap1\n      sstore\n      pop\n        /* \"election.sol\":5296:5452  function endVoting()public onlyAdmin{//admin can closed voting... */\n      jump\t// out\n        /* \"election.sol\":911:961  mapping(string => bool)public registeredNationalID */\n    tag_69:\n      0x07\n      dup2\n      dup1\n      mload\n      0x20\n      dup2\n      add\n      dup3\n      add\n      dup1\n      mload\n      dup5\n      dup3\n      mstore\n      0x20\n      dup4\n      add\n      0x20\n      dup6\n      add\n      keccak256\n      dup2\n      dup4\n      mstore\n      dup1\n      swap6\n      pop\n      pop\n      pop\n      pop\n      pop\n      pop\n      0x00\n      swap2\n      pop\n      sload\n      swap1\n      0x0100\n      exp\n      swap1\n      div\n      0xff\n      and\n      dup2\n      jump\t// out\n        /* \"election.sol\":2696:3802  function registerVoter(address _voterAddress, string memory _nationalID) public onlyAdmin{ //admin can register voter, need voter account address and their nationalID... */\n    tag_74:\n        /* \"election.sol\":1177:1182  admin */\n      0x00\n      dup1\n      sload\n      swap1\n      0x0100\n      exp\n      swap1\n      div\n      0xffffffffffffffffffffffffffffffffffffffff\n      and\n        /* \"election.sol\":1163:1182  msg.sender == admin */\n      0xffffffffffffffffffffffffffffffffffffffff\n      and\n        /* \"election.sol\":1163:1173  msg.sender */\n      caller\n        /* \"election.sol\":1163:1182  msg.sender == admin */\n      0xffffffffffffffffffffffffffffffffffffffff\n      and\n      eq\n        /* \"election.sol\":1155:1221  require(msg.sender == admin, \"Only admin can perform this action\") */\n      tag_186\n      jumpi\n      mload(0x40)\n      0x08c379a000000000000000000000000000000000000000000000000000000000\n      dup2\n      mstore\n      0x04\n      add\n      tag_187\n      swap1\n      tag_82\n      jump\t// in\n    tag_187:\n      mload(0x40)\n      dup1\n      swap2\n      sub\n      swap1\n      revert\n    tag_186:\n        /* \"election.sol\":2893:2903  voterLimit */\n      sload(0x03)\n        /* \"election.sol\":2880:2890  voterCount */\n      sload(0x02)\n        /* \"election.sol\":2880:2903  voterCount < voterLimit */\n      lt\n        /* \"election.sol\":2872:2960  require(voterCount < voterLimit, \"Registration of voter for this place has reach limit\") */\n      tag_189\n      jumpi\n      mload(0x40)\n      0x08c379a000000000000000000000000000000000000000000000000000000000\n      dup2\n      mstore\n      0x04\n      add\n      tag_190\n      swap1\n      tag_191\n      jump\t// in\n    tag_190:\n      mload(0x40)\n      dup1\n      swap2\n      sub\n      swap1\n      revert\n    tag_189:\n        /* \"election.sol\":3034:3054  registeredNationalID */\n      0x07\n        /* \"election.sol\":3055:3066  _nationalID */\n      dup2\n        /* \"election.sol\":3034:3067  registeredNationalID[_nationalID] */\n      mload(0x40)\n      tag_192\n      swap2\n      swap1\n      tag_92\n      jump\t// in\n    tag_192:\n      swap1\n      dup2\n      mstore\n      0x20\n      add\n      mload(0x40)\n      dup1\n      swap2\n      sub\n      swap1\n      keccak256\n      0x00\n      swap1\n      sload\n      swap1\n      0x0100\n      exp\n      swap1\n      div\n      0xff\n      and\n        /* \"election.sol\":3033:3067  !registeredNationalID[_nationalID] */\n      iszero\n        /* \"election.sol\":3025:3099  require(!registeredNationalID[_nationalID], \"Voter is already registered\") */\n      tag_193\n      jumpi\n      mload(0x40)\n      0x08c379a000000000000000000000000000000000000000000000000000000000\n      dup2\n      mstore\n      0x04\n      add\n      tag_194\n      swap1\n      tag_195\n      jump\t// in\n    tag_194:\n      mload(0x40)\n      dup1\n      swap2\n      sub\n      swap1\n      revert\n    tag_193:\n        /* \"election.sol\":3198:3199  0 */\n      0x00\n        /* \"election.sol\":3154:3160  voters */\n      0x06\n        /* \"election.sol\":3154:3175  voters[_voterAddress] */\n      0x00\n        /* \"election.sol\":3161:3174  _voterAddress */\n      dup5\n        /* \"election.sol\":3154:3175  voters[_voterAddress] */\n      0xffffffffffffffffffffffffffffffffffffffff\n      and\n      0xffffffffffffffffffffffffffffffffffffffff\n      and\n      dup2\n      mstore\n      0x20\n      add\n      swap1\n      dup2\n      mstore\n      0x20\n      add\n      0x00\n      keccak256\n        /* \"election.sol\":3154:3186  voters[_voterAddress].nationalID */\n      0x00\n      add\n        /* \"election.sol\":3148:3194  bytes(voters[_voterAddress].nationalID).length */\n      dup1\n      sload\n      tag_196\n      swap1\n      tag_97\n      jump\t// in\n    tag_196:\n      swap1\n      pop\n        /* \"election.sol\":3148:3199  bytes(voters[_voterAddress].nationalID).length == 0 */\n      eq\n        /* \"election.sol\":3140:3251  require(bytes(voters[_voterAddress].nationalID).length == 0, \"This address is already associated with a voter\") */\n      tag_197\n      jumpi\n      mload(0x40)\n      0x08c379a000000000000000000000000000000000000000000000000000000000\n      dup2\n      mstore\n      0x04\n      add\n      tag_198\n      swap1\n      tag_199\n      jump\t// in\n    tag_198:\n      mload(0x40)\n      dup1\n      swap2\n      sub\n      swap1\n      revert\n    tag_197:\n        /* \"election.sol\":3320:3351  validateNationalID(_nationalID) */\n      tag_200\n        /* \"election.sol\":3339:3350  _nationalID */\n      dup2\n        /* \"election.sol\":3320:3338  validateNationalID */\n      tag_102\n        /* \"election.sol\":3320:3351  validateNationalID(_nationalID) */\n      jump\t// in\n    tag_200:\n        /* \"election.sol\":3312:3408  require(validateNationalID(_nationalID), \"Invalid national ID, you are not eligible for voting\") */\n      tag_201\n      jumpi\n      mload(0x40)\n      0x08c379a000000000000000000000000000000000000000000000000000000000\n      dup2\n      mstore\n      0x04\n      add\n      tag_202\n      swap1\n      tag_203\n      jump\t// in\n    tag_202:\n      mload(0x40)\n      dup1\n      swap2\n      sub\n      swap1\n      revert\n    tag_201:\n        /* \"election.sol\":3495:3546  Voter({ nationalID: _nationalID, hasVoted: false }) */\n      mload(0x40)\n      dup1\n      0x40\n      add\n      0x40\n      mstore\n      dup1\n        /* \"election.sol\":3515:3526  _nationalID */\n      dup3\n        /* \"election.sol\":3495:3546  Voter({ nationalID: _nationalID, hasVoted: false }) */\n      dup2\n      mstore\n      0x20\n      add\n        /* \"election.sol\":3538:3543  false */\n      0x00\n        /* \"election.sol\":3495:3546  Voter({ nationalID: _nationalID, hasVoted: false }) */\n      iszero\n      iszero\n      dup2\n      mstore\n      pop\n        /* \"election.sol\":3472:3478  voters */\n      0x06\n        /* \"election.sol\":3472:3493  voters[_voterAddress] */\n      0x00\n        /* \"election.sol\":3479:3492  _voterAddress */\n      dup5\n        /* \"election.sol\":3472:3493  voters[_voterAddress] */\n      0xffffffffffffffffffffffffffffffffffffffff\n      and\n      0xffffffffffffffffffffffffffffffffffffffff\n      and\n      dup2\n      mstore\n      0x20\n      add\n      swap1\n      dup2\n      mstore\n      0x20\n      add\n      0x00\n      keccak256\n        /* \"election.sol\":3472:3546  voters[_voterAddress]= Voter({ nationalID: _nationalID, hasVoted: false }) */\n      0x00\n      dup3\n      add\n      mload\n      dup2\n      0x00\n      add\n      swap1\n      dup2\n      tag_204\n      swap2\n      swap1\n      tag_109\n      jump\t// in\n    tag_204:\n      pop\n      0x20\n      dup3\n      add\n      mload\n      dup2\n      0x01\n      add\n      exp(0x0100, 0x00)\n      dup2\n      sload\n      dup2\n      0xff\n      mul\n      not\n      and\n      swap1\n      dup4\n      iszero\n      iszero\n      mul\n      or\n      swap1\n      sstore\n      pop\n      swap1\n      pop\n      pop\n        /* \"election.sol\":3635:3639  true */\n      0x01\n        /* \"election.sol\":3601:3621  registeredNationalID */\n      0x07\n        /* \"election.sol\":3622:3633  _nationalID */\n      dup3\n        /* \"election.sol\":3601:3634  registeredNationalID[_nationalID] */\n      mload(0x40)\n      tag_205\n      swap2\n      swap1\n      tag_92\n      jump\t// in\n    tag_205:\n      swap1\n      dup2\n      mstore\n      0x20\n      add\n      mload(0x40)\n      dup1\n      swap2\n      sub\n      swap1\n      keccak256\n      0x00\n        /* \"election.sol\":3601:3639  registeredNationalID[_nationalID]=true */\n      0x0100\n      exp\n      dup2\n      sload\n      dup2\n      0xff\n      mul\n      not\n      and\n      swap1\n      dup4\n      iszero\n      iszero\n      mul\n      or\n      swap1\n      sstore\n      pop\n        /* \"election.sol\":3690:3700  voterCount */\n      0x02\n      0x00\n        /* \"election.sol\":3690:3702  voterCount++ */\n      dup2\n      sload\n      dup1\n      swap3\n      swap2\n      swap1\n      tag_206\n      swap1\n      tag_107\n      jump\t// in\n    tag_206:\n      swap2\n      swap1\n      pop\n      sstore\n      pop\n        /* \"election.sol\":2696:3802  function registerVoter(address _voterAddress, string memory _nationalID) public onlyAdmin{ //admin can register voter, need voter account address and their nationalID... */\n      pop\n      pop\n      jump\t// out\n        /* \"election.sol\":613:633  address public admin */\n    tag_76:\n      0x00\n      dup1\n      sload\n      swap1\n      0x0100\n      exp\n      swap1\n      div\n      0xffffffffffffffffffffffffffffffffffffffff\n      and\n      dup2\n      jump\t// out\n        /* \"election.sol\":2125:2688  function validateNationalID(string memory _nationalID) internal pure returns (bool){ //function to validate nationalID, will receive nationalID as input... */\n    tag_102:\n        /* \"election.sol\":2203:2207  bool */\n      0x00\n        /* \"election.sol\":2287:2315  bytes memory nationalIDBytes */\n      dup1\n        /* \"election.sol\":2324:2335  _nationalID */\n      dup3\n        /* \"election.sol\":2287:2336  bytes memory nationalIDBytes = bytes(_nationalID) */\n      swap1\n      pop\n        /* \"election.sol\":2440:2441  7 */\n      0x07\n        /* \"election.sol\":2414:2429  nationalIDBytes */\n      dup2\n        /* \"election.sol\":2414:2436  nationalIDBytes.length */\n      mload\n        /* \"election.sol\":2414:2441  nationalIDBytes.length != 7 */\n      eq\n        /* \"election.sol\":2411:2566  if(nationalIDBytes.length != 7 ){ //if national ID is less than 7 or not enough character, the national ID is invlaid... */\n      tag_208\n      jumpi\n        /* \"election.sol\":2549:2554  false */\n      0x00\n        /* \"election.sol\":2542:2554  return false */\n      swap2\n      pop\n      pop\n      jump(tag_207)\n        /* \"election.sol\":2411:2566  if(nationalIDBytes.length != 7 ){ //if national ID is less than 7 or not enough character, the national ID is invlaid... */\n    tag_208:\n        /* \"election.sol\":2584:2609  nationalIDBytes[0] == '2' */\n      0x3200000000000000000000000000000000000000000000000000000000000000\n        /* \"election.sol\":2584:2599  nationalIDBytes */\n      dup2\n        /* \"election.sol\":2600:2601  0 */\n      0x00\n        /* \"election.sol\":2584:2602  nationalIDBytes[0] */\n      dup2\n      mload\n      dup2\n      lt\n      tag_209\n      jumpi\n      tag_210\n      tag_211\n      jump\t// in\n    tag_210:\n    tag_209:\n      0x20\n      add\n      add\n      mload\n      0xf8\n      shr\n      0xf8\n      shl\n        /* \"election.sol\":2584:2609  nationalIDBytes[0] == '2' */\n      not(0xffffffffffffffffffffffffffffffffffffffffffffffffffffffffffffff)\n      and\n      eq\n        /* \"election.sol\":2584:2638  nationalIDBytes[0] == '2' && nationalIDBytes[1] == '2' */\n      dup1\n      iszero\n      tag_212\n      jumpi\n      pop\n        /* \"election.sol\":2613:2638  nationalIDBytes[1] == '2' */\n      0x3200000000000000000000000000000000000000000000000000000000000000\n        /* \"election.sol\":2613:2628  nationalIDBytes */\n      dup2\n        /* \"election.sol\":2629:2630  1 */\n      0x01\n        /* \"election.sol\":2613:2631  nationalIDBytes[1] */\n      dup2\n      mload\n      dup2\n      lt\n      tag_213\n      jumpi\n      tag_214\n      tag_211\n      jump\t// in\n    tag_214:\n    tag_213:\n      0x20\n      add\n      add\n      mload\n      0xf8\n      shr\n      0xf8\n      shl\n        /* \"election.sol\":2613:2638  nationalIDBytes[1] == '2' */\n      not(0xffffffffffffffffffffffffffffffffffffffffffffffffffffffffffffff)\n      and\n      eq\n        /* \"election.sol\":2584:2638  nationalIDBytes[0] == '2' && nationalIDBytes[1] == '2' */\n    tag_212:\n        /* \"election.sol\":2576:2639  return (nationalIDBytes[0] == '2' && nationalIDBytes[1] == '2') */\n      swap2\n      pop\n      pop\n        /* \"election.sol\":2125:2688  function validateNationalID(string memory _nationalID) internal pure returns (bool){ //function to validate nationalID, will receive nationalID as input... */\n    tag_207:\n      swap2\n      swap1\n      pop\n      jump\t// out\n        /* \"#utility.yul\":7:82   */\n    tag_215:\n        /* \"#utility.yul\":40:46   */\n      0x00\n        /* \"#utility.yul\":73:75   */\n      0x40\n        /* \"#utility.yul\":67:76   */\n      mload\n        /* \"#utility.yul\":57:76   */\n      swap1\n      pop\n        /* \"#utility.yul\":7:82   */\n      swap1\n      jump\t// out\n        /* \"#utility.yul\":88:205   */\n    tag_216:\n        /* \"#utility.yul\":197:198   */\n      0x00\n        /* \"#utility.yul\":194:195   */\n      dup1\n        /* \"#utility.yul\":187:199   */\n      revert\n        /* \"#utility.yul\":211:328   */\n    tag_217:\n        /* \"#utility.yul\":320:321   */\n      0x00\n        /* \"#utility.yul\":317:318   */\n      dup1\n        /* \"#utility.yul\":310:322   */\n      revert\n        /* \"#utility.yul\":334:460   */\n    tag_218:\n        /* \"#utility.yul\":371:378   */\n      0x00\n        /* \"#utility.yul\":411:453   */\n      0xffffffffffffffffffffffffffffffffffffffff\n        /* \"#utility.yul\":404:409   */\n      dup3\n        /* \"#utility.yul\":400:454   */\n      and\n        /* \"#utility.yul\":389:454   */\n      swap1\n      pop\n        /* \"#utility.yul\":334:460   */\n      swap2\n      swap1\n      pop\n      jump\t// out\n        /* \"#utility.yul\":466:562   */\n    tag_219:\n        /* \"#utility.yul\":503:510   */\n      0x00\n        /* \"#utility.yul\":532:556   */\n      tag_303\n        /* \"#utility.yul\":550:555   */\n      dup3\n        /* \"#utility.yul\":532:556   */\n      tag_218\n      jump\t// in\n    tag_303:\n        /* \"#utility.yul\":521:556   */\n      swap1\n      pop\n        /* \"#utility.yul\":466:562   */\n      swap2\n      swap1\n      pop\n      jump\t// out\n        /* \"#utility.yul\":568:690   */\n    tag_220:\n        /* \"#utility.yul\":641:665   */\n      tag_305\n        /* \"#utility.yul\":659:664   */\n      dup2\n        /* \"#utility.yul\":641:665   */\n      tag_219\n      jump\t// in\n    tag_305:\n        /* \"#utility.yul\":634:639   */\n      dup2\n        /* \"#utility.yul\":631:666   */\n      eq\n        /* \"#utility.yul\":621:684   */\n      tag_306\n      jumpi\n        /* \"#utility.yul\":680:681   */\n      0x00\n        /* \"#utility.yul\":677:678   */\n      dup1\n        /* \"#utility.yul\":670:682   */\n      revert\n        /* \"#utility.yul\":621:684   */\n    tag_306:\n        /* \"#utility.yul\":568:690   */\n      pop\n      jump\t// out\n        /* \"#utility.yul\":696:835   */\n    tag_221:\n        /* \"#utility.yul\":742:747   */\n      0x00\n        /* \"#utility.yul\":780:786   */\n      dup2\n        /* \"#utility.yul\":767:787   */\n      calldataload\n        /* \"#utility.yul\":758:787   */\n      swap1\n      pop\n        /* \"#utility.yul\":796:829   */\n      tag_308\n        /* \"#utility.yul\":823:828   */\n      dup2\n        /* \"#utility.yul\":796:829   */\n      tag_220\n      jump\t// in\n    tag_308:\n        /* \"#utility.yul\":696:835   */\n      swap3\n      swap2\n      pop\n      pop\n      jump\t// out\n        /* \"#utility.yul\":841:958   */\n    tag_222:\n        /* \"#utility.yul\":950:951   */\n      0x00\n        /* \"#utility.yul\":947:948   */\n      dup1\n        /* \"#utility.yul\":940:952   */\n      revert\n        /* \"#utility.yul\":964:1081   */\n    tag_223:\n        /* \"#utility.yul\":1073:1074   */\n      0x00\n        /* \"#utility.yul\":1070:1071   */\n      dup1\n        /* \"#utility.yul\":1063:1075   */\n      revert\n        /* \"#utility.yul\":1087:1189   */\n    tag_224:\n        /* \"#utility.yul\":1128:1134   */\n      0x00\n        /* \"#utility.yul\":1179:1181   */\n      0x1f\n        /* \"#utility.yul\":1175:1182   */\n      not\n        /* \"#utility.yul\":1170:1172   */\n      0x1f\n        /* \"#utility.yul\":1163:1168   */\n      dup4\n        /* \"#utility.yul\":1159:1173   */\n      add\n        /* \"#utility.yul\":1155:1183   */\n      and\n        /* \"#utility.yul\":1145:1183   */\n      swap1\n      pop\n        /* \"#utility.yul\":1087:1189   */\n      swap2\n      swap1\n      pop\n      jump\t// out\n        /* \"#utility.yul\":1195:1375   */\n    tag_225:\n        /* \"#utility.yul\":1243:1320   */\n      0x4e487b7100000000000000000000000000000000000000000000000000000000\n        /* \"#utility.yul\":1240:1241   */\n      0x00\n        /* \"#utility.yul\":1233:1321   */\n      mstore\n        /* \"#utility.yul\":1340:1344   */\n      0x41\n        /* \"#utility.yul\":1337:1338   */\n      0x04\n        /* \"#utility.yul\":1330:1345   */\n      mstore\n        /* \"#utility.yul\":1364:1368   */\n      0x24\n        /* \"#utility.yul\":1361:1362   */\n      0x00\n        /* \"#utility.yul\":1354:1369   */\n      revert\n        /* \"#utility.yul\":1381:1662   */\n    tag_226:\n        /* \"#utility.yul\":1464:1491   */\n      tag_314\n        /* \"#utility.yul\":1486:1490   */\n      dup3\n        /* \"#utility.yul\":1464:1491   */\n      tag_224\n      jump\t// in\n    tag_314:\n        /* \"#utility.yul\":1456:1462   */\n      dup2\n        /* \"#utility.yul\":1452:1492   */\n      add\n        /* \"#utility.yul\":1594:1600   */\n      dup2\n        /* \"#utility.yul\":1582:1592   */\n      dup2\n        /* \"#utility.yul\":1579:1601   */\n      lt\n        /* \"#utility.yul\":1558:1576   */\n      0xffffffffffffffff\n        /* \"#utility.yul\":1546:1556   */\n      dup3\n        /* \"#utility.yul\":1543:1577   */\n      gt\n        /* \"#utility.yul\":1540:1602   */\n      or\n        /* \"#utility.yul\":1537:1625   */\n      iszero\n      tag_315\n      jumpi\n        /* \"#utility.yul\":1605:1623   */\n      tag_316\n      tag_225\n      jump\t// in\n    tag_316:\n        /* \"#utility.yul\":1537:1625   */\n    tag_315:\n        /* \"#utility.yul\":1645:1655   */\n      dup1\n        /* \"#utility.yul\":1641:1643   */\n      0x40\n        /* \"#utility.yul\":1634:1656   */\n      mstore\n        /* \"#utility.yul\":1424:1662   */\n      pop\n        /* \"#utility.yul\":1381:1662   */\n      pop\n      pop\n      jump\t// out\n        /* \"#utility.yul\":1668:1797   */\n    tag_227:\n        /* \"#utility.yul\":1702:1708   */\n      0x00\n        /* \"#utility.yul\":1729:1749   */\n      tag_318\n      tag_215\n      jump\t// in\n    tag_318:\n        /* \"#utility.yul\":1719:1749   */\n      swap1\n      pop\n        /* \"#utility.yul\":1758:1791   */\n      tag_319\n        /* \"#utility.yul\":1786:1790   */\n      dup3\n        /* \"#utility.yul\":1778:1784   */\n      dup3\n        /* \"#utility.yul\":1758:1791   */\n      tag_226\n      jump\t// in\n    tag_319:\n        /* \"#utility.yul\":1668:1797   */\n      swap2\n      swap1\n      pop\n      jump\t// out\n        /* \"#utility.yul\":1803:2111   */\n    tag_228:\n        /* \"#utility.yul\":1865:1869   */\n      0x00\n        /* \"#utility.yul\":1955:1973   */\n      0xffffffffffffffff\n        /* \"#utility.yul\":1947:1953   */\n      dup3\n        /* \"#utility.yul\":1944:1974   */\n      gt\n        /* \"#utility.yul\":1941:1997   */\n      iszero\n      tag_321\n      jumpi\n        /* \"#utility.yul\":1977:1995   */\n      tag_322\n      tag_225\n      jump\t// in\n    tag_322:\n        /* \"#utility.yul\":1941:1997   */\n    tag_321:\n        /* \"#utility.yul\":2015:2044   */\n      tag_323\n        /* \"#utility.yul\":2037:2043   */\n      dup3\n        /* \"#utility.yul\":2015:2044   */\n      tag_224\n      jump\t// in\n    tag_323:\n        /* \"#utility.yul\":2007:2044   */\n      swap1\n      pop\n        /* \"#utility.yul\":2099:2103   */\n      0x20\n        /* \"#utility.yul\":2093:2097   */\n      dup2\n        /* \"#utility.yul\":2089:2104   */\n      add\n        /* \"#utility.yul\":2081:2104   */\n      swap1\n      pop\n        /* \"#utility.yul\":1803:2111   */\n      swap2\n      swap1\n      pop\n      jump\t// out\n        /* \"#utility.yul\":2117:2265   */\n    tag_229:\n        /* \"#utility.yul\":2215:2221   */\n      dup3\n        /* \"#utility.yul\":2210:2213   */\n      dup2\n        /* \"#utility.yul\":2205:2208   */\n      dup4\n        /* \"#utility.yul\":2192:2222   */\n      calldatacopy\n        /* \"#utility.yul\":2256:2257   */\n      0x00\n        /* \"#utility.yul\":2247:2253   */\n      dup4\n        /* \"#utility.yul\":2242:2245   */\n      dup4\n        /* \"#utility.yul\":2238:2254   */\n      add\n        /* \"#utility.yul\":2231:2258   */\n      mstore\n        /* \"#utility.yul\":2117:2265   */\n      pop\n      pop\n      pop\n      jump\t// out\n        /* \"#utility.yul\":2271:2696   */\n    tag_230:\n        /* \"#utility.yul\":2349:2354   */\n      0x00\n        /* \"#utility.yul\":2374:2440   */\n      tag_326\n        /* \"#utility.yul\":2390:2439   */\n      tag_327\n        /* \"#utility.yul\":2432:2438   */\n      dup5\n        /* \"#utility.yul\":2390:2439   */\n      tag_228\n      jump\t// in\n    tag_327:\n        /* \"#utility.yul\":2374:2440   */\n      tag_227\n      jump\t// in\n    tag_326:\n        /* \"#utility.yul\":2365:2440   */\n      swap1\n      pop\n        /* \"#utility.yul\":2463:2469   */\n      dup3\n        /* \"#utility.yul\":2456:2461   */\n      dup2\n        /* \"#utility.yul\":2449:2470   */\n      mstore\n        /* \"#utility.yul\":2501:2505   */\n      0x20\n        /* \"#utility.yul\":2494:2499   */\n      dup2\n        /* \"#utility.yul\":2490:2506   */\n      add\n        /* \"#utility.yul\":2539:2542   */\n      dup5\n        /* \"#utility.yul\":2530:2536   */\n      dup5\n        /* \"#utility.yul\":2525:2528   */\n      dup5\n        /* \"#utility.yul\":2521:2537   */\n      add\n        /* \"#utility.yul\":2518:2543   */\n      gt\n        /* \"#utility.yul\":2515:2627   */\n      iszero\n      tag_328\n      jumpi\n        /* \"#utility.yul\":2546:2625   */\n      tag_329\n      tag_223\n      jump\t// in\n    tag_329:\n        /* \"#utility.yul\":2515:2627   */\n    tag_328:\n        /* \"#utility.yul\":2636:2690   */\n      tag_330\n        /* \"#utility.yul\":2683:2689   */\n      dup5\n        /* \"#utility.yul\":2678:2681   */\n      dup3\n        /* \"#utility.yul\":2673:2676   */\n      dup6\n        /* \"#utility.yul\":2636:2690   */\n      tag_229\n      jump\t// in\n    tag_330:\n        /* \"#utility.yul\":2355:2696   */\n      pop\n        /* \"#utility.yul\":2271:2696   */\n      swap4\n      swap3\n      pop\n      pop\n      pop\n      jump\t// out\n        /* \"#utility.yul\":2716:3056   */\n    tag_231:\n        /* \"#utility.yul\":2772:2777   */\n      0x00\n        /* \"#utility.yul\":2821:2824   */\n      dup3\n        /* \"#utility.yul\":2814:2818   */\n      0x1f\n        /* \"#utility.yul\":2806:2812   */\n      dup4\n        /* \"#utility.yul\":2802:2819   */\n      add\n        /* \"#utility.yul\":2798:2825   */\n      slt\n        /* \"#utility.yul\":2788:2910   */\n      tag_332\n      jumpi\n        /* \"#utility.yul\":2829:2908   */\n      tag_333\n      tag_222\n      jump\t// in\n    tag_333:\n        /* \"#utility.yul\":2788:2910   */\n    tag_332:\n        /* \"#utility.yul\":2946:2952   */\n      dup2\n        /* \"#utility.yul\":2933:2953   */\n      calldataload\n        /* \"#utility.yul\":2971:3050   */\n      tag_334\n        /* \"#utility.yul\":3046:3049   */\n      dup5\n        /* \"#utility.yul\":3038:3044   */\n      dup3\n        /* \"#utility.yul\":3031:3035   */\n      0x20\n        /* \"#utility.yul\":3023:3029   */\n      dup7\n        /* \"#utility.yul\":3019:3036   */\n      add\n        /* \"#utility.yul\":2971:3050   */\n      tag_230\n      jump\t// in\n    tag_334:\n        /* \"#utility.yul\":2962:3050   */\n      swap2\n      pop\n        /* \"#utility.yul\":2778:3056   */\n      pop\n        /* \"#utility.yul\":2716:3056   */\n      swap3\n      swap2\n      pop\n      pop\n      jump\t// out\n        /* \"#utility.yul\":3062:4367   */\n    tag_25:\n        /* \"#utility.yul\":3178:3184   */\n      0x00\n        /* \"#utility.yul\":3186:3192   */\n      dup1\n        /* \"#utility.yul\":3194:3200   */\n      0x00\n        /* \"#utility.yul\":3202:3208   */\n      dup1\n        /* \"#utility.yul\":3251:3254   */\n      0x80\n        /* \"#utility.yul\":3239:3248   */\n      dup6\n        /* \"#utility.yul\":3230:3237   */\n      dup8\n        /* \"#utility.yul\":3226:3249   */\n      sub\n        /* \"#utility.yul\":3222:3255   */\n      slt\n        /* \"#utility.yul\":3219:3339   */\n      iszero\n      tag_336\n      jumpi\n        /* \"#utility.yul\":3258:3337   */\n      tag_337\n      tag_216\n      jump\t// in\n    tag_337:\n        /* \"#utility.yul\":3219:3339   */\n    tag_336:\n        /* \"#utility.yul\":3378:3379   */\n      0x00\n        /* \"#utility.yul\":3403:3456   */\n      tag_338\n        /* \"#utility.yul\":3448:3455   */\n      dup8\n        /* \"#utility.yul\":3439:3445   */\n      dup3\n        /* \"#utility.yul\":3428:3437   */\n      dup9\n        /* \"#utility.yul\":3424:3446   */\n      add\n        /* \"#utility.yul\":3403:3456   */\n      tag_221\n      jump\t// in\n    tag_338:\n        /* \"#utility.yul\":3393:3456   */\n      swap5\n      pop\n        /* \"#utility.yul\":3349:3466   */\n      pop\n        /* \"#utility.yul\":3533:3535   */\n      0x20\n        /* \"#utility.yul\":3522:3531   */\n      dup6\n        /* \"#utility.yul\":3518:3536   */\n      add\n        /* \"#utility.yul\":3505:3537   */\n      calldataload\n        /* \"#utility.yul\":3564:3582   */\n      0xffffffffffffffff\n        /* \"#utility.yul\":3556:3562   */\n      dup2\n        /* \"#utility.yul\":3553:3583   */\n      gt\n        /* \"#utility.yul\":3550:3667   */\n      iszero\n      tag_339\n      jumpi\n        /* \"#utility.yul\":3586:3665   */\n      tag_340\n      tag_217\n      jump\t// in\n    tag_340:\n        /* \"#utility.yul\":3550:3667   */\n    tag_339:\n        /* \"#utility.yul\":3691:3754   */\n      tag_341\n        /* \"#utility.yul\":3746:3753   */\n      dup8\n        /* \"#utility.yul\":3737:3743   */\n      dup3\n        /* \"#utility.yul\":3726:3735   */\n      dup9\n        /* \"#utility.yul\":3722:3744   */\n      add\n        /* \"#utility.yul\":3691:3754   */\n      tag_231\n      jump\t// in\n    tag_341:\n        /* \"#utility.yul\":3681:3754   */\n      swap4\n      pop\n        /* \"#utility.yul\":3476:3764   */\n      pop\n        /* \"#utility.yul\":3831:3833   */\n      0x40\n        /* \"#utility.yul\":3820:3829   */\n      dup6\n        /* \"#utility.yul\":3816:3834   */\n      add\n        /* \"#utility.yul\":3803:3835   */\n      calldataload\n        /* \"#utility.yul\":3862:3880   */\n      0xffffffffffffffff\n        /* \"#utility.yul\":3854:3860   */\n      dup2\n        /* \"#utility.yul\":3851:3881   */\n      gt\n        /* \"#utility.yul\":3848:3965   */\n      iszero\n      tag_342\n      jumpi\n        /* \"#utility.yul\":3884:3963   */\n      tag_343\n      tag_217\n      jump\t// in\n    tag_343:\n        /* \"#utility.yul\":3848:3965   */\n    tag_342:\n        /* \"#utility.yul\":3989:4052   */\n      tag_344\n        /* \"#utility.yul\":4044:4051   */\n      dup8\n        /* \"#utility.yul\":4035:4041   */\n      dup3\n        /* \"#utility.yul\":4024:4033   */\n      dup9\n        /* \"#utility.yul\":4020:4042   */\n      add\n        /* \"#utility.yul\":3989:4052   */\n      tag_231\n      jump\t// in\n    tag_344:\n        /* \"#utility.yul\":3979:4052   */\n      swap3\n      pop\n        /* \"#utility.yul\":3774:4062   */\n      pop\n        /* \"#utility.yul\":4129:4131   */\n      0x60\n        /* \"#utility.yul\":4118:4127   */\n      dup6\n        /* \"#utility.yul\":4114:4132   */\n      add\n        /* \"#utility.yul\":4101:4133   */\n      calldataload\n        /* \"#utility.yul\":4160:4178   */\n      0xffffffffffffffff\n        /* \"#utility.yul\":4152:4158   */\n      dup2\n        /* \"#utility.yul\":4149:4179   */\n      gt\n        /* \"#utility.yul\":4146:4263   */\n      iszero\n      tag_345\n      jumpi\n        /* \"#utility.yul\":4182:4261   */\n      tag_346\n      tag_217\n      jump\t// in\n    tag_346:\n        /* \"#utility.yul\":4146:4263   */\n    tag_345:\n        /* \"#utility.yul\":4287:4350   */\n      tag_347\n        /* \"#utility.yul\":4342:4349   */\n      dup8\n        /* \"#utility.yul\":4333:4339   */\n      dup3\n        /* \"#utility.yul\":4322:4331   */\n      dup9\n        /* \"#utility.yul\":4318:4340   */\n      add\n        /* \"#utility.yul\":4287:4350   */\n      tag_231\n      jump\t// in\n    tag_347:\n        /* \"#utility.yul\":4277:4350   */\n      swap2\n      pop\n        /* \"#utility.yul\":4072:4360   */\n      pop\n        /* \"#utility.yul\":3062:4367   */\n      swap3\n      swap6\n      swap2\n      swap5\n      pop\n      swap3\n      pop\n      jump\t// out\n        /* \"#utility.yul\":4373:4450   */\n    tag_232:\n        /* \"#utility.yul\":4410:4417   */\n      0x00\n        /* \"#utility.yul\":4439:4444   */\n      dup2\n        /* \"#utility.yul\":4428:4444   */\n      swap1\n      pop\n        /* \"#utility.yul\":4373:4450   */\n      swap2\n      swap1\n      pop\n      jump\t// out\n        /* \"#utility.yul\":4456:4578   */\n    tag_233:\n        /* \"#utility.yul\":4529:4553   */\n      tag_350\n        /* \"#utility.yul\":4547:4552   */\n      dup2\n        /* \"#utility.yul\":4529:4553   */\n      tag_232\n      jump\t// in\n    tag_350:\n        /* \"#utility.yul\":4522:4527   */\n      dup2\n        /* \"#utility.yul\":4519:4554   */\n      eq\n        /* \"#utility.yul\":4509:4572   */\n      tag_351\n      jumpi\n        /* \"#utility.yul\":4568:4569   */\n      0x00\n        /* \"#utility.yul\":4565:4566   */\n      dup1\n        /* \"#utility.yul\":4558:4570   */\n      revert\n        /* \"#utility.yul\":4509:4572   */\n    tag_351:\n        /* \"#utility.yul\":4456:4578   */\n      pop\n      jump\t// out\n        /* \"#utility.yul\":4584:4723   */\n    tag_234:\n        /* \"#utility.yul\":4630:4635   */\n      0x00\n        /* \"#utility.yul\":4668:4674   */\n      dup2\n        /* \"#utility.yul\":4655:4675   */\n      calldataload\n        /* \"#utility.yul\":4646:4675   */\n      swap1\n      pop\n        /* \"#utility.yul\":4684:4717   */\n      tag_353\n        /* \"#utility.yul\":4711:4716   */\n      dup2\n        /* \"#utility.yul\":4684:4717   */\n      tag_233\n      jump\t// in\n    tag_353:\n        /* \"#utility.yul\":4584:4723   */\n      swap3\n      swap2\n      pop\n      pop\n      jump\t// out\n        /* \"#utility.yul\":4729:5383   */\n    tag_29:\n        /* \"#utility.yul\":4807:4813   */\n      0x00\n        /* \"#utility.yul\":4815:4821   */\n      dup1\n        /* \"#utility.yul\":4864:4866   */\n      0x40\n        /* \"#utility.yul\":4852:4861   */\n      dup4\n        /* \"#utility.yul\":4843:4850   */\n      dup6\n        /* \"#utility.yul\":4839:4862   */\n      sub\n        /* \"#utility.yul\":4835:4867   */\n      slt\n        /* \"#utility.yul\":4832:4951   */\n      iszero\n      tag_355\n      jumpi\n        /* \"#utility.yul\":4870:4949   */\n      tag_356\n      tag_216\n      jump\t// in\n    tag_356:\n        /* \"#utility.yul\":4832:4951   */\n    tag_355:\n        /* \"#utility.yul\":4990:4991   */\n      0x00\n        /* \"#utility.yul\":5015:5068   */\n      tag_357\n        /* \"#utility.yul\":5060:5067   */\n      dup6\n        /* \"#utility.yul\":5051:5057   */\n      dup3\n        /* \"#utility.yul\":5040:5049   */\n      dup7\n        /* \"#utility.yul\":5036:5058   */\n      add\n        /* \"#utility.yul\":5015:5068   */\n      tag_234\n      jump\t// in\n    tag_357:\n        /* \"#utility.yul\":5005:5068   */\n      swap3\n      pop\n        /* \"#utility.yul\":4961:5078   */\n      pop\n        /* \"#utility.yul\":5145:5147   */\n      0x20\n        /* \"#utility.yul\":5134:5143   */\n      dup4\n        /* \"#utility.yul\":5130:5148   */\n      add\n        /* \"#utility.yul\":5117:5149   */\n      calldataload\n        /* \"#utility.yul\":5176:5194   */\n      0xffffffffffffffff\n        /* \"#utility.yul\":5168:5174   */\n      dup2\n        /* \"#utility.yul\":5165:5195   */\n      gt\n        /* \"#utility.yul\":5162:5279   */\n      iszero\n      tag_358\n      jumpi\n        /* \"#utility.yul\":5198:5277   */\n      tag_359\n      tag_217\n      jump\t// in\n    tag_359:\n        /* \"#utility.yul\":5162:5279   */\n    tag_358:\n        /* \"#utility.yul\":5303:5366   */\n      tag_360\n        /* \"#utility.yul\":5358:5365   */\n      dup6\n        /* \"#utility.yul\":5349:5355   */\n      dup3\n        /* \"#utility.yul\":5338:5347   */\n      dup7\n        /* \"#utility.yul\":5334:5356   */\n      add\n        /* \"#utility.yul\":5303:5366   */\n      tag_231\n      jump\t// in\n    tag_360:\n        /* \"#utility.yul\":5293:5366   */\n      swap2\n      pop\n        /* \"#utility.yul\":5088:5376   */\n      pop\n        /* \"#utility.yul\":4729:5383   */\n      swap3\n      pop\n      swap3\n      swap1\n      pop\n      jump\t// out\n        /* \"#utility.yul\":5389:5718   */\n    tag_33:\n        /* \"#utility.yul\":5448:5454   */\n      0x00\n        /* \"#utility.yul\":5497:5499   */\n      0x20\n        /* \"#utility.yul\":5485:5494   */\n      dup3\n        /* \"#utility.yul\":5476:5483   */\n      dup5\n        /* \"#utility.yul\":5472:5495   */\n      sub\n        /* \"#utility.yul\":5468:5500   */\n      slt\n        /* \"#utility.yul\":5465:5584   */\n      iszero\n      tag_362\n      jumpi\n        /* \"#utility.yul\":5503:5582   */\n      tag_363\n      tag_216\n      jump\t// in\n    tag_363:\n        /* \"#utility.yul\":5465:5584   */\n    tag_362:\n        /* \"#utility.yul\":5623:5624   */\n      0x00\n        /* \"#utility.yul\":5648:5701   */\n      tag_364\n        /* \"#utility.yul\":5693:5700   */\n      dup5\n        /* \"#utility.yul\":5684:5690   */\n      dup3\n        /* \"#utility.yul\":5673:5682   */\n      dup6\n        /* \"#utility.yul\":5669:5691   */\n      add\n        /* \"#utility.yul\":5648:5701   */\n      tag_234\n      jump\t// in\n    tag_364:\n        /* \"#utility.yul\":5638:5701   */\n      swap2\n      pop\n        /* \"#utility.yul\":5594:5711   */\n      pop\n        /* \"#utility.yul\":5389:5718   */\n      swap3\n      swap2\n      pop\n      pop\n      jump\t// out\n        /* \"#utility.yul\":5724:5823   */\n    tag_235:\n        /* \"#utility.yul\":5776:5782   */\n      0x00\n        /* \"#utility.yul\":5810:5815   */\n      dup2\n        /* \"#utility.yul\":5804:5816   */\n      mload\n        /* \"#utility.yul\":5794:5816   */\n      swap1\n      pop\n        /* \"#utility.yul\":5724:5823   */\n      swap2\n      swap1\n      pop\n      jump\t// out\n        /* \"#utility.yul\":5829:5998   */\n    tag_236:\n        /* \"#utility.yul\":5913:5924   */\n      0x00\n        /* \"#utility.yul\":5947:5953   */\n      dup3\n        /* \"#utility.yul\":5942:5945   */\n      dup3\n        /* \"#utility.yul\":5935:5954   */\n      mstore\n        /* \"#utility.yul\":5987:5991   */\n      0x20\n        /* \"#utility.yul\":5982:5985   */\n      dup3\n        /* \"#utility.yul\":5978:5992   */\n      add\n        /* \"#utility.yul\":5963:5992   */\n      swap1\n      pop\n        /* \"#utility.yul\":5829:5998   */\n      swap3\n      swap2\n      pop\n      pop\n      jump\t// out\n        /* \"#utility.yul\":6004:6143   */\n    tag_237:\n        /* \"#utility.yul\":6093:6099   */\n      dup3\n        /* \"#utility.yul\":6088:6091   */\n      dup2\n        /* \"#utility.yul\":6083:6086   */\n      dup4\n        /* \"#utility.yul\":6077:6100   */\n      mcopy\n        /* \"#utility.yul\":6134:6135   */\n      0x00\n        /* \"#utility.yul\":6125:6131   */\n      dup4\n        /* \"#utility.yul\":6120:6123   */\n      dup4\n        /* \"#utility.yul\":6116:6132   */\n      add\n        /* \"#utility.yul\":6109:6136   */\n      mstore\n        /* \"#utility.yul\":6004:6143   */\n      pop\n      pop\n      pop\n      jump\t// out\n        /* \"#utility.yul\":6149:6526   */\n    tag_238:\n        /* \"#utility.yul\":6237:6240   */\n      0x00\n        /* \"#utility.yul\":6265:6304   */\n      tag_369\n        /* \"#utility.yul\":6298:6303   */\n      dup3\n        /* \"#utility.yul\":6265:6304   */\n      tag_235\n      jump\t// in\n    tag_369:\n        /* \"#utility.yul\":6320:6391   */\n      tag_370\n        /* \"#utility.yul\":6384:6390   */\n      dup2\n        /* \"#utility.yul\":6379:6382   */\n      dup6\n        /* \"#utility.yul\":6320:6391   */\n      tag_236\n      jump\t// in\n    tag_370:\n        /* \"#utility.yul\":6313:6391   */\n      swap4\n      pop\n        /* \"#utility.yul\":6400:6465   */\n      tag_371\n        /* \"#utility.yul\":6458:6464   */\n      dup2\n        /* \"#utility.yul\":6453:6456   */\n      dup6\n        /* \"#utility.yul\":6446:6450   */\n      0x20\n        /* \"#utility.yul\":6439:6444   */\n      dup7\n        /* \"#utility.yul\":6435:6451   */\n      add\n        /* \"#utility.yul\":6400:6465   */\n      tag_237\n      jump\t// in\n    tag_371:\n        /* \"#utility.yul\":6490:6519   */\n      tag_372\n        /* \"#utility.yul\":6512:6518   */\n      dup2\n        /* \"#utility.yul\":6490:6519   */\n      tag_224\n      jump\t// in\n    tag_372:\n        /* \"#utility.yul\":6485:6488   */\n      dup5\n        /* \"#utility.yul\":6481:6520   */\n      add\n        /* \"#utility.yul\":6474:6520   */\n      swap2\n      pop\n        /* \"#utility.yul\":6241:6526   */\n      pop\n        /* \"#utility.yul\":6149:6526   */\n      swap3\n      swap2\n      pop\n      pop\n      jump\t// out\n        /* \"#utility.yul\":6532:6650   */\n    tag_239:\n        /* \"#utility.yul\":6619:6643   */\n      tag_374\n        /* \"#utility.yul\":6637:6642   */\n      dup2\n        /* \"#utility.yul\":6619:6643   */\n      tag_232\n      jump\t// in\n    tag_374:\n        /* \"#utility.yul\":6614:6617   */\n      dup3\n        /* \"#utility.yul\":6607:6644   */\n      mstore\n        /* \"#utility.yul\":6532:6650   */\n      pop\n      pop\n      jump\t// out\n        /* \"#utility.yul\":6656:7482   */\n    tag_36:\n        /* \"#utility.yul\":6893:6897   */\n      0x00\n        /* \"#utility.yul\":6931:6934   */\n      0x80\n        /* \"#utility.yul\":6920:6929   */\n      dup3\n        /* \"#utility.yul\":6916:6935   */\n      add\n        /* \"#utility.yul\":6908:6935   */\n      swap1\n      pop\n        /* \"#utility.yul\":6981:6990   */\n      dup2\n        /* \"#utility.yul\":6975:6979   */\n      dup2\n        /* \"#utility.yul\":6971:6991   */\n      sub\n        /* \"#utility.yul\":6967:6968   */\n      0x00\n        /* \"#utility.yul\":6956:6965   */\n      dup4\n        /* \"#utility.yul\":6952:6969   */\n      add\n        /* \"#utility.yul\":6945:6992   */\n      mstore\n        /* \"#utility.yul\":7009:7087   */\n      tag_376\n        /* \"#utility.yul\":7082:7086   */\n      dup2\n        /* \"#utility.yul\":7073:7079   */\n      dup8\n        /* \"#utility.yul\":7009:7087   */\n      tag_238\n      jump\t// in\n    tag_376:\n        /* \"#utility.yul\":7001:7087   */\n      swap1\n      pop\n        /* \"#utility.yul\":7134:7143   */\n      dup2\n        /* \"#utility.yul\":7128:7132   */\n      dup2\n        /* \"#utility.yul\":7124:7144   */\n      sub\n        /* \"#utility.yul\":7119:7121   */\n      0x20\n        /* \"#utility.yul\":7108:7117   */\n      dup4\n        /* \"#utility.yul\":7104:7122   */\n      add\n        /* \"#utility.yul\":7097:7145   */\n      mstore\n        /* \"#utility.yul\":7162:7240   */\n      tag_377\n        /* \"#utility.yul\":7235:7239   */\n      dup2\n        /* \"#utility.yul\":7226:7232   */\n      dup7\n        /* \"#utility.yul\":7162:7240   */\n      tag_238\n      jump\t// in\n    tag_377:\n        /* \"#utility.yul\":7154:7240   */\n      swap1\n      pop\n        /* \"#utility.yul\":7250:7322   */\n      tag_378\n        /* \"#utility.yul\":7318:7320   */\n      0x40\n        /* \"#utility.yul\":7307:7316   */\n      dup4\n        /* \"#utility.yul\":7303:7321   */\n      add\n        /* \"#utility.yul\":7294:7300   */\n      dup6\n        /* \"#utility.yul\":7250:7322   */\n      tag_239\n      jump\t// in\n    tag_378:\n        /* \"#utility.yul\":7369:7378   */\n      dup2\n        /* \"#utility.yul\":7363:7367   */\n      dup2\n        /* \"#utility.yul\":7359:7379   */\n      sub\n        /* \"#utility.yul\":7354:7356   */\n      0x60\n        /* \"#utility.yul\":7343:7352   */\n      dup4\n        /* \"#utility.yul\":7339:7357   */\n      add\n        /* \"#utility.yul\":7332:7380   */\n      mstore\n        /* \"#utility.yul\":7397:7475   */\n      tag_379\n        /* \"#utility.yul\":7470:7474   */\n      dup2\n        /* \"#utility.yul\":7461:7467   */\n      dup5\n        /* \"#utility.yul\":7397:7475   */\n      tag_238\n      jump\t// in\n    tag_379:\n        /* \"#utility.yul\":7389:7475   */\n      swap1\n      pop\n        /* \"#utility.yul\":6656:7482   */\n      swap6\n      swap5\n      pop\n      pop\n      pop\n      pop\n      pop\n      jump\t// out\n        /* \"#utility.yul\":7488:7710   */\n    tag_40:\n        /* \"#utility.yul\":7581:7585   */\n      0x00\n        /* \"#utility.yul\":7619:7621   */\n      0x20\n        /* \"#utility.yul\":7608:7617   */\n      dup3\n        /* \"#utility.yul\":7604:7622   */\n      add\n        /* \"#utility.yul\":7596:7622   */\n      swap1\n      pop\n        /* \"#utility.yul\":7632:7703   */\n      tag_381\n        /* \"#utility.yul\":7700:7701   */\n      0x00\n        /* \"#utility.yul\":7689:7698   */\n      dup4\n        /* \"#utility.yul\":7685:7702   */\n      add\n        /* \"#utility.yul\":7676:7682   */\n      dup5\n        /* \"#utility.yul\":7632:7703   */\n      tag_239\n      jump\t// in\n    tag_381:\n        /* \"#utility.yul\":7488:7710   */\n      swap3\n      swap2\n      pop\n      pop\n      jump\t// out\n        /* \"#utility.yul\":7716:8139   */\n    tag_50:\n        /* \"#utility.yul\":7857:7861   */\n      0x00\n        /* \"#utility.yul\":7895:7897   */\n      0x40\n        /* \"#utility.yul\":7884:7893   */\n      dup3\n        /* \"#utility.yul\":7880:7898   */\n      add\n        /* \"#utility.yul\":7872:7898   */\n      swap1\n      pop\n        /* \"#utility.yul\":7944:7953   */\n      dup2\n        /* \"#utility.yul\":7938:7942   */\n      dup2\n        /* \"#utility.yul\":7934:7954   */\n      sub\n        /* \"#utility.yul\":7930:7931   */\n      0x00\n        /* \"#utility.yul\":7919:7928   */\n      dup4\n        /* \"#utility.yul\":7915:7932   */\n      add\n        /* \"#utility.yul\":7908:7955   */\n      mstore\n        /* \"#utility.yul\":7972:8050   */\n      tag_383\n        /* \"#utility.yul\":8045:8049   */\n      dup2\n        /* \"#utility.yul\":8036:8042   */\n      dup6\n        /* \"#utility.yul\":7972:8050   */\n      tag_238\n      jump\t// in\n    tag_383:\n        /* \"#utility.yul\":7964:8050   */\n      swap1\n      pop\n        /* \"#utility.yul\":8060:8132   */\n      tag_384\n        /* \"#utility.yul\":8128:8130   */\n      0x20\n        /* \"#utility.yul\":8117:8126   */\n      dup4\n        /* \"#utility.yul\":8113:8131   */\n      add\n        /* \"#utility.yul\":8104:8110   */\n      dup5\n        /* \"#utility.yul\":8060:8132   */\n      tag_239\n      jump\t// in\n    tag_384:\n        /* \"#utility.yul\":7716:8139   */\n      swap4\n      swap3\n      pop\n      pop\n      pop\n      jump\t// out\n        /* \"#utility.yul\":8145:8474   */\n    tag_53:\n        /* \"#utility.yul\":8204:8210   */\n      0x00\n        /* \"#utility.yul\":8253:8255   */\n      0x20\n        /* \"#utility.yul\":8241:8250   */\n      dup3\n        /* \"#utility.yul\":8232:8239   */\n      dup5\n        /* \"#utility.yul\":8228:8251   */\n      sub\n        /* \"#utility.yul\":8224:8256   */\n      slt\n        /* \"#utility.yul\":8221:8340   */\n      iszero\n      tag_386\n      jumpi\n        /* \"#utility.yul\":8259:8338   */\n      tag_387\n      tag_216\n      jump\t// in\n    tag_387:\n        /* \"#utility.yul\":8221:8340   */\n    tag_386:\n        /* \"#utility.yul\":8379:8380   */\n      0x00\n        /* \"#utility.yul\":8404:8457   */\n      tag_388\n        /* \"#utility.yul\":8449:8456   */\n      dup5\n        /* \"#utility.yul\":8440:8446   */\n      dup3\n        /* \"#utility.yul\":8429:8438   */\n      dup6\n        /* \"#utility.yul\":8425:8447   */\n      add\n        /* \"#utility.yul\":8404:8457   */\n      tag_221\n      jump\t// in\n    tag_388:\n        /* \"#utility.yul\":8394:8457   */\n      swap2\n      pop\n        /* \"#utility.yul\":8350:8467   */\n      pop\n        /* \"#utility.yul\":8145:8474   */\n      swap3\n      swap2\n      pop\n      pop\n      jump\t// out\n        /* \"#utility.yul\":8480:8570   */\n    tag_240:\n        /* \"#utility.yul\":8514:8521   */\n      0x00\n        /* \"#utility.yul\":8557:8562   */\n      dup2\n        /* \"#utility.yul\":8550:8563   */\n      iszero\n        /* \"#utility.yul\":8543:8564   */\n      iszero\n        /* \"#utility.yul\":8532:8564   */\n      swap1\n      pop\n        /* \"#utility.yul\":8480:8570   */\n      swap2\n      swap1\n      pop\n      jump\t// out\n        /* \"#utility.yul\":8576:8685   */\n    tag_241:\n        /* \"#utility.yul\":8657:8678   */\n      tag_391\n        /* \"#utility.yul\":8672:8677   */\n      dup2\n        /* \"#utility.yul\":8657:8678   */\n      tag_240\n      jump\t// in\n    tag_391:\n        /* \"#utility.yul\":8652:8655   */\n      dup3\n        /* \"#utility.yul\":8645:8679   */\n      mstore\n        /* \"#utility.yul\":8576:8685   */\n      pop\n      pop\n      jump\t// out\n        /* \"#utility.yul\":8691:9102   */\n    tag_56:\n        /* \"#utility.yul\":8826:8830   */\n      0x00\n        /* \"#utility.yul\":8864:8866   */\n      0x40\n        /* \"#utility.yul\":8853:8862   */\n      dup3\n        /* \"#utility.yul\":8849:8867   */\n      add\n        /* \"#utility.yul\":8841:8867   */\n      swap1\n      pop\n        /* \"#utility.yul\":8913:8922   */\n      dup2\n        /* \"#utility.yul\":8907:8911   */\n      dup2\n        /* \"#utility.yul\":8903:8923   */\n      sub\n        /* \"#utility.yul\":8899:8900   */\n      0x00\n        /* \"#utility.yul\":8888:8897   */\n      dup4\n        /* \"#utility.yul\":8884:8901   */\n      add\n        /* \"#utility.yul\":8877:8924   */\n      mstore\n        /* \"#utility.yul\":8941:9019   */\n      tag_393\n        /* \"#utility.yul\":9014:9018   */\n      dup2\n        /* \"#utility.yul\":9005:9011   */\n      dup6\n        /* \"#utility.yul\":8941:9019   */\n      tag_238\n      jump\t// in\n    tag_393:\n        /* \"#utility.yul\":8933:9019   */\n      swap1\n      pop\n        /* \"#utility.yul\":9029:9095   */\n      tag_394\n        /* \"#utility.yul\":9091:9093   */\n      0x20\n        /* \"#utility.yul\":9080:9089   */\n      dup4\n        /* \"#utility.yul\":9076:9094   */\n      add\n        /* \"#utility.yul\":9067:9073   */\n      dup5\n        /* \"#utility.yul\":9029:9095   */\n      tag_241\n      jump\t// in\n    tag_394:\n        /* \"#utility.yul\":8691:9102   */\n      swap4\n      swap3\n      pop\n      pop\n      pop\n      jump\t// out\n        /* \"#utility.yul\":9108:9318   */\n    tag_60:\n        /* \"#utility.yul\":9195:9199   */\n      0x00\n        /* \"#utility.yul\":9233:9235   */\n      0x20\n        /* \"#utility.yul\":9222:9231   */\n      dup3\n        /* \"#utility.yul\":9218:9236   */\n      add\n        /* \"#utility.yul\":9210:9236   */\n      swap1\n      pop\n        /* \"#utility.yul\":9246:9311   */\n      tag_396\n        /* \"#utility.yul\":9308:9309   */\n      0x00\n        /* \"#utility.yul\":9297:9306   */\n      dup4\n        /* \"#utility.yul\":9293:9310   */\n      add\n        /* \"#utility.yul\":9284:9290   */\n      dup5\n        /* \"#utility.yul\":9246:9311   */\n      tag_241\n      jump\t// in\n    tag_396:\n        /* \"#utility.yul\":9108:9318   */\n      swap3\n      swap2\n      pop\n      pop\n      jump\t// out\n        /* \"#utility.yul\":9324:9833   */\n    tag_68:\n        /* \"#utility.yul\":9393:9399   */\n      0x00\n        /* \"#utility.yul\":9442:9444   */\n      0x20\n        /* \"#utility.yul\":9430:9439   */\n      dup3\n        /* \"#utility.yul\":9421:9428   */\n      dup5\n        /* \"#utility.yul\":9417:9440   */\n      sub\n        /* \"#utility.yul\":9413:9445   */\n      slt\n        /* \"#utility.yul\":9410:9529   */\n      iszero\n      tag_398\n      jumpi\n        /* \"#utility.yul\":9448:9527   */\n      tag_399\n      tag_216\n      jump\t// in\n    tag_399:\n        /* \"#utility.yul\":9410:9529   */\n    tag_398:\n        /* \"#utility.yul\":9596:9597   */\n      0x00\n        /* \"#utility.yul\":9585:9594   */\n      dup3\n        /* \"#utility.yul\":9581:9598   */\n      add\n        /* \"#utility.yul\":9568:9599   */\n      calldataload\n        /* \"#utility.yul\":9626:9644   */\n      0xffffffffffffffff\n        /* \"#utility.yul\":9618:9624   */\n      dup2\n        /* \"#utility.yul\":9615:9645   */\n      gt\n        /* \"#utility.yul\":9612:9729   */\n      iszero\n      tag_400\n      jumpi\n        /* \"#utility.yul\":9648:9727   */\n      tag_401\n      tag_217\n      jump\t// in\n    tag_401:\n        /* \"#utility.yul\":9612:9729   */\n    tag_400:\n        /* \"#utility.yul\":9753:9816   */\n      tag_402\n        /* \"#utility.yul\":9808:9815   */\n      dup5\n        /* \"#utility.yul\":9799:9805   */\n      dup3\n        /* \"#utility.yul\":9788:9797   */\n      dup6\n        /* \"#utility.yul\":9784:9806   */\n      add\n        /* \"#utility.yul\":9753:9816   */\n      tag_231\n      jump\t// in\n    tag_402:\n        /* \"#utility.yul\":9743:9816   */\n      swap2\n      pop\n        /* \"#utility.yul\":9539:9826   */\n      pop\n        /* \"#utility.yul\":9324:9833   */\n      swap3\n      swap2\n      pop\n      pop\n      jump\t// out\n        /* \"#utility.yul\":9839:10493   */\n    tag_73:\n        /* \"#utility.yul\":9917:9923   */\n      0x00\n        /* \"#utility.yul\":9925:9931   */\n      dup1\n        /* \"#utility.yul\":9974:9976   */\n      0x40\n        /* \"#utility.yul\":9962:9971   */\n      dup4\n        /* \"#utility.yul\":9953:9960   */\n      dup6\n        /* \"#utility.yul\":9949:9972   */\n      sub\n        /* \"#utility.yul\":9945:9977   */\n      slt\n        /* \"#utility.yul\":9942:10061   */\n      iszero\n      tag_404\n      jumpi\n        /* \"#utility.yul\":9980:10059   */\n      tag_405\n      tag_216\n      jump\t// in\n    tag_405:\n        /* \"#utility.yul\":9942:10061   */\n    tag_404:\n        /* \"#utility.yul\":10100:10101   */\n      0x00\n        /* \"#utility.yul\":10125:10178   */\n      tag_406\n        /* \"#utility.yul\":10170:10177   */\n      dup6\n        /* \"#utility.yul\":10161:10167   */\n      dup3\n        /* \"#utility.yul\":10150:10159   */\n      dup7\n        /* \"#utility.yul\":10146:10168   */\n      add\n        /* \"#utility.yul\":10125:10178   */\n      tag_221\n      jump\t// in\n    tag_406:\n        /* \"#utility.yul\":10115:10178   */\n      swap3\n      pop\n        /* \"#utility.yul\":10071:10188   */\n      pop\n        /* \"#utility.yul\":10255:10257   */\n      0x20\n        /* \"#utility.yul\":10244:10253   */\n      dup4\n        /* \"#utility.yul\":10240:10258   */\n      add\n        /* \"#utility.yul\":10227:10259   */\n      calldataload\n        /* \"#utility.yul\":10286:10304   */\n      0xffffffffffffffff\n        /* \"#utility.yul\":10278:10284   */\n      dup2\n        /* \"#utility.yul\":10275:10305   */\n      gt\n        /* \"#utility.yul\":10272:10389   */\n      iszero\n      tag_407\n      jumpi\n        /* \"#utility.yul\":10308:10387   */\n      tag_408\n      tag_217\n      jump\t// in\n    tag_408:\n        /* \"#utility.yul\":10272:10389   */\n    tag_407:\n        /* \"#utility.yul\":10413:10476   */\n      tag_409\n        /* \"#utility.yul\":10468:10475   */\n      dup6\n        /* \"#utility.yul\":10459:10465   */\n      dup3\n        /* \"#utility.yul\":10448:10457   */\n      dup7\n        /* \"#utility.yul\":10444:10466   */\n      add\n        /* \"#utility.yul\":10413:10476   */\n      tag_231\n      jump\t// in\n    tag_409:\n        /* \"#utility.yul\":10403:10476   */\n      swap2\n      pop\n        /* \"#utility.yul\":10198:10486   */\n      pop\n        /* \"#utility.yul\":9839:10493   */\n      swap3\n      pop\n      swap3\n      swap1\n      pop\n      jump\t// out\n        /* \"#utility.yul\":10499:10617   */\n    tag_242:\n        /* \"#utility.yul\":10586:10610   */\n      tag_411\n        /* \"#utility.yul\":10604:10609   */\n      dup2\n        /* \"#utility.yul\":10586:10610   */\n      tag_219\n      jump\t// in\n    tag_411:\n        /* \"#utility.yul\":10581:10584   */\n      dup3\n        /* \"#utility.yul\":10574:10611   */\n      mstore\n        /* \"#utility.yul\":10499:10617   */\n      pop\n      pop\n      jump\t// out\n        /* \"#utility.yul\":10623:10845   */\n    tag_78:\n        /* \"#utility.yul\":10716:10720   */\n      0x00\n        /* \"#utility.yul\":10754:10756   */\n      0x20\n        /* \"#utility.yul\":10743:10752   */\n      dup3\n        /* \"#utility.yul\":10739:10757   */\n      add\n        /* \"#utility.yul\":10731:10757   */\n      swap1\n      pop\n        /* \"#utility.yul\":10767:10838   */\n      tag_413\n        /* \"#utility.yul\":10835:10836   */\n      0x00\n        /* \"#utility.yul\":10824:10833   */\n      dup4\n        /* \"#utility.yul\":10820:10837   */\n      add\n        /* \"#utility.yul\":10811:10817   */\n      dup5\n        /* \"#utility.yul\":10767:10838   */\n      tag_242\n      jump\t// in\n    tag_413:\n        /* \"#utility.yul\":10623:10845   */\n      swap3\n      swap2\n      pop\n      pop\n      jump\t// out\n        /* \"#utility.yul\":10851:11072   */\n    tag_243:\n        /* \"#utility.yul\":10991:11025   */\n      0x4f6e6c792061646d696e2063616e20706572666f726d20746869732061637469\n        /* \"#utility.yul\":10987:10988   */\n      0x00\n        /* \"#utility.yul\":10979:10985   */\n      dup3\n        /* \"#utility.yul\":10975:10989   */\n      add\n        /* \"#utility.yul\":10968:11026   */\n      mstore\n        /* \"#utility.yul\":11060:11064   */\n      0x6f6e000000000000000000000000000000000000000000000000000000000000\n        /* \"#utility.yul\":11055:11057   */\n      0x20\n        /* \"#utility.yul\":11047:11053   */\n      dup3\n        /* \"#utility.yul\":11043:11058   */\n      add\n        /* \"#utility.yul\":11036:11065   */\n      mstore\n        /* \"#utility.yul\":10851:11072   */\n      pop\n      jump\t// out\n        /* \"#utility.yul\":11078:11444   */\n    tag_244:\n        /* \"#utility.yul\":11220:11223   */\n      0x00\n        /* \"#utility.yul\":11241:11308   */\n      tag_416\n        /* \"#utility.yul\":11305:11307   */\n      0x22\n        /* \"#utility.yul\":11300:11303   */\n      dup4\n        /* \"#utility.yul\":11241:11308   */\n      tag_236\n      jump\t// in\n    tag_416:\n        /* \"#utility.yul\":11234:11308   */\n      swap2\n      pop\n        /* \"#utility.yul\":11317:11410   */\n      tag_417\n        /* \"#utility.yul\":11406:11409   */\n      dup3\n        /* \"#utility.yul\":11317:11410   */\n      tag_243\n      jump\t// in\n    tag_417:\n        /* \"#utility.yul\":11435:11437   */\n      0x40\n        /* \"#utility.yul\":11430:11433   */\n      dup3\n        /* \"#utility.yul\":11426:11438   */\n      add\n        /* \"#utility.yul\":11419:11438   */\n      swap1\n      pop\n        /* \"#utility.yul\":11078:11444   */\n      swap2\n      swap1\n      pop\n      jump\t// out\n        /* \"#utility.yul\":11450:11869   */\n    tag_82:\n        /* \"#utility.yul\":11616:11620   */\n      0x00\n        /* \"#utility.yul\":11654:11656   */\n      0x20\n        /* \"#utility.yul\":11643:11652   */\n      dup3\n        /* \"#utility.yul\":11639:11657   */\n      add\n        /* \"#utility.yul\":11631:11657   */\n      swap1\n      pop\n        /* \"#utility.yul\":11703:11712   */\n      dup2\n        /* \"#utility.yul\":11697:11701   */\n      dup2\n        /* \"#utility.yul\":11693:11713   */\n      sub\n        /* \"#utility.yul\":11689:11690   */\n      0x00\n        /* \"#utility.yul\":11678:11687   */\n      dup4\n        /* \"#utility.yul\":11674:11691   */\n      add\n        /* \"#utility.yul\":11667:11714   */\n      mstore\n        /* \"#utility.yul\":11731:11862   */\n      tag_419\n        /* \"#utility.yul\":11857:11861   */\n      dup2\n        /* \"#utility.yul\":11731:11862   */\n      tag_244\n      jump\t// in\n    tag_419:\n        /* \"#utility.yul\":11723:11862   */\n      swap1\n      pop\n        /* \"#utility.yul\":11450:11869   */\n      swap2\n      swap1\n      pop\n      jump\t// out\n        /* \"#utility.yul\":11875:12114   */\n    tag_245:\n        /* \"#utility.yul\":12015:12049   */\n      0x4174206c656173742074776f2063616e64696461746573206172652072657175\n        /* \"#utility.yul\":12011:12012   */\n      0x00\n        /* \"#utility.yul\":12003:12009   */\n      dup3\n        /* \"#utility.yul\":11999:12013   */\n      add\n        /* \"#utility.yul\":11992:12050   */\n      mstore\n        /* \"#utility.yul\":12084:12106   */\n      0x6972656420746f20737461727420766f74696e67000000000000000000000000\n        /* \"#utility.yul\":12079:12081   */\n      0x20\n        /* \"#utility.yul\":12071:12077   */\n      dup3\n        /* \"#utility.yul\":12067:12082   */\n      add\n        /* \"#utility.yul\":12060:12107   */\n      mstore\n        /* \"#utility.yul\":11875:12114   */\n      pop\n      jump\t// out\n        /* \"#utility.yul\":12120:12486   */\n    tag_246:\n        /* \"#utility.yul\":12262:12265   */\n      0x00\n        /* \"#utility.yul\":12283:12350   */\n      tag_422\n        /* \"#utility.yul\":12347:12349   */\n      0x34\n        /* \"#utility.yul\":12342:12345   */\n      dup4\n        /* \"#utility.yul\":12283:12350   */\n      tag_236\n      jump\t// in\n    tag_422:\n        /* \"#utility.yul\":12276:12350   */\n      swap2\n      pop\n        /* \"#utility.yul\":12359:12452   */\n      tag_423\n        /* \"#utility.yul\":12448:12451   */\n      dup3\n        /* \"#utility.yul\":12359:12452   */\n      tag_245\n      jump\t// in\n    tag_423:\n        /* \"#utility.yul\":12477:12479   */\n      0x40\n        /* \"#utility.yul\":12472:12475   */\n      dup3\n        /* \"#utility.yul\":12468:12480   */\n      add\n        /* \"#utility.yul\":12461:12480   */\n      swap1\n      pop\n        /* \"#utility.yul\":12120:12486   */\n      swap2\n      swap1\n      pop\n      jump\t// out\n        /* \"#utility.yul\":12492:12911   */\n    tag_86:\n        /* \"#utility.yul\":12658:12662   */\n      0x00\n        /* \"#utility.yul\":12696:12698   */\n      0x20\n        /* \"#utility.yul\":12685:12694   */\n      dup3\n        /* \"#utility.yul\":12681:12699   */\n      add\n        /* \"#utility.yul\":12673:12699   */\n      swap1\n      pop\n        /* \"#utility.yul\":12745:12754   */\n      dup2\n        /* \"#utility.yul\":12739:12743   */\n      dup2\n        /* \"#utility.yul\":12735:12755   */\n      sub\n        /* \"#utility.yul\":12731:12732   */\n      0x00\n        /* \"#utility.yul\":12720:12729   */\n      dup4\n        /* \"#utility.yul\":12716:12733   */\n      add\n        /* \"#utility.yul\":12709:12756   */\n      mstore\n        /* \"#utility.yul\":12773:12904   */\n      tag_425\n        /* \"#utility.yul\":12899:12903   */\n      dup2\n        /* \"#utility.yul\":12773:12904   */\n      tag_246\n      jump\t// in\n    tag_425:\n        /* \"#utility.yul\":12765:12904   */\n      swap1\n      pop\n        /* \"#utility.yul\":12492:12911   */\n      swap2\n      swap1\n      pop\n      jump\t// out\n        /* \"#utility.yul\":12917:13065   */\n    tag_247:\n        /* \"#utility.yul\":13019:13030   */\n      0x00\n        /* \"#utility.yul\":13056:13059   */\n      dup2\n        /* \"#utility.yul\":13041:13059   */\n      swap1\n      pop\n        /* \"#utility.yul\":12917:13065   */\n      swap3\n      swap2\n      pop\n      pop\n      jump\t// out\n        /* \"#utility.yul\":13071:13461   */\n    tag_248:\n        /* \"#utility.yul\":13177:13180   */\n      0x00\n        /* \"#utility.yul\":13205:13244   */\n      tag_428\n        /* \"#utility.yul\":13238:13243   */\n      dup3\n        /* \"#utility.yul\":13205:13244   */\n      tag_235\n      jump\t// in\n    tag_428:\n        /* \"#utility.yul\":13260:13349   */\n      tag_429\n        /* \"#utility.yul\":13342:13348   */\n      dup2\n        /* \"#utility.yul\":13337:13340   */\n      dup6\n        /* \"#utility.yul\":13260:13349   */\n      tag_247\n      jump\t// in\n    tag_429:\n        /* \"#utility.yul\":13253:13349   */\n      swap4\n      pop\n        /* \"#utility.yul\":13358:13423   */\n      tag_430\n        /* \"#utility.yul\":13416:13422   */\n      dup2\n        /* \"#utility.yul\":13411:13414   */\n      dup6\n        /* \"#utility.yul\":13404:13408   */\n      0x20\n        /* \"#utility.yul\":13397:13402   */\n      dup7\n        /* \"#utility.yul\":13393:13409   */\n      add\n        /* \"#utility.yul\":13358:13423   */\n      tag_237\n      jump\t// in\n    tag_430:\n        /* \"#utility.yul\":13448:13454   */\n      dup1\n        /* \"#utility.yul\":13443:13446   */\n      dup5\n        /* \"#utility.yul\":13439:13455   */\n      add\n        /* \"#utility.yul\":13432:13455   */\n      swap2\n      pop\n        /* \"#utility.yul\":13181:13461   */\n      pop\n        /* \"#utility.yul\":13071:13461   */\n      swap3\n      swap2\n      pop\n      pop\n      jump\t// out\n        /* \"#utility.yul\":13467:13742   */\n    tag_92:\n        /* \"#utility.yul\":13599:13602   */\n      0x00\n        /* \"#utility.yul\":13621:13716   */\n      tag_432\n        /* \"#utility.yul\":13712:13715   */\n      dup3\n        /* \"#utility.yul\":13703:13709   */\n      dup5\n        /* \"#utility.yul\":13621:13716   */\n      tag_248\n      jump\t// in\n    tag_432:\n        /* \"#utility.yul\":13614:13716   */\n      swap2\n      pop\n        /* \"#utility.yul\":13733:13736   */\n      dup2\n        /* \"#utility.yul\":13726:13736   */\n      swap1\n      pop\n        /* \"#utility.yul\":13467:13742   */\n      swap3\n      swap2\n      pop\n      pop\n      jump\t// out\n        /* \"#utility.yul\":13748:13929   */\n    tag_249:\n        /* \"#utility.yul\":13888:13921   */\n      0x43616e64696461746520697320616c7265616479207265676973746572656400\n        /* \"#utility.yul\":13884:13885   */\n      0x00\n        /* \"#utility.yul\":13876:13882   */\n      dup3\n        /* \"#utility.yul\":13872:13886   */\n      add\n        /* \"#utility.yul\":13865:13922   */\n      mstore\n        /* \"#utility.yul\":13748:13929   */\n      pop\n      jump\t// out\n        /* \"#utility.yul\":13935:14301   */\n    tag_250:\n        /* \"#utility.yul\":14077:14080   */\n      0x00\n        /* \"#utility.yul\":14098:14165   */\n      tag_435\n        /* \"#utility.yul\":14162:14164   */\n      0x1f\n        /* \"#utility.yul\":14157:14160   */\n      dup4\n        /* \"#utility.yul\":14098:14165   */\n      tag_236\n      jump\t// in\n    tag_435:\n        /* \"#utility.yul\":14091:14165   */\n      swap2\n      pop\n        /* \"#utility.yul\":14174:14267   */\n      tag_436\n        /* \"#utility.yul\":14263:14266   */\n      dup3\n        /* \"#utility.yul\":14174:14267   */\n      tag_249\n      jump\t// in\n    tag_436:\n        /* \"#utility.yul\":14292:14294   */\n      0x20\n        /* \"#utility.yul\":14287:14290   */\n      dup3\n        /* \"#utility.yul\":14283:14295   */\n      add\n        /* \"#utility.yul\":14276:14295   */\n      swap1\n      pop\n        /* \"#utility.yul\":13935:14301   */\n      swap2\n      swap1\n      pop\n      jump\t// out\n        /* \"#utility.yul\":14307:14726   */\n    tag_95:\n        /* \"#utility.yul\":14473:14477   */\n      0x00\n        /* \"#utility.yul\":14511:14513   */\n      0x20\n        /* \"#utility.yul\":14500:14509   */\n      dup3\n        /* \"#utility.yul\":14496:14514   */\n      add\n        /* \"#utility.yul\":14488:14514   */\n      swap1\n      pop\n        /* \"#utility.yul\":14560:14569   */\n      dup2\n        /* \"#utility.yul\":14554:14558   */\n      dup2\n        /* \"#utility.yul\":14550:14570   */\n      sub\n        /* \"#utility.yul\":14546:14547   */\n      0x00\n        /* \"#utility.yul\":14535:14544   */\n      dup4\n        /* \"#utility.yul\":14531:14548   */\n      add\n        /* \"#utility.yul\":14524:14571   */\n      mstore\n        /* \"#utility.yul\":14588:14719   */\n      tag_438\n        /* \"#utility.yul\":14714:14718   */\n      dup2\n        /* \"#utility.yul\":14588:14719   */\n      tag_250\n      jump\t// in\n    tag_438:\n        /* \"#utility.yul\":14580:14719   */\n      swap1\n      pop\n        /* \"#utility.yul\":14307:14726   */\n      swap2\n      swap1\n      pop\n      jump\t// out\n        /* \"#utility.yul\":14732:14912   */\n    tag_251:\n        /* \"#utility.yul\":14780:14857   */\n      0x4e487b7100000000000000000000000000000000000000000000000000000000\n        /* \"#utility.yul\":14777:14778   */\n      0x00\n        /* \"#utility.yul\":14770:14858   */\n      mstore\n        /* \"#utility.yul\":14877:14881   */\n      0x22\n        /* \"#utility.yul\":14874:14875   */\n      0x04\n        /* \"#utility.yul\":14867:14882   */\n      mstore\n        /* \"#utility.yul\":14901:14905   */\n      0x24\n        /* \"#utility.yul\":14898:14899   */\n      0x00\n        /* \"#utility.yul\":14891:14906   */\n      revert\n        /* \"#utility.yul\":14918:15238   */\n    tag_97:\n        /* \"#utility.yul\":14962:14968   */\n      0x00\n        /* \"#utility.yul\":14999:15000   */\n      0x02\n        /* \"#utility.yul\":14993:14997   */\n      dup3\n        /* \"#utility.yul\":14989:15001   */\n      div\n        /* \"#utility.yul\":14979:15001   */\n      swap1\n      pop\n        /* \"#utility.yul\":15046:15047   */\n      0x01\n        /* \"#utility.yul\":15040:15044   */\n      dup3\n        /* \"#utility.yul\":15036:15048   */\n      and\n        /* \"#utility.yul\":15067:15085   */\n      dup1\n        /* \"#utility.yul\":15057:15138   */\n      tag_441\n      jumpi\n        /* \"#utility.yul\":15123:15127   */\n      0x7f\n        /* \"#utility.yul\":15115:15121   */\n      dup3\n        /* \"#utility.yul\":15111:15128   */\n      and\n        /* \"#utility.yul\":15101:15128   */\n      swap2\n      pop\n        /* \"#utility.yul\":15057:15138   */\n    tag_441:\n        /* \"#utility.yul\":15185:15187   */\n      0x20\n        /* \"#utility.yul\":15177:15183   */\n      dup3\n        /* \"#utility.yul\":15174:15188   */\n      lt\n        /* \"#utility.yul\":15154:15172   */\n      dup2\n        /* \"#utility.yul\":15151:15189   */\n      sub\n        /* \"#utility.yul\":15148:15232   */\n      tag_442\n      jumpi\n        /* \"#utility.yul\":15204:15222   */\n      tag_443\n      tag_251\n      jump\t// in\n    tag_443:\n        /* \"#utility.yul\":15148:15232   */\n    tag_442:\n        /* \"#utility.yul\":14969:15238   */\n      pop\n        /* \"#utility.yul\":14918:15238   */\n      swap2\n      swap1\n      pop\n      jump\t// out\n        /* \"#utility.yul\":15244:15482   */\n    tag_252:\n        /* \"#utility.yul\":15384:15418   */\n      0x54686973206164647265737320697320616c7265616479206173736f63696174\n        /* \"#utility.yul\":15380:15381   */\n      0x00\n        /* \"#utility.yul\":15372:15378   */\n      dup3\n        /* \"#utility.yul\":15368:15382   */\n      add\n        /* \"#utility.yul\":15361:15419   */\n      mstore\n        /* \"#utility.yul\":15453:15474   */\n      0x6564207769746820612063616e64696461746500000000000000000000000000\n        /* \"#utility.yul\":15448:15450   */\n      0x20\n        /* \"#utility.yul\":15440:15446   */\n      dup3\n        /* \"#utility.yul\":15436:15451   */\n      add\n        /* \"#utility.yul\":15429:15475   */\n      mstore\n        /* \"#utility.yul\":15244:15482   */\n      pop\n      jump\t// out\n        /* \"#utility.yul\":15488:15854   */\n    tag_253:\n        /* \"#utility.yul\":15630:15633   */\n      0x00\n        /* \"#utility.yul\":15651:15718   */\n      tag_446\n        /* \"#utility.yul\":15715:15717   */\n      0x33\n        /* \"#utility.yul\":15710:15713   */\n      dup4\n        /* \"#utility.yul\":15651:15718   */\n      tag_236\n      jump\t// in\n    tag_446:\n        /* \"#utility.yul\":15644:15718   */\n      swap2\n      pop\n        /* \"#utility.yul\":15727:15820   */\n      tag_447\n        /* \"#utility.yul\":15816:15819   */\n      dup3\n        /* \"#utility.yul\":15727:15820   */\n      tag_252\n      jump\t// in\n    tag_447:\n        /* \"#utility.yul\":15845:15847   */\n      0x40\n        /* \"#utility.yul\":15840:15843   */\n      dup3\n        /* \"#utility.yul\":15836:15848   */\n      add\n        /* \"#utility.yul\":15829:15848   */\n      swap1\n      pop\n        /* \"#utility.yul\":15488:15854   */\n      swap2\n      swap1\n      pop\n      jump\t// out\n        /* \"#utility.yul\":15860:16279   */\n    tag_100:\n        /* \"#utility.yul\":16026:16030   */\n      0x00\n        /* \"#utility.yul\":16064:16066   */\n      0x20\n        /* \"#utility.yul\":16053:16062   */\n      dup3\n        /* \"#utility.yul\":16049:16067   */\n      add\n        /* \"#utility.yul\":16041:16067   */\n      swap1\n      pop\n        /* \"#utility.yul\":16113:16122   */\n      dup2\n        /* \"#utility.yul\":16107:16111   */\n      dup2\n        /* \"#utility.yul\":16103:16123   */\n      sub\n        /* \"#utility.yul\":16099:16100   */\n      0x00\n        /* \"#utility.yul\":16088:16097   */\n      dup4\n        /* \"#utility.yul\":16084:16101   */\n      add\n        /* \"#utility.yul\":16077:16124   */\n      mstore\n        /* \"#utility.yul\":16141:16272   */\n      tag_449\n        /* \"#utility.yul\":16267:16271   */\n      dup2\n        /* \"#utility.yul\":16141:16272   */\n      tag_253\n      jump\t// in\n    tag_449:\n        /* \"#utility.yul\":16133:16272   */\n      swap1\n      pop\n        /* \"#utility.yul\":15860:16279   */\n      swap2\n      swap1\n      pop\n      jump\t// out\n        /* \"#utility.yul\":16285:16527   */\n    tag_254:\n        /* \"#utility.yul\":16425:16459   */\n      0x496e76616c6964206e6174696f6e616c2049442c20796f7520617265206e6f74\n        /* \"#utility.yul\":16421:16422   */\n      0x00\n        /* \"#utility.yul\":16413:16419   */\n      dup3\n        /* \"#utility.yul\":16409:16423   */\n      add\n        /* \"#utility.yul\":16402:16460   */\n      mstore\n        /* \"#utility.yul\":16494:16519   */\n      0x20656c696769626c6520666f722063616e646964617465000000000000000000\n        /* \"#utility.yul\":16489:16491   */\n      0x20\n        /* \"#utility.yul\":16481:16487   */\n      dup3\n        /* \"#utility.yul\":16477:16492   */\n      add\n        /* \"#utility.yul\":16470:16520   */\n      mstore\n        /* \"#utility.yul\":16285:16527   */\n      pop\n      jump\t// out\n        /* \"#utility.yul\":16533:16899   */\n    tag_255:\n        /* \"#utility.yul\":16675:16678   */\n      0x00\n        /* \"#utility.yul\":16696:16763   */\n      tag_452\n        /* \"#utility.yul\":16760:16762   */\n      0x37\n        /* \"#utility.yul\":16755:16758   */\n      dup4\n        /* \"#utility.yul\":16696:16763   */\n      tag_236\n      jump\t// in\n    tag_452:\n        /* \"#utility.yul\":16689:16763   */\n      swap2\n      pop\n        /* \"#utility.yul\":16772:16865   */\n      tag_453\n        /* \"#utility.yul\":16861:16864   */\n      dup3\n        /* \"#utility.yul\":16772:16865   */\n      tag_254\n      jump\t// in\n    tag_453:\n        /* \"#utility.yul\":16890:16892   */\n      0x40\n        /* \"#utility.yul\":16885:16888   */\n      dup3\n        /* \"#utility.yul\":16881:16893   */\n      add\n        /* \"#utility.yul\":16874:16893   */\n      swap1\n      pop\n        /* \"#utility.yul\":16533:16899   */\n      swap2\n      swap1\n      pop\n      jump\t// out\n        /* \"#utility.yul\":16905:17324   */\n    tag_105:\n        /* \"#utility.yul\":17071:17075   */\n      0x00\n        /* \"#utility.yul\":17109:17111   */\n      0x20\n        /* \"#utility.yul\":17098:17107   */\n      dup3\n        /* \"#utility.yul\":17094:17112   */\n      add\n        /* \"#utility.yul\":17086:17112   */\n      swap1\n      pop\n        /* \"#utility.yul\":17158:17167   */\n      dup2\n        /* \"#utility.yul\":17152:17156   */\n      dup2\n        /* \"#utility.yul\":17148:17168   */\n      sub\n        /* \"#utility.yul\":17144:17145   */\n      0x00\n        /* \"#utility.yul\":17133:17142   */\n      dup4\n        /* \"#utility.yul\":17129:17146   */\n      add\n        /* \"#utility.yul\":17122:17169   */\n      mstore\n        /* \"#utility.yul\":17186:17317   */\n      tag_455\n        /* \"#utility.yul\":17312:17316   */\n      dup2\n        /* \"#utility.yul\":17186:17317   */\n      tag_255\n      jump\t// in\n    tag_455:\n        /* \"#utility.yul\":17178:17317   */\n      swap1\n      pop\n        /* \"#utility.yul\":16905:17324   */\n      swap2\n      swap1\n      pop\n      jump\t// out\n        /* \"#utility.yul\":17330:17510   */\n    tag_256:\n        /* \"#utility.yul\":17378:17455   */\n      0x4e487b7100000000000000000000000000000000000000000000000000000000\n        /* \"#utility.yul\":17375:17376   */\n      0x00\n        /* \"#utility.yul\":17368:17456   */\n      mstore\n        /* \"#utility.yul\":17475:17479   */\n      0x11\n        /* \"#utility.yul\":17472:17473   */\n      0x04\n        /* \"#utility.yul\":17465:17480   */\n      mstore\n        /* \"#utility.yul\":17499:17503   */\n      0x24\n        /* \"#utility.yul\":17496:17497   */\n      0x00\n        /* \"#utility.yul\":17489:17504   */\n      revert\n        /* \"#utility.yul\":17516:17749   */\n    tag_107:\n        /* \"#utility.yul\":17555:17558   */\n      0x00\n        /* \"#utility.yul\":17578:17602   */\n      tag_458\n        /* \"#utility.yul\":17596:17601   */\n      dup3\n        /* \"#utility.yul\":17578:17602   */\n      tag_232\n      jump\t// in\n    tag_458:\n        /* \"#utility.yul\":17569:17602   */\n      swap2\n      pop\n        /* \"#utility.yul\":17624:17690   */\n      0xffffffffffffffffffffffffffffffffffffffffffffffffffffffffffffffff\n        /* \"#utility.yul\":17617:17622   */\n      dup3\n        /* \"#utility.yul\":17614:17691   */\n      sub\n        /* \"#utility.yul\":17611:17714   */\n      tag_459\n      jumpi\n        /* \"#utility.yul\":17694:17712   */\n      tag_460\n      tag_256\n      jump\t// in\n    tag_460:\n        /* \"#utility.yul\":17611:17714   */\n    tag_459:\n        /* \"#utility.yul\":17741:17742   */\n      0x01\n        /* \"#utility.yul\":17734:17739   */\n      dup3\n        /* \"#utility.yul\":17730:17743   */\n      add\n        /* \"#utility.yul\":17723:17743   */\n      swap1\n      pop\n        /* \"#utility.yul\":17516:17749   */\n      swap2\n      swap1\n      pop\n      jump\t// out\n        /* \"#utility.yul\":17755:17896   */\n    tag_257:\n        /* \"#utility.yul\":17804:17808   */\n      0x00\n        /* \"#utility.yul\":17827:17830   */\n      dup2\n        /* \"#utility.yul\":17819:17830   */\n      swap1\n      pop\n        /* \"#utility.yul\":17850:17853   */\n      dup2\n        /* \"#utility.yul\":17847:17848   */\n      0x00\n        /* \"#utility.yul\":17840:17854   */\n      mstore\n        /* \"#utility.yul\":17884:17888   */\n      0x20\n        /* \"#utility.yul\":17881:17882   */\n      0x00\n        /* \"#utility.yul\":17871:17889   */\n      keccak256\n        /* \"#utility.yul\":17863:17889   */\n      swap1\n      pop\n        /* \"#utility.yul\":17755:17896   */\n      swap2\n      swap1\n      pop\n      jump\t// out\n        /* \"#utility.yul\":17902:17995   */\n    tag_258:\n        /* \"#utility.yul\":17939:17945   */\n      0x00\n        /* \"#utility.yul\":17986:17988   */\n      0x20\n        /* \"#utility.yul\":17981:17983   */\n      0x1f\n        /* \"#utility.yul\":17974:17979   */\n      dup4\n        /* \"#utility.yul\":17970:17984   */\n      add\n        /* \"#utility.yul\":17966:17989   */\n      div\n        /* \"#utility.yul\":17956:17989   */\n      swap1\n      pop\n        /* \"#utility.yul\":17902:17995   */\n      swap2\n      swap1\n      pop\n      jump\t// out\n        /* \"#utility.yul\":18001:18108   */\n    tag_259:\n        /* \"#utility.yul\":18045:18053   */\n      0x00\n        /* \"#utility.yul\":18095:18100   */\n      dup3\n        /* \"#utility.yul\":18089:18093   */\n      dup3\n        /* \"#utility.yul\":18085:18101   */\n      shl\n        /* \"#utility.yul\":18064:18101   */\n      swap1\n      pop\n        /* \"#utility.yul\":18001:18108   */\n      swap3\n      swap2\n      pop\n      pop\n      jump\t// out\n        /* \"#utility.yul\":18114:18507   */\n    tag_260:\n        /* \"#utility.yul\":18183:18189   */\n      0x00\n        /* \"#utility.yul\":18233:18234   */\n      0x08\n        /* \"#utility.yul\":18221:18231   */\n      dup4\n        /* \"#utility.yul\":18217:18235   */\n      mul\n        /* \"#utility.yul\":18256:18353   */\n      tag_465\n        /* \"#utility.yul\":18286:18352   */\n      0xffffffffffffffffffffffffffffffffffffffffffffffffffffffffffffffff\n        /* \"#utility.yul\":18275:18284   */\n      dup3\n        /* \"#utility.yul\":18256:18353   */\n      tag_259\n      jump\t// in\n    tag_465:\n        /* \"#utility.yul\":18374:18413   */\n      tag_466\n        /* \"#utility.yul\":18404:18412   */\n      dup7\n        /* \"#utility.yul\":18393:18402   */\n      dup4\n        /* \"#utility.yul\":18374:18413   */\n      tag_259\n      jump\t// in\n    tag_466:\n        /* \"#utility.yul\":18362:18413   */\n      swap6\n      pop\n        /* \"#utility.yul\":18446:18450   */\n      dup1\n        /* \"#utility.yul\":18442:18451   */\n      not\n        /* \"#utility.yul\":18435:18440   */\n      dup5\n        /* \"#utility.yul\":18431:18452   */\n      and\n        /* \"#utility.yul\":18422:18452   */\n      swap4\n      pop\n        /* \"#utility.yul\":18495:18499   */\n      dup1\n        /* \"#utility.yul\":18485:18493   */\n      dup7\n        /* \"#utility.yul\":18481:18500   */\n      and\n        /* \"#utility.yul\":18474:18479   */\n      dup5\n        /* \"#utility.yul\":18471:18501   */\n      or\n        /* \"#utility.yul\":18461:18501   */\n      swap3\n      pop\n        /* \"#utility.yul\":18190:18507   */\n      pop\n      pop\n        /* \"#utility.yul\":18114:18507   */\n      swap4\n      swap3\n      pop\n      pop\n      pop\n      jump\t// out\n        /* \"#utility.yul\":18513:18573   */\n    tag_261:\n        /* \"#utility.yul\":18541:18544   */\n      0x00\n        /* \"#utility.yul\":18562:18567   */\n      dup2\n        /* \"#utility.yul\":18555:18567   */\n      swap1\n      pop\n        /* \"#utility.yul\":18513:18573   */\n      swap2\n      swap1\n      pop\n      jump\t// out\n        /* \"#utility.yul\":18579:18721   */\n    tag_262:\n        /* \"#utility.yul\":18629:18638   */\n      0x00\n        /* \"#utility.yul\":18662:18715   */\n      tag_469\n        /* \"#utility.yul\":18680:18714   */\n      tag_470\n        /* \"#utility.yul\":18689:18713   */\n      tag_471\n        /* \"#utility.yul\":18707:18712   */\n      dup5\n        /* \"#utility.yul\":18689:18713   */\n      tag_232\n      jump\t// in\n    tag_471:\n        /* \"#utility.yul\":18680:18714   */\n      tag_261\n      jump\t// in\n    tag_470:\n        /* \"#utility.yul\":18662:18715   */\n      tag_232\n      jump\t// in\n    tag_469:\n        /* \"#utility.yul\":18649:18715   */\n      swap1\n      pop\n        /* \"#utility.yul\":18579:18721   */\n      swap2\n      swap1\n      pop\n      jump\t// out\n        /* \"#utility.yul\":18727:18802   */\n    tag_263:\n        /* \"#utility.yul\":18770:18773   */\n      0x00\n        /* \"#utility.yul\":18791:18796   */\n      dup2\n        /* \"#utility.yul\":18784:18796   */\n      swap1\n      pop\n        /* \"#utility.yul\":18727:18802   */\n      swap2\n      swap1\n      pop\n      jump\t// out\n        /* \"#utility.yul\":18808:19077   */\n    tag_264:\n        /* \"#utility.yul\":18918:18957   */\n      tag_474\n        /* \"#utility.yul\":18949:18956   */\n      dup4\n        /* \"#utility.yul\":18918:18957   */\n      tag_262\n      jump\t// in\n    tag_474:\n        /* \"#utility.yul\":18979:19070   */\n      tag_475\n        /* \"#utility.yul\":19028:19069   */\n      tag_476\n        /* \"#utility.yul\":19052:19068   */\n      dup3\n        /* \"#utility.yul\":19028:19069   */\n      tag_263\n      jump\t// in\n    tag_476:\n        /* \"#utility.yul\":19020:19026   */\n      dup5\n        /* \"#utility.yul\":19013:19017   */\n      dup5\n        /* \"#utility.yul\":19007:19018   */\n      sload\n        /* \"#utility.yul\":18979:19070   */\n      tag_260\n      jump\t// in\n    tag_475:\n        /* \"#utility.yul\":18973:18977   */\n      dup3\n        /* \"#utility.yul\":18966:19071   */\n      sstore\n        /* \"#utility.yul\":18884:19077   */\n      pop\n        /* \"#utility.yul\":18808:19077   */\n      pop\n      pop\n      pop\n      jump\t// out\n        /* \"#utility.yul\":19083:19156   */\n    tag_265:\n        /* \"#utility.yul\":19128:19131   */\n      0x00\n        /* \"#utility.yul\":19083:19156   */\n      swap1\n      jump\t// out\n        /* \"#utility.yul\":19162:19351   */\n    tag_266:\n        /* \"#utility.yul\":19239:19271   */\n      tag_479\n      tag_265\n      jump\t// in\n    tag_479:\n        /* \"#utility.yul\":19280:19345   */\n      tag_480\n        /* \"#utility.yul\":19338:19344   */\n      dup2\n        /* \"#utility.yul\":19330:19336   */\n      dup5\n        /* \"#utility.yul\":19324:19328   */\n      dup5\n        /* \"#utility.yul\":19280:19345   */\n      tag_264\n      jump\t// in\n    tag_480:\n        /* \"#utility.yul\":19215:19351   */\n      pop\n        /* \"#utility.yul\":19162:19351   */\n      pop\n      pop\n      jump\t// out\n        /* \"#utility.yul\":19357:19543   */\n    tag_267:\n        /* \"#utility.yul\":19417:19537   */\n    tag_482:\n        /* \"#utility.yul\":19434:19437   */\n      dup2\n        /* \"#utility.yul\":19427:19432   */\n      dup2\n        /* \"#utility.yul\":19424:19438   */\n      lt\n        /* \"#utility.yul\":19417:19537   */\n      iszero\n      tag_484\n      jumpi\n        /* \"#utility.yul\":19488:19527   */\n      tag_485\n        /* \"#utility.yul\":19525:19526   */\n      0x00\n        /* \"#utility.yul\":19518:19523   */\n      dup3\n        /* \"#utility.yul\":19488:19527   */\n      tag_266\n      jump\t// in\n    tag_485:\n        /* \"#utility.yul\":19461:19462   */\n      0x01\n        /* \"#utility.yul\":19454:19459   */\n      dup2\n        /* \"#utility.yul\":19450:19463   */\n      add\n        /* \"#utility.yul\":19441:19463   */\n      swap1\n      pop\n        /* \"#utility.yul\":19417:19537   */\n      jump(tag_482)\n    tag_484:\n        /* \"#utility.yul\":19357:19543   */\n      pop\n      pop\n      jump\t// out\n        /* \"#utility.yul\":19549:20092   */\n    tag_268:\n        /* \"#utility.yul\":19650:19652   */\n      0x1f\n        /* \"#utility.yul\":19645:19648   */\n      dup3\n        /* \"#utility.yul\":19642:19653   */\n      gt\n        /* \"#utility.yul\":19639:20085   */\n      iszero\n      tag_487\n      jumpi\n        /* \"#utility.yul\":19684:19722   */\n      tag_488\n        /* \"#utility.yul\":19716:19721   */\n      dup2\n        /* \"#utility.yul\":19684:19722   */\n      tag_257\n      jump\t// in\n    tag_488:\n        /* \"#utility.yul\":19768:19797   */\n      tag_489\n        /* \"#utility.yul\":19786:19796   */\n      dup5\n        /* \"#utility.yul\":19768:19797   */\n      tag_258\n      jump\t// in\n    tag_489:\n        /* \"#utility.yul\":19758:19766   */\n      dup2\n        /* \"#utility.yul\":19754:19798   */\n      add\n        /* \"#utility.yul\":19951:19953   */\n      0x20\n        /* \"#utility.yul\":19939:19949   */\n      dup6\n        /* \"#utility.yul\":19936:19954   */\n      lt\n        /* \"#utility.yul\":19933:19982   */\n      iszero\n      tag_490\n      jumpi\n        /* \"#utility.yul\":19972:19980   */\n      dup2\n        /* \"#utility.yul\":19957:19980   */\n      swap1\n      pop\n        /* \"#utility.yul\":19933:19982   */\n    tag_490:\n        /* \"#utility.yul\":19995:20075   */\n      tag_491\n        /* \"#utility.yul\":20051:20073   */\n      tag_492\n        /* \"#utility.yul\":20069:20072   */\n      dup6\n        /* \"#utility.yul\":20051:20073   */\n      tag_258\n      jump\t// in\n    tag_492:\n        /* \"#utility.yul\":20041:20049   */\n      dup4\n        /* \"#utility.yul\":20037:20074   */\n      add\n        /* \"#utility.yul\":20024:20035   */\n      dup3\n        /* \"#utility.yul\":19995:20075   */\n      tag_267\n      jump\t// in\n    tag_491:\n        /* \"#utility.yul\":19654:20085   */\n      pop\n      pop\n        /* \"#utility.yul\":19639:20085   */\n    tag_487:\n        /* \"#utility.yul\":19549:20092   */\n      pop\n      pop\n      pop\n      jump\t// out\n        /* \"#utility.yul\":20098:20215   */\n    tag_269:\n        /* \"#utility.yul\":20152:20160   */\n      0x00\n        /* \"#utility.yul\":20202:20207   */\n      dup3\n        /* \"#utility.yul\":20196:20200   */\n      dup3\n        /* \"#utility.yul\":20192:20208   */\n      shr\n        /* \"#utility.yul\":20171:20208   */\n      swap1\n      pop\n        /* \"#utility.yul\":20098:20215   */\n      swap3\n      swap2\n      pop\n      pop\n      jump\t// out\n        /* \"#utility.yul\":20221:20390   */\n    tag_270:\n        /* \"#utility.yul\":20265:20271   */\n      0x00\n        /* \"#utility.yul\":20298:20349   */\n      tag_495\n        /* \"#utility.yul\":20346:20347   */\n      0x00\n        /* \"#utility.yul\":20342:20348   */\n      not\n        /* \"#utility.yul\":20334:20339   */\n      dup5\n        /* \"#utility.yul\":20331:20332   */\n      0x08\n        /* \"#utility.yul\":20327:20340   */\n      mul\n        /* \"#utility.yul\":20298:20349   */\n      tag_269\n      jump\t// in\n    tag_495:\n        /* \"#utility.yul\":20294:20350   */\n      not\n        /* \"#utility.yul\":20379:20383   */\n      dup1\n        /* \"#utility.yul\":20373:20377   */\n      dup4\n        /* \"#utility.yul\":20369:20384   */\n      and\n        /* \"#utility.yul\":20359:20384   */\n      swap2\n      pop\n        /* \"#utility.yul\":20272:20390   */\n      pop\n        /* \"#utility.yul\":20221:20390   */\n      swap3\n      swap2\n      pop\n      pop\n      jump\t// out\n        /* \"#utility.yul\":20395:20690   */\n    tag_271:\n        /* \"#utility.yul\":20471:20475   */\n      0x00\n        /* \"#utility.yul\":20617:20646   */\n      tag_497\n        /* \"#utility.yul\":20642:20645   */\n      dup4\n        /* \"#utility.yul\":20636:20640   */\n      dup4\n        /* \"#utility.yul\":20617:20646   */\n      tag_270\n      jump\t// in\n    tag_497:\n        /* \"#utility.yul\":20609:20646   */\n      swap2\n      pop\n        /* \"#utility.yul\":20679:20682   */\n      dup3\n        /* \"#utility.yul\":20676:20677   */\n      0x02\n        /* \"#utility.yul\":20672:20683   */\n      mul\n        /* \"#utility.yul\":20666:20670   */\n      dup3\n        /* \"#utility.yul\":20663:20684   */\n      or\n        /* \"#utility.yul\":20655:20684   */\n      swap1\n      pop\n        /* \"#utility.yul\":20395:20690   */\n      swap3\n      swap2\n      pop\n      pop\n      jump\t// out\n        /* \"#utility.yul\":20695:22090   */\n    tag_109:\n        /* \"#utility.yul\":20812:20849   */\n      tag_499\n        /* \"#utility.yul\":20845:20848   */\n      dup3\n        /* \"#utility.yul\":20812:20849   */\n      tag_235\n      jump\t// in\n    tag_499:\n        /* \"#utility.yul\":20914:20932   */\n      0xffffffffffffffff\n        /* \"#utility.yul\":20906:20912   */\n      dup2\n        /* \"#utility.yul\":20903:20933   */\n      gt\n        /* \"#utility.yul\":20900:20956   */\n      iszero\n      tag_500\n      jumpi\n        /* \"#utility.yul\":20936:20954   */\n      tag_501\n      tag_225\n      jump\t// in\n    tag_501:\n        /* \"#utility.yul\":20900:20956   */\n    tag_500:\n        /* \"#utility.yul\":20980:21018   */\n      tag_502\n        /* \"#utility.yul\":21012:21016   */\n      dup3\n        /* \"#utility.yul\":21006:21017   */\n      sload\n        /* \"#utility.yul\":20980:21018   */\n      tag_97\n      jump\t// in\n    tag_502:\n        /* \"#utility.yul\":21065:21132   */\n      tag_503\n        /* \"#utility.yul\":21125:21131   */\n      dup3\n        /* \"#utility.yul\":21117:21123   */\n      dup3\n        /* \"#utility.yul\":21111:21115   */\n      dup6\n        /* \"#utility.yul\":21065:21132   */\n      tag_268\n      jump\t// in\n    tag_503:\n        /* \"#utility.yul\":21159:21160   */\n      0x00\n        /* \"#utility.yul\":21183:21187   */\n      0x20\n        /* \"#utility.yul\":21170:21187   */\n      swap1\n      pop\n        /* \"#utility.yul\":21215:21217   */\n      0x1f\n        /* \"#utility.yul\":21207:21213   */\n      dup4\n        /* \"#utility.yul\":21204:21218   */\n      gt\n        /* \"#utility.yul\":21232:21233   */\n      0x01\n        /* \"#utility.yul\":21227:21845   */\n      dup2\n      eq\n      tag_505\n      jumpi\n        /* \"#utility.yul\":21889:21890   */\n      0x00\n        /* \"#utility.yul\":21906:21912   */\n      dup5\n        /* \"#utility.yul\":21903:21980   */\n      iszero\n      tag_506\n      jumpi\n        /* \"#utility.yul\":21955:21964   */\n      dup3\n        /* \"#utility.yul\":21950:21953   */\n      dup8\n        /* \"#utility.yul\":21946:21965   */\n      add\n        /* \"#utility.yul\":21940:21966   */\n      mload\n        /* \"#utility.yul\":21931:21966   */\n      swap1\n      pop\n        /* \"#utility.yul\":21903:21980   */\n    tag_506:\n        /* \"#utility.yul\":22006:22073   */\n      tag_507\n        /* \"#utility.yul\":22066:22072   */\n      dup6\n        /* \"#utility.yul\":22059:22064   */\n      dup3\n        /* \"#utility.yul\":22006:22073   */\n      tag_271\n      jump\t// in\n    tag_507:\n        /* \"#utility.yul\":22000:22004   */\n      dup7\n        /* \"#utility.yul\":21993:22074   */\n      sstore\n        /* \"#utility.yul\":21862:22084   */\n      pop\n        /* \"#utility.yul\":21197:22084   */\n      jump(tag_504)\n        /* \"#utility.yul\":21227:21845   */\n    tag_505:\n        /* \"#utility.yul\":21279:21283   */\n      0x1f\n        /* \"#utility.yul\":21275:21284   */\n      not\n        /* \"#utility.yul\":21267:21273   */\n      dup5\n        /* \"#utility.yul\":21263:21285   */\n      and\n        /* \"#utility.yul\":21313:21350   */\n      tag_508\n        /* \"#utility.yul\":21345:21349   */\n      dup7\n        /* \"#utility.yul\":21313:21350   */\n      tag_257\n      jump\t// in\n    tag_508:\n        /* \"#utility.yul\":21372:21373   */\n      0x00\n        /* \"#utility.yul\":21386:21594   */\n    tag_509:\n        /* \"#utility.yul\":21400:21407   */\n      dup3\n        /* \"#utility.yul\":21397:21398   */\n      dup2\n        /* \"#utility.yul\":21394:21408   */\n      lt\n        /* \"#utility.yul\":21386:21594   */\n      iszero\n      tag_511\n      jumpi\n        /* \"#utility.yul\":21479:21488   */\n      dup5\n        /* \"#utility.yul\":21474:21477   */\n      dup10\n        /* \"#utility.yul\":21470:21489   */\n      add\n        /* \"#utility.yul\":21464:21490   */\n      mload\n        /* \"#utility.yul\":21456:21462   */\n      dup3\n        /* \"#utility.yul\":21449:21491   */\n      sstore\n        /* \"#utility.yul\":21530:21531   */\n      0x01\n        /* \"#utility.yul\":21522:21528   */\n      dup3\n        /* \"#utility.yul\":21518:21532   */\n      add\n        /* \"#utility.yul\":21508:21532   */\n      swap2\n      pop\n        /* \"#utility.yul\":21577:21579   */\n      0x20\n        /* \"#utility.yul\":21566:21575   */\n      dup6\n        /* \"#utility.yul\":21562:21580   */\n      add\n        /* \"#utility.yul\":21549:21580   */\n      swap5\n      pop\n        /* \"#utility.yul\":21423:21427   */\n      0x20\n        /* \"#utility.yul\":21420:21421   */\n      dup2\n        /* \"#utility.yul\":21416:21428   */\n      add\n        /* \"#utility.yul\":21411:21428   */\n      swap1\n      pop\n        /* \"#utility.yul\":21386:21594   */\n      jump(tag_509)\n    tag_511:\n        /* \"#utility.yul\":21622:21628   */\n      dup7\n        /* \"#utility.yul\":21613:21620   */\n      dup4\n        /* \"#utility.yul\":21610:21629   */\n      lt\n        /* \"#utility.yul\":21607:21786   */\n      iszero\n      tag_512\n      jumpi\n        /* \"#utility.yul\":21680:21689   */\n      dup5\n        /* \"#utility.yul\":21675:21678   */\n      dup10\n        /* \"#utility.yul\":21671:21690   */\n      add\n        /* \"#utility.yul\":21665:21691   */\n      mload\n        /* \"#utility.yul\":21723:21771   */\n      tag_513\n        /* \"#utility.yul\":21765:21769   */\n      0x1f\n        /* \"#utility.yul\":21757:21763   */\n      dup10\n        /* \"#utility.yul\":21753:21770   */\n      and\n        /* \"#utility.yul\":21742:21751   */\n      dup3\n        /* \"#utility.yul\":21723:21771   */\n      tag_270\n      jump\t// in\n    tag_513:\n        /* \"#utility.yul\":21715:21721   */\n      dup4\n        /* \"#utility.yul\":21708:21772   */\n      sstore\n        /* \"#utility.yul\":21630:21786   */\n      pop\n        /* \"#utility.yul\":21607:21786   */\n    tag_512:\n        /* \"#utility.yul\":21832:21833   */\n      0x01\n        /* \"#utility.yul\":21828:21829   */\n      0x02\n        /* \"#utility.yul\":21820:21826   */\n      dup9\n        /* \"#utility.yul\":21816:21830   */\n      mul\n        /* \"#utility.yul\":21812:21834   */\n      add\n        /* \"#utility.yul\":21806:21810   */\n      dup9\n        /* \"#utility.yul\":21799:21835   */\n      sstore\n        /* \"#utility.yul\":21234:21845   */\n      pop\n      pop\n      pop\n        /* \"#utility.yul\":21197:22084   */\n    tag_504:\n      pop\n        /* \"#utility.yul\":20787:22090   */\n      pop\n      pop\n      pop\n        /* \"#utility.yul\":20695:22090   */\n      pop\n      pop\n      jump\t// out\n        /* \"#utility.yul\":22096:22274   */\n    tag_272:\n        /* \"#utility.yul\":22236:22266   */\n      0x566f74696e67206973206e6f742063757272656e746c79206f70656e00000000\n        /* \"#utility.yul\":22232:22233   */\n      0x00\n        /* \"#utility.yul\":22224:22230   */\n      dup3\n        /* \"#utility.yul\":22220:22234   */\n      add\n        /* \"#utility.yul\":22213:22267   */\n      mstore\n        /* \"#utility.yul\":22096:22274   */\n      pop\n      jump\t// out\n        /* \"#utility.yul\":22280:22646   */\n    tag_273:\n        /* \"#utility.yul\":22422:22425   */\n      0x00\n        /* \"#utility.yul\":22443:22510   */\n      tag_516\n        /* \"#utility.yul\":22507:22509   */\n      0x1c\n        /* \"#utility.yul\":22502:22505   */\n      dup4\n        /* \"#utility.yul\":22443:22510   */\n      tag_236\n      jump\t// in\n    tag_516:\n        /* \"#utility.yul\":22436:22510   */\n      swap2\n      pop\n        /* \"#utility.yul\":22519:22612   */\n      tag_517\n        /* \"#utility.yul\":22608:22611   */\n      dup3\n        /* \"#utility.yul\":22519:22612   */\n      tag_272\n      jump\t// in\n    tag_517:\n        /* \"#utility.yul\":22637:22639   */\n      0x20\n        /* \"#utility.yul\":22632:22635   */\n      dup3\n        /* \"#utility.yul\":22628:22640   */\n      add\n        /* \"#utility.yul\":22621:22640   */\n      swap1\n      pop\n        /* \"#utility.yul\":22280:22646   */\n      swap2\n      swap1\n      pop\n      jump\t// out\n        /* \"#utility.yul\":22652:23071   */\n    tag_117:\n        /* \"#utility.yul\":22818:22822   */\n      0x00\n        /* \"#utility.yul\":22856:22858   */\n      0x20\n        /* \"#utility.yul\":22845:22854   */\n      dup3\n        /* \"#utility.yul\":22841:22859   */\n      add\n        /* \"#utility.yul\":22833:22859   */\n      swap1\n      pop\n        /* \"#utility.yul\":22905:22914   */\n      dup2\n        /* \"#utility.yul\":22899:22903   */\n      dup2\n        /* \"#utility.yul\":22895:22915   */\n      sub\n        /* \"#utility.yul\":22891:22892   */\n      0x00\n        /* \"#utility.yul\":22880:22889   */\n      dup4\n        /* \"#utility.yul\":22876:22893   */\n      add\n        /* \"#utility.yul\":22869:22916   */\n      mstore\n        /* \"#utility.yul\":22933:23064   */\n      tag_519\n        /* \"#utility.yul\":23059:23063   */\n      dup2\n        /* \"#utility.yul\":22933:23064   */\n      tag_273\n      jump\t// in\n    tag_519:\n        /* \"#utility.yul\":22925:23064   */\n      swap1\n      pop\n        /* \"#utility.yul\":22652:23071   */\n      swap2\n      swap1\n      pop\n      jump\t// out\n        /* \"#utility.yul\":23077:23247   */\n    tag_274:\n        /* \"#utility.yul\":23217:23239   */\n      0x496e76616c69642063616e646964617465204944000000000000000000000000\n        /* \"#utility.yul\":23213:23214   */\n      0x00\n        /* \"#utility.yul\":23205:23211   */\n      dup3\n        /* \"#utility.yul\":23201:23215   */\n      add\n        /* \"#utility.yul\":23194:23240   */\n      mstore\n        /* \"#utility.yul\":23077:23247   */\n      pop\n      jump\t// out\n        /* \"#utility.yul\":23253:23619   */\n    tag_275:\n        /* \"#utility.yul\":23395:23398   */\n      0x00\n        /* \"#utility.yul\":23416:23483   */\n      tag_522\n        /* \"#utility.yul\":23480:23482   */\n      0x14\n        /* \"#utility.yul\":23475:23478   */\n      dup4\n        /* \"#utility.yul\":23416:23483   */\n      tag_236\n      jump\t// in\n    tag_522:\n        /* \"#utility.yul\":23409:23483   */\n      swap2\n      pop\n        /* \"#utility.yul\":23492:23585   */\n      tag_523\n        /* \"#utility.yul\":23581:23584   */\n      dup3\n        /* \"#utility.yul\":23492:23585   */\n      tag_274\n      jump\t// in\n    tag_523:\n        /* \"#utility.yul\":23610:23612   */\n      0x20\n        /* \"#utility.yul\":23605:23608   */\n      dup3\n        /* \"#utility.yul\":23601:23613   */\n      add\n        /* \"#utility.yul\":23594:23613   */\n      swap1\n      pop\n        /* \"#utility.yul\":23253:23619   */\n      swap2\n      swap1\n      pop\n      jump\t// out\n        /* \"#utility.yul\":23625:24044   */\n    tag_122:\n        /* \"#utility.yul\":23791:23795   */\n      0x00\n        /* \"#utility.yul\":23829:23831   */\n      0x20\n        /* \"#utility.yul\":23818:23827   */\n      dup3\n        /* \"#utility.yul\":23814:23832   */\n      add\n        /* \"#utility.yul\":23806:23832   */\n      swap1\n      pop\n        /* \"#utility.yul\":23878:23887   */\n      dup2\n        /* \"#utility.yul\":23872:23876   */\n      dup2\n        /* \"#utility.yul\":23868:23888   */\n      sub\n        /* \"#utility.yul\":23864:23865   */\n      0x00\n        /* \"#utility.yul\":23853:23862   */\n      dup4\n        /* \"#utility.yul\":23849:23866   */\n      add\n        /* \"#utility.yul\":23842:23889   */\n      mstore\n        /* \"#utility.yul\":23906:24037   */\n      tag_525\n        /* \"#utility.yul\":24032:24036   */\n      dup2\n        /* \"#utility.yul\":23906:24037   */\n      tag_275\n      jump\t// in\n    tag_525:\n        /* \"#utility.yul\":23898:24037   */\n      swap1\n      pop\n        /* \"#utility.yul\":23625:24044   */\n      swap2\n      swap1\n      pop\n      jump\t// out\n        /* \"#utility.yul\":24074:24948   */\n    tag_276:\n        /* \"#utility.yul\":24177:24180   */\n      0x00\n        /* \"#utility.yul\":24214:24219   */\n      dup2\n        /* \"#utility.yul\":24208:24220   */\n      sload\n        /* \"#utility.yul\":24243:24279   */\n      tag_527\n        /* \"#utility.yul\":24269:24278   */\n      dup2\n        /* \"#utility.yul\":24243:24279   */\n      tag_97\n      jump\t// in\n    tag_527:\n        /* \"#utility.yul\":24295:24384   */\n      tag_528\n        /* \"#utility.yul\":24377:24383   */\n      dup2\n        /* \"#utility.yul\":24372:24375   */\n      dup7\n        /* \"#utility.yul\":24295:24384   */\n      tag_247\n      jump\t// in\n    tag_528:\n        /* \"#utility.yul\":24288:24384   */\n      swap5\n      pop\n        /* \"#utility.yul\":24415:24416   */\n      0x01\n        /* \"#utility.yul\":24404:24413   */\n      dup3\n        /* \"#utility.yul\":24400:24417   */\n      and\n        /* \"#utility.yul\":24431:24432   */\n      0x00\n        /* \"#utility.yul\":24426:24592   */\n      dup2\n      eq\n      tag_530\n      jumpi\n        /* \"#utility.yul\":24606:24607   */\n      0x01\n        /* \"#utility.yul\":24601:24942   */\n      dup2\n      eq\n      tag_531\n      jumpi\n        /* \"#utility.yul\":24393:24942   */\n      jump(tag_529)\n        /* \"#utility.yul\":24426:24592   */\n    tag_530:\n        /* \"#utility.yul\":24510:24514   */\n      0xff\n        /* \"#utility.yul\":24506:24515   */\n      not\n        /* \"#utility.yul\":24495:24504   */\n      dup4\n        /* \"#utility.yul\":24491:24516   */\n      and\n        /* \"#utility.yul\":24486:24489   */\n      dup7\n        /* \"#utility.yul\":24479:24517   */\n      mstore\n        /* \"#utility.yul\":24572:24578   */\n      dup2\n        /* \"#utility.yul\":24565:24579   */\n      iszero\n        /* \"#utility.yul\":24558:24580   */\n      iszero\n        /* \"#utility.yul\":24550:24556   */\n      dup3\n        /* \"#utility.yul\":24546:24581   */\n      mul\n        /* \"#utility.yul\":24541:24544   */\n      dup7\n        /* \"#utility.yul\":24537:24582   */\n      add\n        /* \"#utility.yul\":24530:24582   */\n      swap4\n      pop\n        /* \"#utility.yul\":24426:24592   */\n      jump(tag_529)\n        /* \"#utility.yul\":24601:24942   */\n    tag_531:\n        /* \"#utility.yul\":24668:24706   */\n      tag_532\n        /* \"#utility.yul\":24700:24705   */\n      dup6\n        /* \"#utility.yul\":24668:24706   */\n      tag_257\n      jump\t// in\n    tag_532:\n        /* \"#utility.yul\":24728:24729   */\n      0x00\n        /* \"#utility.yul\":24742:24896   */\n    tag_533:\n        /* \"#utility.yul\":24756:24762   */\n      dup4\n        /* \"#utility.yul\":24753:24754   */\n      dup2\n        /* \"#utility.yul\":24750:24763   */\n      lt\n        /* \"#utility.yul\":24742:24896   */\n      iszero\n      tag_535\n      jumpi\n        /* \"#utility.yul\":24830:24837   */\n      dup2\n        /* \"#utility.yul\":24824:24838   */\n      sload\n        /* \"#utility.yul\":24820:24821   */\n      dup2\n        /* \"#utility.yul\":24815:24818   */\n      dup10\n        /* \"#utility.yul\":24811:24822   */\n      add\n        /* \"#utility.yul\":24804:24839   */\n      mstore\n        /* \"#utility.yul\":24880:24881   */\n      0x01\n        /* \"#utility.yul\":24871:24878   */\n      dup3\n        /* \"#utility.yul\":24867:24882   */\n      add\n        /* \"#utility.yul\":24856:24882   */\n      swap2\n      pop\n        /* \"#utility.yul\":24778:24782   */\n      0x20\n        /* \"#utility.yul\":24775:24776   */\n      dup2\n        /* \"#utility.yul\":24771:24783   */\n      add\n        /* \"#utility.yul\":24766:24783   */\n      swap1\n      pop\n        /* \"#utility.yul\":24742:24896   */\n      jump(tag_533)\n    tag_535:\n        /* \"#utility.yul\":24925:24931   */\n      dup4\n        /* \"#utility.yul\":24920:24923   */\n      dup9\n        /* \"#utility.yul\":24916:24932   */\n      add\n        /* \"#utility.yul\":24909:24932   */\n      swap6\n      pop\n        /* \"#utility.yul\":24608:24942   */\n      pop\n      pop\n        /* \"#utility.yul\":24393:24942   */\n    tag_529:\n      pop\n        /* \"#utility.yul\":24181:24948   */\n      pop\n      pop\n        /* \"#utility.yul\":24074:24948   */\n      swap3\n      swap2\n      pop\n      pop\n      jump\t// out\n        /* \"#utility.yul\":24954:25223   */\n    tag_125:\n        /* \"#utility.yul\":25083:25086   */\n      0x00\n        /* \"#utility.yul\":25105:25197   */\n      tag_537\n        /* \"#utility.yul\":25193:25196   */\n      dup3\n        /* \"#utility.yul\":25184:25190   */\n      dup5\n        /* \"#utility.yul\":25105:25197   */\n      tag_276\n      jump\t// in\n    tag_537:\n        /* \"#utility.yul\":25098:25197   */\n      swap2\n      pop\n        /* \"#utility.yul\":25214:25217   */\n      dup2\n        /* \"#utility.yul\":25207:25217   */\n      swap1\n      pop\n        /* \"#utility.yul\":24954:25223   */\n      swap3\n      swap2\n      pop\n      pop\n      jump\t// out\n        /* \"#utility.yul\":25229:25451   */\n    tag_277:\n        /* \"#utility.yul\":25369:25403   */\n      0x4e6174696f6e616c204944206e6f74206d617463682072656769737465726564\n        /* \"#utility.yul\":25365:25366   */\n      0x00\n        /* \"#utility.yul\":25357:25363   */\n      dup3\n        /* \"#utility.yul\":25353:25367   */\n      add\n        /* \"#utility.yul\":25346:25404   */\n      mstore\n        /* \"#utility.yul\":25438:25443   */\n      0x2049440000000000000000000000000000000000000000000000000000000000\n        /* \"#utility.yul\":25433:25435   */\n      0x20\n        /* \"#utility.yul\":25425:25431   */\n      dup3\n        /* \"#utility.yul\":25421:25436   */\n      add\n        /* \"#utility.yul\":25414:25444   */\n      mstore\n        /* \"#utility.yul\":25229:25451   */\n      pop\n      jump\t// out\n        /* \"#utility.yul\":25457:25823   */\n    tag_278:\n        /* \"#utility.yul\":25599:25602   */\n      0x00\n        /* \"#utility.yul\":25620:25687   */\n      tag_540\n        /* \"#utility.yul\":25684:25686   */\n      0x23\n        /* \"#utility.yul\":25679:25682   */\n      dup4\n        /* \"#utility.yul\":25620:25687   */\n      tag_236\n      jump\t// in\n    tag_540:\n        /* \"#utility.yul\":25613:25687   */\n      swap2\n      pop\n        /* \"#utility.yul\":25696:25789   */\n      tag_541\n        /* \"#utility.yul\":25785:25788   */\n      dup3\n        /* \"#utility.yul\":25696:25789   */\n      tag_277\n      jump\t// in\n    tag_541:\n        /* \"#utility.yul\":25814:25816   */\n      0x40\n        /* \"#utility.yul\":25809:25812   */\n      dup3\n        /* \"#utility.yul\":25805:25817   */\n      add\n        /* \"#utility.yul\":25798:25817   */\n      swap1\n      pop\n        /* \"#utility.yul\":25457:25823   */\n      swap2\n      swap1\n      pop\n      jump\t// out\n        /* \"#utility.yul\":25829:26248   */\n    tag_128:\n        /* \"#utility.yul\":25995:25999   */\n      0x00\n        /* \"#utility.yul\":26033:26035   */\n      0x20\n        /* \"#utility.yul\":26022:26031   */\n      dup3\n        /* \"#utility.yul\":26018:26036   */\n      add\n        /* \"#utility.yul\":26010:26036   */\n      swap1\n      pop\n        /* \"#utility.yul\":26082:26091   */\n      dup2\n        /* \"#utility.yul\":26076:26080   */\n      dup2\n        /* \"#utility.yul\":26072:26092   */\n      sub\n        /* \"#utility.yul\":26068:26069   */\n      0x00\n        /* \"#utility.yul\":26057:26066   */\n      dup4\n        /* \"#utility.yul\":26053:26070   */\n      add\n        /* \"#utility.yul\":26046:26093   */\n      mstore\n        /* \"#utility.yul\":26110:26241   */\n      tag_543\n        /* \"#utility.yul\":26236:26240   */\n      dup2\n        /* \"#utility.yul\":26110:26241   */\n      tag_278\n      jump\t// in\n    tag_543:\n        /* \"#utility.yul\":26102:26241   */\n      swap1\n      pop\n        /* \"#utility.yul\":25829:26248   */\n      swap2\n      swap1\n      pop\n      jump\t// out\n        /* \"#utility.yul\":26254:26435   */\n    tag_279:\n        /* \"#utility.yul\":26394:26427   */\n      0x536f7a2c20796f752063616e206f6e6c7920766f7465206f6e652074696d6500\n        /* \"#utility.yul\":26390:26391   */\n      0x00\n        /* \"#utility.yul\":26382:26388   */\n      dup3\n        /* \"#utility.yul\":26378:26392   */\n      add\n        /* \"#utility.yul\":26371:26428   */\n      mstore\n        /* \"#utility.yul\":26254:26435   */\n      pop\n      jump\t// out\n        /* \"#utility.yul\":26441:26807   */\n    tag_280:\n        /* \"#utility.yul\":26583:26586   */\n      0x00\n        /* \"#utility.yul\":26604:26671   */\n      tag_546\n        /* \"#utility.yul\":26668:26670   */\n      0x1f\n        /* \"#utility.yul\":26663:26666   */\n      dup4\n        /* \"#utility.yul\":26604:26671   */\n      tag_236\n      jump\t// in\n    tag_546:\n        /* \"#utility.yul\":26597:26671   */\n      swap2\n      pop\n        /* \"#utility.yul\":26680:26773   */\n      tag_547\n        /* \"#utility.yul\":26769:26772   */\n      dup3\n        /* \"#utility.yul\":26680:26773   */\n      tag_279\n      jump\t// in\n    tag_547:\n        /* \"#utility.yul\":26798:26800   */\n      0x20\n        /* \"#utility.yul\":26793:26796   */\n      dup3\n        /* \"#utility.yul\":26789:26801   */\n      add\n        /* \"#utility.yul\":26782:26801   */\n      swap1\n      pop\n        /* \"#utility.yul\":26441:26807   */\n      swap2\n      swap1\n      pop\n      jump\t// out\n        /* \"#utility.yul\":26813:27232   */\n    tag_131:\n        /* \"#utility.yul\":26979:26983   */\n      0x00\n        /* \"#utility.yul\":27017:27019   */\n      0x20\n        /* \"#utility.yul\":27006:27015   */\n      dup3\n        /* \"#utility.yul\":27002:27020   */\n      add\n        /* \"#utility.yul\":26994:27020   */\n      swap1\n      pop\n        /* \"#utility.yul\":27066:27075   */\n      dup2\n        /* \"#utility.yul\":27060:27064   */\n      dup2\n        /* \"#utility.yul\":27056:27076   */\n      sub\n        /* \"#utility.yul\":27052:27053   */\n      0x00\n        /* \"#utility.yul\":27041:27050   */\n      dup4\n        /* \"#utility.yul\":27037:27054   */\n      add\n        /* \"#utility.yul\":27030:27077   */\n      mstore\n        /* \"#utility.yul\":27094:27225   */\n      tag_549\n        /* \"#utility.yul\":27220:27224   */\n      dup2\n        /* \"#utility.yul\":27094:27225   */\n      tag_280\n      jump\t// in\n    tag_549:\n        /* \"#utility.yul\":27086:27225   */\n      swap1\n      pop\n        /* \"#utility.yul\":26813:27232   */\n      swap2\n      swap1\n      pop\n      jump\t// out\n        /* \"#utility.yul\":27238:27419   */\n    tag_281:\n        /* \"#utility.yul\":27378:27411   */\n      0x6c696d6974206d7573742062652067726561746572207468616e207a65726f00\n        /* \"#utility.yul\":27374:27375   */\n      0x00\n        /* \"#utility.yul\":27366:27372   */\n      dup3\n        /* \"#utility.yul\":27362:27376   */\n      add\n        /* \"#utility.yul\":27355:27412   */\n      mstore\n        /* \"#utility.yul\":27238:27419   */\n      pop\n      jump\t// out\n        /* \"#utility.yul\":27425:27791   */\n    tag_282:\n        /* \"#utility.yul\":27567:27570   */\n      0x00\n        /* \"#utility.yul\":27588:27655   */\n      tag_552\n        /* \"#utility.yul\":27652:27654   */\n      0x1f\n        /* \"#utility.yul\":27647:27650   */\n      dup4\n        /* \"#utility.yul\":27588:27655   */\n      tag_236\n      jump\t// in\n    tag_552:\n        /* \"#utility.yul\":27581:27655   */\n      swap2\n      pop\n        /* \"#utility.yul\":27664:27757   */\n      tag_553\n        /* \"#utility.yul\":27753:27756   */\n      dup3\n        /* \"#utility.yul\":27664:27757   */\n      tag_281\n      jump\t// in\n    tag_553:\n        /* \"#utility.yul\":27782:27784   */\n      0x20\n        /* \"#utility.yul\":27777:27780   */\n      dup3\n        /* \"#utility.yul\":27773:27785   */\n      add\n        /* \"#utility.yul\":27766:27785   */\n      swap1\n      pop\n        /* \"#utility.yul\":27425:27791   */\n      swap2\n      swap1\n      pop\n      jump\t// out\n        /* \"#utility.yul\":27797:28216   */\n    tag_154:\n        /* \"#utility.yul\":27963:27967   */\n      0x00\n        /* \"#utility.yul\":28001:28003   */\n      0x20\n        /* \"#utility.yul\":27990:27999   */\n      dup3\n        /* \"#utility.yul\":27986:28004   */\n      add\n        /* \"#utility.yul\":27978:28004   */\n      swap1\n      pop\n        /* \"#utility.yul\":28050:28059   */\n      dup2\n        /* \"#utility.yul\":28044:28048   */\n      dup2\n        /* \"#utility.yul\":28040:28060   */\n      sub\n        /* \"#utility.yul\":28036:28037   */\n      0x00\n        /* \"#utility.yul\":28025:28034   */\n      dup4\n        /* \"#utility.yul\":28021:28038   */\n      add\n        /* \"#utility.yul\":28014:28061   */\n      mstore\n        /* \"#utility.yul\":28078:28209   */\n      tag_555\n        /* \"#utility.yul\":28204:28208   */\n      dup2\n        /* \"#utility.yul\":28078:28209   */\n      tag_282\n      jump\t// in\n    tag_555:\n        /* \"#utility.yul\":28070:28209   */\n      swap1\n      pop\n        /* \"#utility.yul\":27797:28216   */\n      swap2\n      swap1\n      pop\n      jump\t// out\n        /* \"#utility.yul\":28222:28392   */\n    tag_283:\n        /* \"#utility.yul\":28362:28384   */\n      0x566f74696e67206973207374696c6c206f70656e000000000000000000000000\n        /* \"#utility.yul\":28358:28359   */\n      0x00\n        /* \"#utility.yul\":28350:28356   */\n      dup3\n        /* \"#utility.yul\":28346:28360   */\n      add\n        /* \"#utility.yul\":28339:28385   */\n      mstore\n        /* \"#utility.yul\":28222:28392   */\n      pop\n      jump\t// out\n        /* \"#utility.yul\":28398:28764   */\n    tag_284:\n        /* \"#utility.yul\":28540:28543   */\n      0x00\n        /* \"#utility.yul\":28561:28628   */\n      tag_558\n        /* \"#utility.yul\":28625:28627   */\n      0x14\n        /* \"#utility.yul\":28620:28623   */\n      dup4\n        /* \"#utility.yul\":28561:28628   */\n      tag_236\n      jump\t// in\n    tag_558:\n        /* \"#utility.yul\":28554:28628   */\n      swap2\n      pop\n        /* \"#utility.yul\":28637:28730   */\n      tag_559\n        /* \"#utility.yul\":28726:28729   */\n      dup3\n        /* \"#utility.yul\":28637:28730   */\n      tag_283\n      jump\t// in\n    tag_559:\n        /* \"#utility.yul\":28755:28757   */\n      0x20\n        /* \"#utility.yul\":28750:28753   */\n      dup3\n        /* \"#utility.yul\":28746:28758   */\n      add\n        /* \"#utility.yul\":28739:28758   */\n      swap1\n      pop\n        /* \"#utility.yul\":28398:28764   */\n      swap2\n      swap1\n      pop\n      jump\t// out\n        /* \"#utility.yul\":28770:29189   */\n    tag_158:\n        /* \"#utility.yul\":28936:28940   */\n      0x00\n        /* \"#utility.yul\":28974:28976   */\n      0x20\n        /* \"#utility.yul\":28963:28972   */\n      dup3\n        /* \"#utility.yul\":28959:28977   */\n      add\n        /* \"#utility.yul\":28951:28977   */\n      swap1\n      pop\n        /* \"#utility.yul\":29023:29032   */\n      dup2\n        /* \"#utility.yul\":29017:29021   */\n      dup2\n        /* \"#utility.yul\":29013:29033   */\n      sub\n        /* \"#utility.yul\":29009:29010   */\n      0x00\n        /* \"#utility.yul\":28998:29007   */\n      dup4\n        /* \"#utility.yul\":28994:29011   */\n      add\n        /* \"#utility.yul\":28987:29034   */\n      mstore\n        /* \"#utility.yul\":29051:29182   */\n      tag_561\n        /* \"#utility.yul\":29177:29181   */\n      dup2\n        /* \"#utility.yul\":29051:29182   */\n      tag_284\n      jump\t// in\n    tag_561:\n        /* \"#utility.yul\":29043:29182   */\n      swap1\n      pop\n        /* \"#utility.yul\":28770:29189   */\n      swap2\n      swap1\n      pop\n      jump\t// out\n        /* \"#utility.yul\":29195:29439   */\n    tag_285:\n        /* \"#utility.yul\":29335:29369   */\n      0x596f752063616e6e6f7420766f746520666f7220612063616e6469646174652c\n        /* \"#utility.yul\":29331:29332   */\n      0x00\n        /* \"#utility.yul\":29323:29329   */\n      dup3\n        /* \"#utility.yul\":29319:29333   */\n      add\n        /* \"#utility.yul\":29312:29370   */\n      mstore\n        /* \"#utility.yul\":29404:29431   */\n      0x206966206e6f206f6e6520697320612063616e64696461746500000000000000\n        /* \"#utility.yul\":29399:29401   */\n      0x20\n        /* \"#utility.yul\":29391:29397   */\n      dup3\n        /* \"#utility.yul\":29387:29402   */\n      add\n        /* \"#utility.yul\":29380:29432   */\n      mstore\n        /* \"#utility.yul\":29195:29439   */\n      pop\n      jump\t// out\n        /* \"#utility.yul\":29445:29811   */\n    tag_286:\n        /* \"#utility.yul\":29587:29590   */\n      0x00\n        /* \"#utility.yul\":29608:29675   */\n      tag_564\n        /* \"#utility.yul\":29672:29674   */\n      0x39\n        /* \"#utility.yul\":29667:29670   */\n      dup4\n        /* \"#utility.yul\":29608:29675   */\n      tag_236\n      jump\t// in\n    tag_564:\n        /* \"#utility.yul\":29601:29675   */\n      swap2\n      pop\n        /* \"#utility.yul\":29684:29777   */\n      tag_565\n        /* \"#utility.yul\":29773:29776   */\n      dup3\n        /* \"#utility.yul\":29684:29777   */\n      tag_285\n      jump\t// in\n    tag_565:\n        /* \"#utility.yul\":29802:29804   */\n      0x40\n        /* \"#utility.yul\":29797:29800   */\n      dup3\n        /* \"#utility.yul\":29793:29805   */\n      add\n        /* \"#utility.yul\":29786:29805   */\n      swap1\n      pop\n        /* \"#utility.yul\":29445:29811   */\n      swap2\n      swap1\n      pop\n      jump\t// out\n        /* \"#utility.yul\":29817:30236   */\n    tag_162:\n        /* \"#utility.yul\":29983:29987   */\n      0x00\n        /* \"#utility.yul\":30021:30023   */\n      0x20\n        /* \"#utility.yul\":30010:30019   */\n      dup3\n        /* \"#utility.yul\":30006:30024   */\n      add\n        /* \"#utility.yul\":29998:30024   */\n      swap1\n      pop\n        /* \"#utility.yul\":30070:30079   */\n      dup2\n        /* \"#utility.yul\":30064:30068   */\n      dup2\n        /* \"#utility.yul\":30060:30080   */\n      sub\n        /* \"#utility.yul\":30056:30057   */\n      0x00\n        /* \"#utility.yul\":30045:30054   */\n      dup4\n        /* \"#utility.yul\":30041:30058   */\n      add\n        /* \"#utility.yul\":30034:30081   */\n      mstore\n        /* \"#utility.yul\":30098:30229   */\n      tag_567\n        /* \"#utility.yul\":30224:30228   */\n      dup2\n        /* \"#utility.yul\":30098:30229   */\n      tag_286\n      jump\t// in\n    tag_567:\n        /* \"#utility.yul\":30090:30229   */\n      swap1\n      pop\n        /* \"#utility.yul\":29817:30236   */\n      swap2\n      swap1\n      pop\n      jump\t// out\n        /* \"#utility.yul\":30242:30416   */\n    tag_287:\n        /* \"#utility.yul\":30382:30408   */\n      0x566f74696e6720697320616c726561647920636c6f7365640000000000000000\n        /* \"#utility.yul\":30378:30379   */\n      0x00\n        /* \"#utility.yul\":30370:30376   */\n      dup3\n        /* \"#utility.yul\":30366:30380   */\n      add\n        /* \"#utility.yul\":30359:30409   */\n      mstore\n        /* \"#utility.yul\":30242:30416   */\n      pop\n      jump\t// out\n        /* \"#utility.yul\":30422:30788   */\n    tag_288:\n        /* \"#utility.yul\":30564:30567   */\n      0x00\n        /* \"#utility.yul\":30585:30652   */\n      tag_570\n        /* \"#utility.yul\":30649:30651   */\n      0x18\n        /* \"#utility.yul\":30644:30647   */\n      dup4\n        /* \"#utility.yul\":30585:30652   */\n      tag_236\n      jump\t// in\n    tag_570:\n        /* \"#utility.yul\":30578:30652   */\n      swap2\n      pop\n        /* \"#utility.yul\":30661:30754   */\n      tag_571\n        /* \"#utility.yul\":30750:30753   */\n      dup3\n        /* \"#utility.yul\":30661:30754   */\n      tag_287\n      jump\t// in\n    tag_571:\n        /* \"#utility.yul\":30779:30781   */\n      0x20\n        /* \"#utility.yul\":30774:30777   */\n      dup3\n        /* \"#utility.yul\":30770:30782   */\n      add\n        /* \"#utility.yul\":30763:30782   */\n      swap1\n      pop\n        /* \"#utility.yul\":30422:30788   */\n      swap2\n      swap1\n      pop\n      jump\t// out\n        /* \"#utility.yul\":30794:31213   */\n    tag_184:\n        /* \"#utility.yul\":30960:30964   */\n      0x00\n        /* \"#utility.yul\":30998:31000   */\n      0x20\n        /* \"#utility.yul\":30987:30996   */\n      dup3\n        /* \"#utility.yul\":30983:31001   */\n      add\n        /* \"#utility.yul\":30975:31001   */\n      swap1\n      pop\n        /* \"#utility.yul\":31047:31056   */\n      dup2\n        /* \"#utility.yul\":31041:31045   */\n      dup2\n        /* \"#utility.yul\":31037:31057   */\n      sub\n        /* \"#utility.yul\":31033:31034   */\n      0x00\n        /* \"#utility.yul\":31022:31031   */\n      dup4\n        /* \"#utility.yul\":31018:31035   */\n      add\n        /* \"#utility.yul\":31011:31058   */\n      mstore\n        /* \"#utility.yul\":31075:31206   */\n      tag_573\n        /* \"#utility.yul\":31201:31205   */\n      dup2\n        /* \"#utility.yul\":31075:31206   */\n      tag_288\n      jump\t// in\n    tag_573:\n        /* \"#utility.yul\":31067:31206   */\n      swap1\n      pop\n        /* \"#utility.yul\":30794:31213   */\n      swap2\n      swap1\n      pop\n      jump\t// out\n        /* \"#utility.yul\":31219:31458   */\n    tag_289:\n        /* \"#utility.yul\":31359:31393   */\n      0x526567697374726174696f6e206f6620766f74657220666f7220746869732070\n        /* \"#utility.yul\":31355:31356   */\n      0x00\n        /* \"#utility.yul\":31347:31353   */\n      dup3\n        /* \"#utility.yul\":31343:31357   */\n      add\n        /* \"#utility.yul\":31336:31394   */\n      mstore\n        /* \"#utility.yul\":31428:31450   */\n      0x6c61636520686173207265616368206c696d6974000000000000000000000000\n        /* \"#utility.yul\":31423:31425   */\n      0x20\n        /* \"#utility.yul\":31415:31421   */\n      dup3\n        /* \"#utility.yul\":31411:31426   */\n      add\n        /* \"#utility.yul\":31404:31451   */\n      mstore\n        /* \"#utility.yul\":31219:31458   */\n      pop\n      jump\t// out\n        /* \"#utility.yul\":31464:31830   */\n    tag_290:\n        /* \"#utility.yul\":31606:31609   */\n      0x00\n        /* \"#utility.yul\":31627:31694   */\n      tag_576\n        /* \"#utility.yul\":31691:31693   */\n      0x34\n        /* \"#utility.yul\":31686:31689   */\n      dup4\n        /* \"#utility.yul\":31627:31694   */\n      tag_236\n      jump\t// in\n    tag_576:\n        /* \"#utility.yul\":31620:31694   */\n      swap2\n      pop\n        /* \"#utility.yul\":31703:31796   */\n      tag_577\n        /* \"#utility.yul\":31792:31795   */\n      dup3\n        /* \"#utility.yul\":31703:31796   */\n      tag_289\n      jump\t// in\n    tag_577:\n        /* \"#utility.yul\":31821:31823   */\n      0x40\n        /* \"#utility.yul\":31816:31819   */\n      dup3\n        /* \"#utility.yul\":31812:31824   */\n      add\n        /* \"#utility.yul\":31805:31824   */\n      swap1\n      pop\n        /* \"#utility.yul\":31464:31830   */\n      swap2\n      swap1\n      pop\n      jump\t// out\n        /* \"#utility.yul\":31836:32255   */\n    tag_191:\n        /* \"#utility.yul\":32002:32006   */\n      0x00\n        /* \"#utility.yul\":32040:32042   */\n      0x20\n        /* \"#utility.yul\":32029:32038   */\n      dup3\n        /* \"#utility.yul\":32025:32043   */\n      add\n        /* \"#utility.yul\":32017:32043   */\n      swap1\n      pop\n        /* \"#utility.yul\":32089:32098   */\n      dup2\n        /* \"#utility.yul\":32083:32087   */\n      dup2\n        /* \"#utility.yul\":32079:32099   */\n      sub\n        /* \"#utility.yul\":32075:32076   */\n      0x00\n        /* \"#utility.yul\":32064:32073   */\n      dup4\n        /* \"#utility.yul\":32060:32077   */\n      add\n        /* \"#utility.yul\":32053:32100   */\n      mstore\n        /* \"#utility.yul\":32117:32248   */\n      tag_579\n        /* \"#utility.yul\":32243:32247   */\n      dup2\n        /* \"#utility.yul\":32117:32248   */\n      tag_290\n      jump\t// in\n    tag_579:\n        /* \"#utility.yul\":32109:32248   */\n      swap1\n      pop\n        /* \"#utility.yul\":31836:32255   */\n      swap2\n      swap1\n      pop\n      jump\t// out\n        /* \"#utility.yul\":32261:32438   */\n    tag_291:\n        /* \"#utility.yul\":32401:32430   */\n      0x566f74657220697320616c726561647920726567697374657265640000000000\n        /* \"#utility.yul\":32397:32398   */\n      0x00\n        /* \"#utility.yul\":32389:32395   */\n      dup3\n        /* \"#utility.yul\":32385:32399   */\n      add\n        /* \"#utility.yul\":32378:32431   */\n      mstore\n        /* \"#utility.yul\":32261:32438   */\n      pop\n      jump\t// out\n        /* \"#utility.yul\":32444:32810   */\n    tag_292:\n        /* \"#utility.yul\":32586:32589   */\n      0x00\n        /* \"#utility.yul\":32607:32674   */\n      tag_582\n        /* \"#utility.yul\":32671:32673   */\n      0x1b\n        /* \"#utility.yul\":32666:32669   */\n      dup4\n        /* \"#utility.yul\":32607:32674   */\n      tag_236\n      jump\t// in\n    tag_582:\n        /* \"#utility.yul\":32600:32674   */\n      swap2\n      pop\n        /* \"#utility.yul\":32683:32776   */\n      tag_583\n        /* \"#utility.yul\":32772:32775   */\n      dup3\n        /* \"#utility.yul\":32683:32776   */\n      tag_291\n      jump\t// in\n    tag_583:\n        /* \"#utility.yul\":32801:32803   */\n      0x20\n        /* \"#utility.yul\":32796:32799   */\n      dup3\n        /* \"#utility.yul\":32792:32804   */\n      add\n        /* \"#utility.yul\":32785:32804   */\n      swap1\n      pop\n        /* \"#utility.yul\":32444:32810   */\n      swap2\n      swap1\n      pop\n      jump\t// out\n        /* \"#utility.yul\":32816:33235   */\n    tag_195:\n        /* \"#utility.yul\":32982:32986   */\n      0x00\n        /* \"#utility.yul\":33020:33022   */\n      0x20\n        /* \"#utility.yul\":33009:33018   */\n      dup3\n        /* \"#utility.yul\":33005:33023   */\n      add\n        /* \"#utility.yul\":32997:33023   */\n      swap1\n      pop\n        /* \"#utility.yul\":33069:33078   */\n      dup2\n        /* \"#utility.yul\":33063:33067   */\n      dup2\n        /* \"#utility.yul\":33059:33079   */\n      sub\n        /* \"#utility.yul\":33055:33056   */\n      0x00\n        /* \"#utility.yul\":33044:33053   */\n      dup4\n        /* \"#utility.yul\":33040:33057   */\n      add\n        /* \"#utility.yul\":33033:33080   */\n      mstore\n        /* \"#utility.yul\":33097:33228   */\n      tag_585\n        /* \"#utility.yul\":33223:33227   */\n      dup2\n        /* \"#utility.yul\":33097:33228   */\n      tag_292\n      jump\t// in\n    tag_585:\n        /* \"#utility.yul\":33089:33228   */\n      swap1\n      pop\n        /* \"#utility.yul\":32816:33235   */\n      swap2\n      swap1\n      pop\n      jump\t// out\n        /* \"#utility.yul\":33241:33475   */\n    tag_293:\n        /* \"#utility.yul\":33381:33415   */\n      0x54686973206164647265737320697320616c7265616479206173736f63696174\n        /* \"#utility.yul\":33377:33378   */\n      0x00\n        /* \"#utility.yul\":33369:33375   */\n      dup3\n        /* \"#utility.yul\":33365:33379   */\n      add\n        /* \"#utility.yul\":33358:33416   */\n      mstore\n        /* \"#utility.yul\":33450:33467   */\n      0x65642077697468206120766f7465720000000000000000000000000000000000\n        /* \"#utility.yul\":33445:33447   */\n      0x20\n        /* \"#utility.yul\":33437:33443   */\n      dup3\n        /* \"#utility.yul\":33433:33448   */\n      add\n        /* \"#utility.yul\":33426:33468   */\n      mstore\n        /* \"#utility.yul\":33241:33475   */\n      pop\n      jump\t// out\n        /* \"#utility.yul\":33481:33847   */\n    tag_294:\n        /* \"#utility.yul\":33623:33626   */\n      0x00\n        /* \"#utility.yul\":33644:33711   */\n      tag_588\n        /* \"#utility.yul\":33708:33710   */\n      0x2f\n        /* \"#utility.yul\":33703:33706   */\n      dup4\n        /* \"#utility.yul\":33644:33711   */\n      tag_236\n      jump\t// in\n    tag_588:\n        /* \"#utility.yul\":33637:33711   */\n      swap2\n      pop\n        /* \"#utility.yul\":33720:33813   */\n      tag_589\n        /* \"#utility.yul\":33809:33812   */\n      dup3\n        /* \"#utility.yul\":33720:33813   */\n      tag_293\n      jump\t// in\n    tag_589:\n        /* \"#utility.yul\":33838:33840   */\n      0x40\n        /* \"#utility.yul\":33833:33836   */\n      dup3\n        /* \"#utility.yul\":33829:33841   */\n      add\n        /* \"#utility.yul\":33822:33841   */\n      swap1\n      pop\n        /* \"#utility.yul\":33481:33847   */\n      swap2\n      swap1\n      pop\n      jump\t// out\n        /* \"#utility.yul\":33853:34272   */\n    tag_199:\n        /* \"#utility.yul\":34019:34023   */\n      0x00\n        /* \"#utility.yul\":34057:34059   */\n      0x20\n        /* \"#utility.yul\":34046:34055   */\n      dup3\n        /* \"#utility.yul\":34042:34060   */\n      add\n        /* \"#utility.yul\":34034:34060   */\n      swap1\n      pop\n        /* \"#utility.yul\":34106:34115   */\n      dup2\n        /* \"#utility.yul\":34100:34104   */\n      dup2\n        /* \"#utility.yul\":34096:34116   */\n      sub\n        /* \"#utility.yul\":34092:34093   */\n      0x00\n        /* \"#utility.yul\":34081:34090   */\n      dup4\n        /* \"#utility.yul\":34077:34094   */\n      add\n        /* \"#utility.yul\":34070:34117   */\n      mstore\n        /* \"#utility.yul\":34134:34265   */\n      tag_591\n        /* \"#utility.yul\":34260:34264   */\n      dup2\n        /* \"#utility.yul\":34134:34265   */\n      tag_294\n      jump\t// in\n    tag_591:\n        /* \"#utility.yul\":34126:34265   */\n      swap1\n      pop\n        /* \"#utility.yul\":33853:34272   */\n      swap2\n      swap1\n      pop\n      jump\t// out\n        /* \"#utility.yul\":34278:34517   */\n    tag_295:\n        /* \"#utility.yul\":34418:34452   */\n      0x496e76616c6964206e6174696f6e616c2049442c20796f7520617265206e6f74\n        /* \"#utility.yul\":34414:34415   */\n      0x00\n        /* \"#utility.yul\":34406:34412   */\n      dup3\n        /* \"#utility.yul\":34402:34416   */\n      add\n        /* \"#utility.yul\":34395:34453   */\n      mstore\n        /* \"#utility.yul\":34487:34509   */\n      0x20656c696769626c6520666f7220766f74696e67000000000000000000000000\n        /* \"#utility.yul\":34482:34484   */\n      0x20\n        /* \"#utility.yul\":34474:34480   */\n      dup3\n        /* \"#utility.yul\":34470:34485   */\n      add\n        /* \"#utility.yul\":34463:34510   */\n      mstore\n        /* \"#utility.yul\":34278:34517   */\n      pop\n      jump\t// out\n        /* \"#utility.yul\":34523:34889   */\n    tag_296:\n        /* \"#utility.yul\":34665:34668   */\n      0x00\n        /* \"#utility.yul\":34686:34753   */\n      tag_594\n        /* \"#utility.yul\":34750:34752   */\n      0x34\n        /* \"#utility.yul\":34745:34748   */\n      dup4\n        /* \"#utility.yul\":34686:34753   */\n      tag_236\n      jump\t// in\n    tag_594:\n        /* \"#utility.yul\":34679:34753   */\n      swap2\n      pop\n        /* \"#utility.yul\":34762:34855   */\n      tag_595\n        /* \"#utility.yul\":34851:34854   */\n      dup3\n        /* \"#utility.yul\":34762:34855   */\n      tag_295\n      jump\t// in\n    tag_595:\n        /* \"#utility.yul\":34880:34882   */\n      0x40\n        /* \"#utility.yul\":34875:34878   */\n      dup3\n        /* \"#utility.yul\":34871:34883   */\n      add\n        /* \"#utility.yul\":34864:34883   */\n      swap1\n      pop\n        /* \"#utility.yul\":34523:34889   */\n      swap2\n      swap1\n      pop\n      jump\t// out\n        /* \"#utility.yul\":34895:35314   */\n    tag_203:\n        /* \"#utility.yul\":35061:35065   */\n      0x00\n        /* \"#utility.yul\":35099:35101   */\n      0x20\n        /* \"#utility.yul\":35088:35097   */\n      dup3\n        /* \"#utility.yul\":35084:35102   */\n      add\n        /* \"#utility.yul\":35076:35102   */\n      swap1\n      pop\n        /* \"#utility.yul\":35148:35157   */\n      dup2\n        /* \"#utility.yul\":35142:35146   */\n      dup2\n        /* \"#utility.yul\":35138:35158   */\n      sub\n        /* \"#utility.yul\":35134:35135   */\n      0x00\n        /* \"#utility.yul\":35123:35132   */\n      dup4\n        /* \"#utility.yul\":35119:35136   */\n      add\n        /* \"#utility.yul\":35112:35159   */\n      mstore\n        /* \"#utility.yul\":35176:35307   */\n      tag_597\n        /* \"#utility.yul\":35302:35306   */\n      dup2\n        /* \"#utility.yul\":35176:35307   */\n      tag_296\n      jump\t// in\n    tag_597:\n        /* \"#utility.yul\":35168:35307   */\n      swap1\n      pop\n        /* \"#utility.yul\":34895:35314   */\n      swap2\n      swap1\n      pop\n      jump\t// out\n        /* \"#utility.yul\":35320:35500   */\n    tag_211:\n        /* \"#utility.yul\":35368:35445   */\n      0x4e487b7100000000000000000000000000000000000000000000000000000000\n        /* \"#utility.yul\":35365:35366   */\n      0x00\n        /* \"#utility.yul\":35358:35446   */\n      mstore\n        /* \"#utility.yul\":35465:35469   */\n      0x32\n        /* \"#utility.yul\":35462:35463   */\n      0x04\n        /* \"#utility.yul\":35455:35470   */\n      mstore\n        /* \"#utility.yul\":35489:35493   */\n      0x24\n        /* \"#utility.yul\":35486:35487   */\n      0x00\n        /* \"#utility.yul\":35479:35494   */\n      revert\n\n    auxdata: 0xa2646970667358221220c080eac26800e144404dfb303e017d572bd92d8e9f7233b492c2cb2fa8174d4364736f6c634300081a0033\n}\n",
				"bytecode": {
					"linkReferences": {},
					"object": "6080604052348015600e575f80fd5b50335f806101000a81548173ffffffffffffffffffffffffffffffffffffffff021916908373ffffffffffffffffffffffffffffffffffffffff1602179055505f6001819055505f6002819055505f60045f6101000a81548160ff02191690831515021790555060646003819055506125d98061008a5f395ff3fe608060405234801561000f575f80fd5b50600436106100f3575f3560e01c80638e7ea5b211610095578063c3403ddf11610064578063c3403ddf14610250578063dbaf67bb1461025a578063ebbb4f841461028a578063f851a440146102a6576100f3565b80638e7ea5b2146101c4578063a3ec138d146101e3578063a95824b414610214578063a9a981a314610232576100f3565b80633477ee2e116100d15780633477ee2e1461013957806342169e481461016c5780634e0877f41461018a57806370b01bbd146101a6576100f3565b80631ec6b60a146100f757806321b3f52814610101578063241084751461011d575b5f80fd5b6100ff6102c4565b005b61011b60048036038101906101169190611542565b6103b3565b005b6101376004803603810190610132919061162d565b6106de565b005b610153600480360381019061014e9190611687565b61095a565b6040516101639493929190611721565b60405180910390f35b610174610b18565b6040516101819190611779565b60405180910390f35b6101a4600480360381019061019f9190611687565b610b1e565b005b6101ae610bf7565b6040516101bb9190611779565b60405180910390f35b6101cc610bfd565b6040516101da929190611792565b60405180910390f35b6101fd60048036038101906101f891906117c0565b610da8565b60405161020b929190611805565b60405180910390f35b61021c610e5a565b6040516102299190611833565b60405180910390f35b61023a610e6c565b6040516102479190611779565b60405180910390f35b610258610e72565b005b610274600480360381019061026f919061184c565b610f68565b6040516102819190611833565b60405180910390f35b6102a4600480360381019061029f9190611893565b610f9d565b005b6102ae61128b565b6040516102bb91906118fc565b60405180910390f35b5f8054906101000a900473ffffffffffffffffffffffffffffffffffffffff1673ffffffffffffffffffffffffffffffffffffffff163373ffffffffffffffffffffffffffffffffffffffff1614610351576040517f08c379a000000000000000000000000000000000000000000000000000000000815260040161034890611985565b60405180910390fd5b60026001541015610397576040517f08c379a000000000000000000000000000000000000000000000000000000000815260040161038e90611a13565b60405180910390fd5b600160045f6101000a81548160ff021916908315150217905550565b5f8054906101000a900473ffffffffffffffffffffffffffffffffffffffff1673ffffffffffffffffffffffffffffffffffffffff163373ffffffffffffffffffffffffffffffffffffffff1614610440576040517f08c379a000000000000000000000000000000000000000000000000000000000815260040161043790611985565b60405180910390fd5b6007816040516104509190611a6b565b90815260200160405180910390205f9054906101000a900460ff16156104ab576040517f08c379a00000000000000000000000000000000000000000000000000000000081526004016104a290611acb565b60405180910390fd5b5f60065f8673ffffffffffffffffffffffffffffffffffffffff1673ffffffffffffffffffffffffffffffffffffffff1681526020019081526020015f205f0180546104f690611b16565b905014610538576040517f08c379a000000000000000000000000000000000000000000000000000000000815260040161052f90611bb6565b60405180910390fd5b610541816112ae565b610580576040517f08c379a000000000000000000000000000000000000000000000000000000000815260040161057790611c44565b60405180910390fd5b60015f81548092919061059290611c8f565b919050555060405180608001604052808481526020018381526020015f81526020018281525060055f60015481526020019081526020015f205f820151815f0190816105de9190611e73565b5060208201518160010190816105f49190611e73565b506040820151816002015560608201518160030190816106149190611e73565b5090505060405180604001604052808281526020015f151581525060065f8673ffffffffffffffffffffffffffffffffffffffff1673ffffffffffffffffffffffffffffffffffffffff1681526020019081526020015f205f820151815f01908161067f9190611e73565b506020820151816001015f6101000a81548160ff02191690831515021790555090505060016007826040516106b49190611a6b565b90815260200160405180910390205f6101000a81548160ff02191690831515021790555050505050565b60045f9054906101000a900460ff1661072c576040517f08c379a000000000000000000000000000000000000000000000000000000000815260040161072390611f8c565b60405180910390fd5b5f8211801561073d57506001548211155b61077c576040517f08c379a000000000000000000000000000000000000000000000000000000000815260040161077390611ff4565b60405180910390fd5b8060405160200161078d9190611a6b565b6040516020818303038152906040528051906020012060065f3373ffffffffffffffffffffffffffffffffffffffff1673ffffffffffffffffffffffffffffffffffffffff1681526020019081526020015f205f016040516020016107f29190612092565b6040516020818303038152906040528051906020012014610848576040517f08c379a000000000000000000000000000000000000000000000000000000000815260040161083f90612118565b60405180910390fd5b60065f3373ffffffffffffffffffffffffffffffffffffffff1673ffffffffffffffffffffffffffffffffffffffff1681526020019081526020015f206001015f9054906101000a900460ff16156108d5576040517f08c379a00000000000000000000000000000000000000000000000000000000081526004016108cc90612180565b60405180910390fd5b60055f8381526020019081526020015f206002015f8154809291906108f990611c8f565b9190505550600160065f3373ffffffffffffffffffffffffffffffffffffffff1673ffffffffffffffffffffffffffffffffffffffff1681526020019081526020015f206001015f6101000a81548160ff0219169083151502179055505050565b6005602052805f5260405f205f91509050805f01805461097990611b16565b80601f01602080910402602001604051908101604052809291908181526020018280546109a590611b16565b80156109f05780601f106109c7576101008083540402835291602001916109f0565b820191905f5260205f20905b8154815290600101906020018083116109d357829003601f168201915b505050505090806001018054610a0590611b16565b80601f0160208091040260200160405190810160405280929190818152602001828054610a3190611b16565b8015610a7c5780601f10610a5357610100808354040283529160200191610a7c565b820191905f5260205f20905b815481529060010190602001808311610a5f57829003601f168201915b505050505090806002015490806003018054610a9790611b16565b80601f0160208091040260200160405190810160405280929190818152602001828054610ac390611b16565b8015610b0e5780601f10610ae557610100808354040283529160200191610b0e565b820191905f5260205f20905b815481529060010190602001808311610af157829003601f168201915b5050505050905084565b60025481565b5f8054906101000a900473ffffffffffffffffffffffffffffffffffffffff1673ffffffffffffffffffffffffffffffffffffffff163373ffffffffffffffffffffffffffffffffffffffff1614610bab576040517f08c379a0000000000000000000000000000000000000000000000000000000008152600401610ba290611985565b60405180910390fd5b5f8111610bed576040517f08c379a0000000000000000000000000000000000000000000000000000000008152600401610be4906121e8565b60405180910390fd5b8060038190555050565b60035481565b60605f60045f9054906101000a900460ff1615610c4f576040517f08c379a0000000000000000000000000000000000000000000000000000000008152600401610c4690612250565b60405180910390fd5b5f60015411610c93576040517f08c379a0000000000000000000000000000000000000000000000000000000008152600401610c8a906122de565b60405180910390fd5b5f805f600190505b6001548111610cee578260055f8381526020019081526020015f20600201541115610cdb5760055f8281526020019081526020015f206002015492508091505b8080610ce690611c8f565b915050610c9b565b5060055f8281526020019081526020015f205f018054610d0d90611b16565b80601f0160208091040260200160405190810160405280929190818152602001828054610d3990611b16565b8015610d845780601f10610d5b57610100808354040283529160200191610d84565b820191905f5260205f20905b815481529060010190602001808311610d6757829003601f168201915b5050505050935060055f8281526020019081526020015f2060020154925050509091565b6006602052805f5260405f205f91509050805f018054610dc790611b16565b80601f0160208091040260200160405190810160405280929190818152602001828054610df390611b16565b8015610e3e5780601f10610e1557610100808354040283529160200191610e3e565b820191905f5260205f20905b815481529060010190602001808311610e2157829003601f168201915b505050505090806001015f9054906101000a900460ff16905082565b60045f9054906101000a900460ff1681565b60015481565b5f8054906101000a900473ffffffffffffffffffffffffffffffffffffffff1673ffffffffffffffffffffffffffffffffffffffff163373ffffffffffffffffffffffffffffffffffffffff1614610eff576040517f08c379a0000000000000000000000000000000000000000000000000000000008152600401610ef690611985565b60405180910390fd5b60045f9054906101000a900460ff16610f4d576040517f08c379a0000000000000000000000000000000000000000000000000000000008152600401610f4490612346565b60405180910390fd5b5f60045f6101000a81548160ff021916908315150217905550565b6007818051602081018201805184825260208301602085012081835280955050505050505f915054906101000a900460ff1681565b5f8054906101000a900473ffffffffffffffffffffffffffffffffffffffff1673ffffffffffffffffffffffffffffffffffffffff163373ffffffffffffffffffffffffffffffffffffffff161461102a576040517f08c379a000000000000000000000000000000000000000000000000000000000815260040161102190611985565b60405180910390fd5b60035460025410611070576040517f08c379a0000000000000000000000000000000000000000000000000000000008152600401611067906123d4565b60405180910390fd5b6007816040516110809190611a6b565b90815260200160405180910390205f9054906101000a900460ff16156110db576040517f08c379a00000000000000000000000000000000000000000000000000000000081526004016110d29061243c565b60405180910390fd5b5f60065f8473ffffffffffffffffffffffffffffffffffffffff1673ffffffffffffffffffffffffffffffffffffffff1681526020019081526020015f205f01805461112690611b16565b905014611168576040517f08c379a000000000000000000000000000000000000000000000000000000000815260040161115f906124ca565b60405180910390fd5b611171816112ae565b6111b0576040517f08c379a00000000000000000000000000000000000000000000000000000000081526004016111a790612558565b60405180910390fd5b60405180604001604052808281526020015f151581525060065f8473ffffffffffffffffffffffffffffffffffffffff1673ffffffffffffffffffffffffffffffffffffffff1681526020019081526020015f205f820151815f0190816112179190611e73565b506020820151816001015f6101000a81548160ff021916908315150217905550905050600160078260405161124c9190611a6b565b90815260200160405180910390205f6101000a81548160ff02191690831515021790555060025f81548092919061128290611c8f565b91905055505050565b5f8054906101000a900473ffffffffffffffffffffffffffffffffffffffff1681565b5f8082905060078151146112c5575f915050611396565b7f3200000000000000000000000000000000000000000000000000000000000000815f815181106112f9576112f8612576565b5b602001015160f81c60f81b7effffffffffffffffffffffffffffffffffffffffffffffffffffffffffffff191614801561139257507f32000000000000000000000000000000000000000000000000000000000000008160018151811061136357611362612576565b5b602001015160f81c60f81b7effffffffffffffffffffffffffffffffffffffffffffffffffffffffffffff1916145b9150505b919050565b5f604051905090565b5f80fd5b5f80fd5b5f73ffffffffffffffffffffffffffffffffffffffff82169050919050565b5f6113d5826113ac565b9050919050565b6113e5816113cb565b81146113ef575f80fd5b50565b5f81359050611400816113dc565b92915050565b5f80fd5b5f80fd5b5f601f19601f8301169050919050565b7f4e487b71000000000000000000000000000000000000000000000000000000005f52604160045260245ffd5b6114548261140e565b810181811067ffffffffffffffff821117156114735761147261141e565b5b80604052505050565b5f61148561139b565b9050611491828261144b565b919050565b5f67ffffffffffffffff8211156114b0576114af61141e565b5b6114b98261140e565b9050602081019050919050565b828183375f83830152505050565b5f6114e66114e184611496565b61147c565b9050828152602081018484840111156115025761150161140a565b5b61150d8482856114c6565b509392505050565b5f82601f83011261152957611528611406565b5b81356115398482602086016114d4565b91505092915050565b5f805f806080858703121561155a576115596113a4565b5b5f611567878288016113f2565b945050602085013567ffffffffffffffff811115611588576115876113a8565b5b61159487828801611515565b935050604085013567ffffffffffffffff8111156115b5576115b46113a8565b5b6115c187828801611515565b925050606085013567ffffffffffffffff8111156115e2576115e16113a8565b5b6115ee87828801611515565b91505092959194509250565b5f819050919050565b61160c816115fa565b8114611616575f80fd5b50565b5f8135905061162781611603565b92915050565b5f8060408385031215611643576116426113a4565b5b5f61165085828601611619565b925050602083013567ffffffffffffffff811115611671576116706113a8565b5b61167d85828601611515565b9150509250929050565b5f6020828403121561169c5761169b6113a4565b5b5f6116a984828501611619565b91505092915050565b5f81519050919050565b5f82825260208201905092915050565b8281835e5f83830152505050565b5f6116e4826116b2565b6116ee81856116bc565b93506116fe8185602086016116cc565b6117078161140e565b840191505092915050565b61171b816115fa565b82525050565b5f6080820190508181035f83015261173981876116da565b9050818103602083015261174d81866116da565b905061175c6040830185611712565b818103606083015261176e81846116da565b905095945050505050565b5f60208201905061178c5f830184611712565b92915050565b5f6040820190508181035f8301526117aa81856116da565b90506117b96020830184611712565b9392505050565b5f602082840312156117d5576117d46113a4565b5b5f6117e2848285016113f2565b91505092915050565b5f8115159050919050565b6117ff816117eb565b82525050565b5f6040820190508181035f83015261181d81856116da565b905061182c60208301846117f6565b9392505050565b5f6020820190506118465f8301846117f6565b92915050565b5f60208284031215611861576118606113a4565b5b5f82013567ffffffffffffffff81111561187e5761187d6113a8565b5b61188a84828501611515565b91505092915050565b5f80604083850312156118a9576118a86113a4565b5b5f6118b6858286016113f2565b925050602083013567ffffffffffffffff8111156118d7576118d66113a8565b5b6118e385828601611515565b9150509250929050565b6118f6816113cb565b82525050565b5f60208201905061190f5f8301846118ed565b92915050565b7f4f6e6c792061646d696e2063616e20706572666f726d207468697320616374695f8201527f6f6e000000000000000000000000000000000000000000000000000000000000602082015250565b5f61196f6022836116bc565b915061197a82611915565b604082019050919050565b5f6020820190508181035f83015261199c81611963565b9050919050565b7f4174206c656173742074776f2063616e646964617465732061726520726571755f8201527f6972656420746f20737461727420766f74696e67000000000000000000000000602082015250565b5f6119fd6034836116bc565b9150611a08826119a3565b604082019050919050565b5f6020820190508181035f830152611a2a816119f1565b9050919050565b5f81905092915050565b5f611a45826116b2565b611a4f8185611a31565b9350611a5f8185602086016116cc565b80840191505092915050565b5f611a768284611a3b565b915081905092915050565b7f43616e64696461746520697320616c72656164792072656769737465726564005f82015250565b5f611ab5601f836116bc565b9150611ac082611a81565b602082019050919050565b5f6020820190508181035f830152611ae281611aa9565b9050919050565b7f4e487b71000000000000000000000000000000000000000000000000000000005f52602260045260245ffd5b5f6002820490506001821680611b2d57607f821691505b602082108103611b4057611b3f611ae9565b5b50919050565b7f54686973206164647265737320697320616c7265616479206173736f636961745f8201527f6564207769746820612063616e64696461746500000000000000000000000000602082015250565b5f611ba06033836116bc565b9150611bab82611b46565b604082019050919050565b5f6020820190508181035f830152611bcd81611b94565b9050919050565b7f496e76616c6964206e6174696f6e616c2049442c20796f7520617265206e6f745f8201527f20656c696769626c6520666f722063616e646964617465000000000000000000602082015250565b5f611c2e6037836116bc565b9150611c3982611bd4565b604082019050919050565b5f6020820190508181035f830152611c5b81611c22565b9050919050565b7f4e487b71000000000000000000000000000000000000000000000000000000005f52601160045260245ffd5b5f611c99826115fa565b91507fffffffffffffffffffffffffffffffffffffffffffffffffffffffffffffffff8203611ccb57611cca611c62565b5b600182019050919050565b5f819050815f5260205f209050919050565b5f6020601f8301049050919050565b5f82821b905092915050565b5f60088302611d327fffffffffffffffffffffffffffffffffffffffffffffffffffffffffffffffff82611cf7565b611d3c8683611cf7565b95508019841693508086168417925050509392505050565b5f819050919050565b5f611d77611d72611d6d846115fa565b611d54565b6115fa565b9050919050565b5f819050919050565b611d9083611d5d565b611da4611d9c82611d7e565b848454611d03565b825550505050565b5f90565b611db8611dac565b611dc3818484611d87565b505050565b5b81811015611de657611ddb5f82611db0565b600181019050611dc9565b5050565b601f821115611e2b57611dfc81611cd6565b611e0584611ce8565b81016020851015611e14578190505b611e28611e2085611ce8565b830182611dc8565b50505b505050565b5f82821c905092915050565b5f611e4b5f1984600802611e30565b1980831691505092915050565b5f611e638383611e3c565b9150826002028217905092915050565b611e7c826116b2565b67ffffffffffffffff811115611e9557611e9461141e565b5b611e9f8254611b16565b611eaa828285611dea565b5f60209050601f831160018114611edb575f8415611ec9578287015190505b611ed38582611e58565b865550611f3a565b601f198416611ee986611cd6565b5f5b82811015611f1057848901518255600182019150602085019450602081019050611eeb565b86831015611f2d5784890151611f29601f891682611e3c565b8355505b6001600288020188555050505b505050505050565b7f566f74696e67206973206e6f742063757272656e746c79206f70656e000000005f82015250565b5f611f76601c836116bc565b9150611f8182611f42565b602082019050919050565b5f6020820190508181035f830152611fa381611f6a565b9050919050565b7f496e76616c69642063616e6469646174652049440000000000000000000000005f82015250565b5f611fde6014836116bc565b9150611fe982611faa565b602082019050919050565b5f6020820190508181035f83015261200b81611fd2565b9050919050565b5f815461201e81611b16565b6120288186611a31565b9450600182165f8114612042576001811461205757612089565b60ff1983168652811515820286019350612089565b61206085611cd6565b5f5b8381101561208157815481890152600182019150602081019050612062565b838801955050505b50505092915050565b5f61209d8284612012565b915081905092915050565b7f4e6174696f6e616c204944206e6f74206d6174636820726567697374657265645f8201527f2049440000000000000000000000000000000000000000000000000000000000602082015250565b5f6121026023836116bc565b915061210d826120a8565b604082019050919050565b5f6020820190508181035f83015261212f816120f6565b9050919050565b7f536f7a2c20796f752063616e206f6e6c7920766f7465206f6e652074696d65005f82015250565b5f61216a601f836116bc565b915061217582612136565b602082019050919050565b5f6020820190508181035f8301526121978161215e565b9050919050565b7f6c696d6974206d7573742062652067726561746572207468616e207a65726f005f82015250565b5f6121d2601f836116bc565b91506121dd8261219e565b602082019050919050565b5f6020820190508181035f8301526121ff816121c6565b9050919050565b7f566f74696e67206973207374696c6c206f70656e0000000000000000000000005f82015250565b5f61223a6014836116bc565b915061224582612206565b602082019050919050565b5f6020820190508181035f8301526122678161222e565b9050919050565b7f596f752063616e6e6f7420766f746520666f7220612063616e6469646174652c5f8201527f206966206e6f206f6e6520697320612063616e64696461746500000000000000602082015250565b5f6122c86039836116bc565b91506122d38261226e565b604082019050919050565b5f6020820190508181035f8301526122f5816122bc565b9050919050565b7f566f74696e6720697320616c726561647920636c6f73656400000000000000005f82015250565b5f6123306018836116bc565b915061233b826122fc565b602082019050919050565b5f6020820190508181035f83015261235d81612324565b9050919050565b7f526567697374726174696f6e206f6620766f74657220666f72207468697320705f8201527f6c61636520686173207265616368206c696d6974000000000000000000000000602082015250565b5f6123be6034836116bc565b91506123c982612364565b604082019050919050565b5f6020820190508181035f8301526123eb816123b2565b9050919050565b7f566f74657220697320616c7265616479207265676973746572656400000000005f82015250565b5f612426601b836116bc565b9150612431826123f2565b602082019050919050565b5f6020820190508181035f8301526124538161241a565b9050919050565b7f54686973206164647265737320697320616c7265616479206173736f636961745f8201527f65642077697468206120766f7465720000000000000000000000000000000000602082015250565b5f6124b4602f836116bc565b91506124bf8261245a565b604082019050919050565b5f6020820190508181035f8301526124e1816124a8565b9050919050565b7f496e76616c6964206e6174696f6e616c2049442c20796f7520617265206e6f745f8201527f20656c696769626c6520666f7220766f74696e67000000000000000000000000602082015250565b5f6125426034836116bc565b915061254d826124e8565b604082019050919050565b5f6020820190508181035f83015261256f81612536565b9050919050565b7f4e487b71000000000000000000000000000000000000000000000000000000005f52603260045260245ffdfea2646970667358221220c080eac26800e144404dfb303e017d572bd92d8e9f7233b492c2cb2fa8174d4364736f6c634300081a0033",
					"opcodes": "PUSH1 0x80 PUSH1 0x40 MSTORE CALLVALUE DUP1 ISZERO PUSH1 0xE JUMPI PUSH0 DUP1 REVERT JUMPDEST POP CALLER PUSH0 DUP1 PUSH2 0x100 EXP DUP2 SLOAD DUP2 PUSH20 0xFFFFFFFFFFFFFFFFFFFFFFFFFFFFFFFFFFFFFFFF MUL NOT AND SWAP1 DUP4 PUSH20 0xFFFFFFFFFFFFFFFFFFFFFFFFFFFFFFFFFFFFFFFF AND MUL OR SWAP1 SSTORE POP PUSH0 PUSH1 0x1 DUP2 SWAP1 SSTORE POP PUSH0 PUSH1 0x2 DUP2 SWAP1 SSTORE POP PUSH0 PUSH1 0x4 PUSH0 PUSH2 0x100 EXP DUP2 SLOAD DUP2 PUSH1 0xFF MUL NOT AND SWAP1 DUP4 ISZERO ISZERO MUL OR SWAP1 SSTORE POP PUSH1 0x64 PUSH1 0x3 DUP2 SWAP1 SSTORE POP PUSH2 0x25D9 DUP1 PUSH2 0x8A PUSH0 CODECOPY PUSH0 RETURN INVALID PUSH1 0x80 PUSH1 0x40 MSTORE CALLVALUE DUP1 ISZERO PUSH2 0xF JUMPI PUSH0 DUP1 REVERT JUMPDEST POP PUSH1 0x4 CALLDATASIZE LT PUSH2 0xF3 JUMPI PUSH0 CALLDATALOAD PUSH1 0xE0 SHR DUP1 PUSH4 0x8E7EA5B2 GT PUSH2 0x95 JUMPI DUP1 PUSH4 0xC3403DDF GT PUSH2 0x64 JUMPI DUP1 PUSH4 0xC3403DDF EQ PUSH2 0x250 JUMPI DUP1 PUSH4 0xDBAF67BB EQ PUSH2 0x25A JUMPI DUP1 PUSH4 0xEBBB4F84 EQ PUSH2 0x28A JUMPI DUP1 PUSH4 0xF851A440 EQ PUSH2 0x2A6 JUMPI PUSH2 0xF3 JUMP JUMPDEST DUP1 PUSH4 0x8E7EA5B2 EQ PUSH2 0x1C4 JUMPI DUP1 PUSH4 0xA3EC138D EQ PUSH2 0x1E3 JUMPI DUP1 PUSH4 0xA95824B4 EQ PUSH2 0x214 JUMPI DUP1 PUSH4 0xA9A981A3 EQ PUSH2 0x232 JUMPI PUSH2 0xF3 JUMP JUMPDEST DUP1 PUSH4 0x3477EE2E GT PUSH2 0xD1 JUMPI DUP1 PUSH4 0x3477EE2E EQ PUSH2 0x139 JUMPI DUP1 PUSH4 0x42169E48 EQ PUSH2 0x16C JUMPI DUP1 PUSH4 0x4E0877F4 EQ PUSH2 0x18A JUMPI DUP1 PUSH4 0x70B01BBD EQ PUSH2 0x1A6 JUMPI PUSH2 0xF3 JUMP JUMPDEST DUP1 PUSH4 0x1EC6B60A EQ PUSH2 0xF7 JUMPI DUP1 PUSH4 0x21B3F528 EQ PUSH2 0x101 JUMPI DUP1 PUSH4 0x24108475 EQ PUSH2 0x11D JUMPI JUMPDEST PUSH0 DUP1 REVERT JUMPDEST PUSH2 0xFF PUSH2 0x2C4 JUMP JUMPDEST STOP JUMPDEST PUSH2 0x11B PUSH1 0x4 DUP1 CALLDATASIZE SUB DUP2 ADD SWAP1 PUSH2 0x116 SWAP2 SWAP1 PUSH2 0x1542 JUMP JUMPDEST PUSH2 0x3B3 JUMP JUMPDEST STOP JUMPDEST PUSH2 0x137 PUSH1 0x4 DUP1 CALLDATASIZE SUB DUP2 ADD SWAP1 PUSH2 0x132 SWAP2 SWAP1 PUSH2 0x162D JUMP JUMPDEST PUSH2 0x6DE JUMP JUMPDEST STOP JUMPDEST PUSH2 0x153 PUSH1 0x4 DUP1 CALLDATASIZE SUB DUP2 ADD SWAP1 PUSH2 0x14E SWAP2 SWAP1 PUSH2 0x1687 JUMP JUMPDEST PUSH2 0x95A JUMP JUMPDEST PUSH1 0x40 MLOAD PUSH2 0x163 SWAP5 SWAP4 SWAP3 SWAP2 SWAP1 PUSH2 0x1721 JUMP JUMPDEST PUSH1 0x40 MLOAD DUP1 SWAP2 SUB SWAP1 RETURN JUMPDEST PUSH2 0x174 PUSH2 0xB18 JUMP JUMPDEST PUSH1 0x40 MLOAD PUSH2 0x181 SWAP2 SWAP1 PUSH2 0x1779 JUMP JUMPDEST PUSH1 0x40 MLOAD DUP1 SWAP2 SUB SWAP1 RETURN JUMPDEST PUSH2 0x1A4 PUSH1 0x4 DUP1 CALLDATASIZE SUB DUP2 ADD SWAP1 PUSH2 0x19F SWAP2 SWAP1 PUSH2 0x1687 JUMP JUMPDEST PUSH2 0xB1E JUMP JUMPDEST STOP JUMPDEST PUSH2 0x1AE PUSH2 0xBF7 JUMP JUMPDEST PUSH1 0x40 MLOAD PUSH2 0x1BB SWAP2 SWAP1 PUSH2 0x1779 JUMP JUMPDEST PUSH1 0x40 MLOAD DUP1 SWAP2 SUB SWAP1 RETURN JUMPDEST PUSH2 0x1CC PUSH2 0xBFD JUMP JUMPDEST PUSH1 0x40 MLOAD PUSH2 0x1DA SWAP3 SWAP2 SWAP1 PUSH2 0x1792 JUMP JUMPDEST PUSH1 0x40 MLOAD DUP1 SWAP2 SUB SWAP1 RETURN JUMPDEST PUSH2 0x1FD PUSH1 0x4 DUP1 CALLDATASIZE SUB DUP2 ADD SWAP1 PUSH2 0x1F8 SWAP2 SWAP1 PUSH2 0x17C0 JUMP JUMPDEST PUSH2 0xDA8 JUMP JUMPDEST PUSH1 0x40 MLOAD PUSH2 0x20B SWAP3 SWAP2 SWAP1 PUSH2 0x1805 JUMP JUMPDEST PUSH1 0x40 MLOAD DUP1 SWAP2 SUB SWAP1 RETURN JUMPDEST PUSH2 0x21C PUSH2 0xE5A JUMP JUMPDEST PUSH1 0x40 MLOAD PUSH2 0x229 SWAP2 SWAP1 PUSH2 0x1833 JUMP JUMPDEST PUSH1 0x40 MLOAD DUP1 SWAP2 SUB SWAP1 RETURN JUMPDEST PUSH2 0x23A PUSH2 0xE6C JUMP JUMPDEST PUSH1 0x40 MLOAD PUSH2 0x247 SWAP2 SWAP1 PUSH2 0x1779 JUMP JUMPDEST PUSH1 0x40 MLOAD DUP1 SWAP2 SUB SWAP1 RETURN JUMPDEST PUSH2 0x258 PUSH2 0xE72 JUMP JUMPDEST STOP JUMPDEST PUSH2 0x274 PUSH1 0x4 DUP1 CALLDATASIZE SUB DUP2 ADD SWAP1 PUSH2 0x26F SWAP2 SWAP1 PUSH2 0x184C JUMP JUMPDEST PUSH2 0xF68 JUMP JUMPDEST PUSH1 0x40 MLOAD PUSH2 0x281 SWAP2 SWAP1 PUSH2 0x1833 JUMP JUMPDEST PUSH1 0x40 MLOAD DUP1 SWAP2 SUB SWAP1 RETURN JUMPDEST PUSH2 0x2A4 PUSH1 0x4 DUP1 CALLDATASIZE SUB DUP2 ADD SWAP1 PUSH2 0x29F SWAP2 SWAP1 PUSH2 0x1893 JUMP JUMPDEST PUSH2 0xF9D JUMP JUMPDEST STOP JUMPDEST PUSH2 0x2AE PUSH2 0x128B JUMP JUMPDEST PUSH1 0x40 MLOAD PUSH2 0x2BB SWAP2 SWAP1 PUSH2 0x18FC JUMP JUMPDEST PUSH1 0x40 MLOAD DUP1 SWAP2 SUB SWAP1 RETURN JUMPDEST PUSH0 DUP1 SLOAD SWAP1 PUSH2 0x100 EXP SWAP1 DIV PUSH20 0xFFFFFFFFFFFFFFFFFFFFFFFFFFFFFFFFFFFFFFFF AND PUSH20 0xFFFFFFFFFFFFFFFFFFFFFFFFFFFFFFFFFFFFFFFF AND CALLER PUSH20 0xFFFFFFFFFFFFFFFFFFFFFFFFFFFFFFFFFFFFFFFF AND EQ PUSH2 0x351 JUMPI PUSH1 0x40 MLOAD PUSH32 0x8C379A000000000000000000000000000000000000000000000000000000000 DUP2 MSTORE PUSH1 0x4 ADD PUSH2 0x348 SWAP1 PUSH2 0x1985 JUMP JUMPDEST PUSH1 0x40 MLOAD DUP1 SWAP2 SUB SWAP1 REVERT JUMPDEST PUSH1 0x2 PUSH1 0x1 SLOAD LT ISZERO PUSH2 0x397 JUMPI PUSH1 0x40 MLOAD PUSH32 0x8C379A000000000000000000000000000000000000000000000000000000000 DUP2 MSTORE PUSH1 0x4 ADD PUSH2 0x38E SWAP1 PUSH2 0x1A13 JUMP JUMPDEST PUSH1 0x40 MLOAD DUP1 SWAP2 SUB SWAP1 REVERT JUMPDEST PUSH1 0x1 PUSH1 0x4 PUSH0 PUSH2 0x100 EXP DUP2 SLOAD DUP2 PUSH1 0xFF MUL NOT AND SWAP1 DUP4 ISZERO ISZERO MUL OR SWAP1 SSTORE POP JUMP JUMPDEST PUSH0 DUP1 SLOAD SWAP1 PUSH2 0x100 EXP SWAP1 DIV PUSH20 0xFFFFFFFFFFFFFFFFFFFFFFFFFFFFFFFFFFFFFFFF AND PUSH20 0xFFFFFFFFFFFFFFFFFFFFFFFFFFFFFFFFFFFFFFFF AND CALLER PUSH20 0xFFFFFFFFFFFFFFFFFFFFFFFFFFFFFFFFFFFFFFFF AND EQ PUSH2 0x440 JUMPI PUSH1 0x40 MLOAD PUSH32 0x8C379A000000000000000000000000000000000000000000000000000000000 DUP2 MSTORE PUSH1 0x4 ADD PUSH2 0x437 SWAP1 PUSH2 0x1985 JUMP JUMPDEST PUSH1 0x40 MLOAD DUP1 SWAP2 SUB SWAP1 REVERT JUMPDEST PUSH1 0x7 DUP2 PUSH1 0x40 MLOAD PUSH2 0x450 SWAP2 SWAP1 PUSH2 0x1A6B JUMP JUMPDEST SWAP1 DUP2 MSTORE PUSH1 0x20 ADD PUSH1 0x40 MLOAD DUP1 SWAP2 SUB SWAP1 KECCAK256 PUSH0 SWAP1 SLOAD SWAP1 PUSH2 0x100 EXP SWAP1 DIV PUSH1 0xFF AND ISZERO PUSH2 0x4AB JUMPI PUSH1 0x40 MLOAD PUSH32 0x8C379A000000000000000000000000000000000000000000000000000000000 DUP2 MSTORE PUSH1 0x4 ADD PUSH2 0x4A2 SWAP1 PUSH2 0x1ACB JUMP JUMPDEST PUSH1 0x40 MLOAD DUP1 SWAP2 SUB SWAP1 REVERT JUMPDEST PUSH0 PUSH1 0x6 PUSH0 DUP7 PUSH20 0xFFFFFFFFFFFFFFFFFFFFFFFFFFFFFFFFFFFFFFFF AND PUSH20 0xFFFFFFFFFFFFFFFFFFFFFFFFFFFFFFFFFFFFFFFF AND DUP2 MSTORE PUSH1 0x20 ADD SWAP1 DUP2 MSTORE PUSH1 0x20 ADD PUSH0 KECCAK256 PUSH0 ADD DUP1 SLOAD PUSH2 0x4F6 SWAP1 PUSH2 0x1B16 JUMP JUMPDEST SWAP1 POP EQ PUSH2 0x538 JUMPI PUSH1 0x40 MLOAD PUSH32 0x8C379A000000000000000000000000000000000000000000000000000000000 DUP2 MSTORE PUSH1 0x4 ADD PUSH2 0x52F SWAP1 PUSH2 0x1BB6 JUMP JUMPDEST PUSH1 0x40 MLOAD DUP1 SWAP2 SUB SWAP1 REVERT JUMPDEST PUSH2 0x541 DUP2 PUSH2 0x12AE JUMP JUMPDEST PUSH2 0x580 JUMPI PUSH1 0x40 MLOAD PUSH32 0x8C379A000000000000000000000000000000000000000000000000000000000 DUP2 MSTORE PUSH1 0x4 ADD PUSH2 0x577 SWAP1 PUSH2 0x1C44 JUMP JUMPDEST PUSH1 0x40 MLOAD DUP1 SWAP2 SUB SWAP1 REVERT JUMPDEST PUSH1 0x1 PUSH0 DUP2 SLOAD DUP1 SWAP3 SWAP2 SWAP1 PUSH2 0x592 SWAP1 PUSH2 0x1C8F JUMP JUMPDEST SWAP2 SWAP1 POP SSTORE POP PUSH1 0x40 MLOAD DUP1 PUSH1 0x80 ADD PUSH1 0x40 MSTORE DUP1 DUP5 DUP2 MSTORE PUSH1 0x20 ADD DUP4 DUP2 MSTORE PUSH1 0x20 ADD PUSH0 DUP2 MSTORE PUSH1 0x20 ADD DUP3 DUP2 MSTORE POP PUSH1 0x5 PUSH0 PUSH1 0x1 SLOAD DUP2 MSTORE PUSH1 0x20 ADD SWAP1 DUP2 MSTORE PUSH1 0x20 ADD PUSH0 KECCAK256 PUSH0 DUP3 ADD MLOAD DUP2 PUSH0 ADD SWAP1 DUP2 PUSH2 0x5DE SWAP2 SWAP1 PUSH2 0x1E73 JUMP JUMPDEST POP PUSH1 0x20 DUP3 ADD MLOAD DUP2 PUSH1 0x1 ADD SWAP1 DUP2 PUSH2 0x5F4 SWAP2 SWAP1 PUSH2 0x1E73 JUMP JUMPDEST POP PUSH1 0x40 DUP3 ADD MLOAD DUP2 PUSH1 0x2 ADD SSTORE PUSH1 0x60 DUP3 ADD MLOAD DUP2 PUSH1 0x3 ADD SWAP1 DUP2 PUSH2 0x614 SWAP2 SWAP1 PUSH2 0x1E73 JUMP JUMPDEST POP SWAP1 POP POP PUSH1 0x40 MLOAD DUP1 PUSH1 0x40 ADD PUSH1 0x40 MSTORE DUP1 DUP3 DUP2 MSTORE PUSH1 0x20 ADD PUSH0 ISZERO ISZERO DUP2 MSTORE POP PUSH1 0x6 PUSH0 DUP7 PUSH20 0xFFFFFFFFFFFFFFFFFFFFFFFFFFFFFFFFFFFFFFFF AND PUSH20 0xFFFFFFFFFFFFFFFFFFFFFFFFFFFFFFFFFFFFFFFF AND DUP2 MSTORE PUSH1 0x20 ADD SWAP1 DUP2 MSTORE PUSH1 0x20 ADD PUSH0 KECCAK256 PUSH0 DUP3 ADD MLOAD DUP2 PUSH0 ADD SWAP1 DUP2 PUSH2 0x67F SWAP2 SWAP1 PUSH2 0x1E73 JUMP JUMPDEST POP PUSH1 0x20 DUP3 ADD MLOAD DUP2 PUSH1 0x1 ADD PUSH0 PUSH2 0x100 EXP DUP2 SLOAD DUP2 PUSH1 0xFF MUL NOT AND SWAP1 DUP4 ISZERO ISZERO MUL OR SWAP1 SSTORE POP SWAP1 POP POP PUSH1 0x1 PUSH1 0x7 DUP3 PUSH1 0x40 MLOAD PUSH2 0x6B4 SWAP2 SWAP1 PUSH2 0x1A6B JUMP JUMPDEST SWAP1 DUP2 MSTORE PUSH1 0x20 ADD PUSH1 0x40 MLOAD DUP1 SWAP2 SUB SWAP1 KECCAK256 PUSH0 PUSH2 0x100 EXP DUP2 SLOAD DUP2 PUSH1 0xFF MUL NOT AND SWAP1 DUP4 ISZERO ISZERO MUL OR SWAP1 SSTORE POP POP POP POP POP JUMP JUMPDEST PUSH1 0x4 PUSH0 SWAP1 SLOAD SWAP1 PUSH2 0x100 EXP SWAP1 DIV PUSH1 0xFF AND PUSH2 0x72C JUMPI PUSH1 0x40 MLOAD PUSH32 0x8C379A000000000000000000000000000000000000000000000000000000000 DUP2 MSTORE PUSH1 0x4 ADD PUSH2 0x723 SWAP1 PUSH2 0x1F8C JUMP JUMPDEST PUSH1 0x40 MLOAD DUP1 SWAP2 SUB SWAP1 REVERT JUMPDEST PUSH0 DUP3 GT DUP1 ISZERO PUSH2 0x73D JUMPI POP PUSH1 0x1 SLOAD DUP3 GT ISZERO JUMPDEST PUSH2 0x77C JUMPI PUSH1 0x40 MLOAD PUSH32 0x8C379A000000000000000000000000000000000000000000000000000000000 DUP2 MSTORE PUSH1 0x4 ADD PUSH2 0x773 SWAP1 PUSH2 0x1FF4 JUMP JUMPDEST PUSH1 0x40 MLOAD DUP1 SWAP2 SUB SWAP1 REVERT JUMPDEST DUP1 PUSH1 0x40 MLOAD PUSH1 0x20 ADD PUSH2 0x78D SWAP2 SWAP1 PUSH2 0x1A6B JUMP JUMPDEST PUSH1 0x40 MLOAD PUSH1 0x20 DUP2 DUP4 SUB SUB DUP2 MSTORE SWAP1 PUSH1 0x40 MSTORE DUP1 MLOAD SWAP1 PUSH1 0x20 ADD KECCAK256 PUSH1 0x6 PUSH0 CALLER PUSH20 0xFFFFFFFFFFFFFFFFFFFFFFFFFFFFFFFFFFFFFFFF AND PUSH20 0xFFFFFFFFFFFFFFFFFFFFFFFFFFFFFFFFFFFFFFFF AND DUP2 MSTORE PUSH1 0x20 ADD SWAP1 DUP2 MSTORE PUSH1 0x20 ADD PUSH0 KECCAK256 PUSH0 ADD PUSH1 0x40 MLOAD PUSH1 0x20 ADD PUSH2 0x7F2 SWAP2 SWAP1 PUSH2 0x2092 JUMP JUMPDEST PUSH1 0x40 MLOAD PUSH1 0x20 DUP2 DUP4 SUB SUB DUP2 MSTORE SWAP1 PUSH1 0x40 MSTORE DUP1 MLOAD SWAP1 PUSH1 0x20 ADD KECCAK256 EQ PUSH2 0x848 JUMPI PUSH1 0x40 MLOAD PUSH32 0x8C379A000000000000000000000000000000000000000000000000000000000 DUP2 MSTORE PUSH1 0x4 ADD PUSH2 0x83F SWAP1 PUSH2 0x2118 JUMP JUMPDEST PUSH1 0x40 MLOAD DUP1 SWAP2 SUB SWAP1 REVERT JUMPDEST PUSH1 0x6 PUSH0 CALLER PUSH20 0xFFFFFFFFFFFFFFFFFFFFFFFFFFFFFFFFFFFFFFFF AND PUSH20 0xFFFFFFFFFFFFFFFFFFFFFFFFFFFFFFFFFFFFFFFF AND DUP2 MSTORE PUSH1 0x20 ADD SWAP1 DUP2 MSTORE PUSH1 0x20 ADD PUSH0 KECCAK256 PUSH1 0x1 ADD PUSH0 SWAP1 SLOAD SWAP1 PUSH2 0x100 EXP SWAP1 DIV PUSH1 0xFF AND ISZERO PUSH2 0x8D5 JUMPI PUSH1 0x40 MLOAD PUSH32 0x8C379A000000000000000000000000000000000000000000000000000000000 DUP2 MSTORE PUSH1 0x4 ADD PUSH2 0x8CC SWAP1 PUSH2 0x2180 JUMP JUMPDEST PUSH1 0x40 MLOAD DUP1 SWAP2 SUB SWAP1 REVERT JUMPDEST PUSH1 0x5 PUSH0 DUP4 DUP2 MSTORE PUSH1 0x20 ADD SWAP1 DUP2 MSTORE PUSH1 0x20 ADD PUSH0 KECCAK256 PUSH1 0x2 ADD PUSH0 DUP2 SLOAD DUP1 SWAP3 SWAP2 SWAP1 PUSH2 0x8F9 SWAP1 PUSH2 0x1C8F JUMP JUMPDEST SWAP2 SWAP1 POP SSTORE POP PUSH1 0x1 PUSH1 0x6 PUSH0 CALLER PUSH20 0xFFFFFFFFFFFFFFFFFFFFFFFFFFFFFFFFFFFFFFFF AND PUSH20 0xFFFFFFFFFFFFFFFFFFFFFFFFFFFFFFFFFFFFFFFF AND DUP2 MSTORE PUSH1 0x20 ADD SWAP1 DUP2 MSTORE PUSH1 0x20 ADD PUSH0 KECCAK256 PUSH1 0x1 ADD PUSH0 PUSH2 0x100 EXP DUP2 SLOAD DUP2 PUSH1 0xFF MUL NOT AND SWAP1 DUP4 ISZERO ISZERO MUL OR SWAP1 SSTORE POP POP POP JUMP JUMPDEST PUSH1 0x5 PUSH1 0x20 MSTORE DUP1 PUSH0 MSTORE PUSH1 0x40 PUSH0 KECCAK256 PUSH0 SWAP2 POP SWAP1 POP DUP1 PUSH0 ADD DUP1 SLOAD PUSH2 0x979 SWAP1 PUSH2 0x1B16 JUMP JUMPDEST DUP1 PUSH1 0x1F ADD PUSH1 0x20 DUP1 SWAP2 DIV MUL PUSH1 0x20 ADD PUSH1 0x40 MLOAD SWAP1 DUP2 ADD PUSH1 0x40 MSTORE DUP1 SWAP3 SWAP2 SWAP1 DUP2 DUP2 MSTORE PUSH1 0x20 ADD DUP3 DUP1 SLOAD PUSH2 0x9A5 SWAP1 PUSH2 0x1B16 JUMP JUMPDEST DUP1 ISZERO PUSH2 0x9F0 JUMPI DUP1 PUSH1 0x1F LT PUSH2 0x9C7 JUMPI PUSH2 0x100 DUP1 DUP4 SLOAD DIV MUL DUP4 MSTORE SWAP2 PUSH1 0x20 ADD SWAP2 PUSH2 0x9F0 JUMP JUMPDEST DUP3 ADD SWAP2 SWAP1 PUSH0 MSTORE PUSH1 0x20 PUSH0 KECCAK256 SWAP1 JUMPDEST DUP2 SLOAD DUP2 MSTORE SWAP1 PUSH1 0x1 ADD SWAP1 PUSH1 0x20 ADD DUP1 DUP4 GT PUSH2 0x9D3 JUMPI DUP3 SWAP1 SUB PUSH1 0x1F AND DUP3 ADD SWAP2 JUMPDEST POP POP POP POP POP SWAP1 DUP1 PUSH1 0x1 ADD DUP1 SLOAD PUSH2 0xA05 SWAP1 PUSH2 0x1B16 JUMP JUMPDEST DUP1 PUSH1 0x1F ADD PUSH1 0x20 DUP1 SWAP2 DIV MUL PUSH1 0x20 ADD PUSH1 0x40 MLOAD SWAP1 DUP2 ADD PUSH1 0x40 MSTORE DUP1 SWAP3 SWAP2 SWAP1 DUP2 DUP2 MSTORE PUSH1 0x20 ADD DUP3 DUP1 SLOAD PUSH2 0xA31 SWAP1 PUSH2 0x1B16 JUMP JUMPDEST DUP1 ISZERO PUSH2 0xA7C JUMPI DUP1 PUSH1 0x1F LT PUSH2 0xA53 JUMPI PUSH2 0x100 DUP1 DUP4 SLOAD DIV MUL DUP4 MSTORE SWAP2 PUSH1 0x20 ADD SWAP2 PUSH2 0xA7C JUMP JUMPDEST DUP3 ADD SWAP2 SWAP1 PUSH0 MSTORE PUSH1 0x20 PUSH0 KECCAK256 SWAP1 JUMPDEST DUP2 SLOAD DUP2 MSTORE SWAP1 PUSH1 0x1 ADD SWAP1 PUSH1 0x20 ADD DUP1 DUP4 GT PUSH2 0xA5F JUMPI DUP3 SWAP1 SUB PUSH1 0x1F AND DUP3 ADD SWAP2 JUMPDEST POP POP POP POP POP SWAP1 DUP1 PUSH1 0x2 ADD SLOAD SWAP1 DUP1 PUSH1 0x3 ADD DUP1 SLOAD PUSH2 0xA97 SWAP1 PUSH2 0x1B16 JUMP JUMPDEST DUP1 PUSH1 0x1F ADD PUSH1 0x20 DUP1 SWAP2 DIV MUL PUSH1 0x20 ADD PUSH1 0x40 MLOAD SWAP1 DUP2 ADD PUSH1 0x40 MSTORE DUP1 SWAP3 SWAP2 SWAP1 DUP2 DUP2 MSTORE PUSH1 0x20 ADD DUP3 DUP1 SLOAD PUSH2 0xAC3 SWAP1 PUSH2 0x1B16 JUMP JUMPDEST DUP1 ISZERO PUSH2 0xB0E JUMPI DUP1 PUSH1 0x1F LT PUSH2 0xAE5 JUMPI PUSH2 0x100 DUP1 DUP4 SLOAD DIV MUL DUP4 MSTORE SWAP2 PUSH1 0x20 ADD SWAP2 PUSH2 0xB0E JUMP JUMPDEST DUP3 ADD SWAP2 SWAP1 PUSH0 MSTORE PUSH1 0x20 PUSH0 KECCAK256 SWAP1 JUMPDEST DUP2 SLOAD DUP2 MSTORE SWAP1 PUSH1 0x1 ADD SWAP1 PUSH1 0x20 ADD DUP1 DUP4 GT PUSH2 0xAF1 JUMPI DUP3 SWAP1 SUB PUSH1 0x1F AND DUP3 ADD SWAP2 JUMPDEST POP POP POP POP POP SWAP1 POP DUP5 JUMP JUMPDEST PUSH1 0x2 SLOAD DUP2 JUMP JUMPDEST PUSH0 DUP1 SLOAD SWAP1 PUSH2 0x100 EXP SWAP1 DIV PUSH20 0xFFFFFFFFFFFFFFFFFFFFFFFFFFFFFFFFFFFFFFFF AND PUSH20 0xFFFFFFFFFFFFFFFFFFFFFFFFFFFFFFFFFFFFFFFF AND CALLER PUSH20 0xFFFFFFFFFFFFFFFFFFFFFFFFFFFFFFFFFFFFFFFF AND EQ PUSH2 0xBAB JUMPI PUSH1 0x40 MLOAD PUSH32 0x8C379A000000000000000000000000000000000000000000000000000000000 DUP2 MSTORE PUSH1 0x4 ADD PUSH2 0xBA2 SWAP1 PUSH2 0x1985 JUMP JUMPDEST PUSH1 0x40 MLOAD DUP1 SWAP2 SUB SWAP1 REVERT JUMPDEST PUSH0 DUP2 GT PUSH2 0xBED JUMPI PUSH1 0x40 MLOAD PUSH32 0x8C379A000000000000000000000000000000000000000000000000000000000 DUP2 MSTORE PUSH1 0x4 ADD PUSH2 0xBE4 SWAP1 PUSH2 0x21E8 JUMP JUMPDEST PUSH1 0x40 MLOAD DUP1 SWAP2 SUB SWAP1 REVERT JUMPDEST DUP1 PUSH1 0x3 DUP2 SWAP1 SSTORE POP POP JUMP JUMPDEST PUSH1 0x3 SLOAD DUP2 JUMP JUMPDEST PUSH1 0x60 PUSH0 PUSH1 0x4 PUSH0 SWAP1 SLOAD SWAP1 PUSH2 0x100 EXP SWAP1 DIV PUSH1 0xFF AND ISZERO PUSH2 0xC4F JUMPI PUSH1 0x40 MLOAD PUSH32 0x8C379A000000000000000000000000000000000000000000000000000000000 DUP2 MSTORE PUSH1 0x4 ADD PUSH2 0xC46 SWAP1 PUSH2 0x2250 JUMP JUMPDEST PUSH1 0x40 MLOAD DUP1 SWAP2 SUB SWAP1 REVERT JUMPDEST PUSH0 PUSH1 0x1 SLOAD GT PUSH2 0xC93 JUMPI PUSH1 0x40 MLOAD PUSH32 0x8C379A000000000000000000000000000000000000000000000000000000000 DUP2 MSTORE PUSH1 0x4 ADD PUSH2 0xC8A SWAP1 PUSH2 0x22DE JUMP JUMPDEST PUSH1 0x40 MLOAD DUP1 SWAP2 SUB SWAP1 REVERT JUMPDEST PUSH0 DUP1 PUSH0 PUSH1 0x1 SWAP1 POP JUMPDEST PUSH1 0x1 SLOAD DUP2 GT PUSH2 0xCEE JUMPI DUP3 PUSH1 0x5 PUSH0 DUP4 DUP2 MSTORE PUSH1 0x20 ADD SWAP1 DUP2 MSTORE PUSH1 0x20 ADD PUSH0 KECCAK256 PUSH1 0x2 ADD SLOAD GT ISZERO PUSH2 0xCDB JUMPI PUSH1 0x5 PUSH0 DUP3 DUP2 MSTORE PUSH1 0x20 ADD SWAP1 DUP2 MSTORE PUSH1 0x20 ADD PUSH0 KECCAK256 PUSH1 0x2 ADD SLOAD SWAP3 POP DUP1 SWAP2 POP JUMPDEST DUP1 DUP1 PUSH2 0xCE6 SWAP1 PUSH2 0x1C8F JUMP JUMPDEST SWAP2 POP POP PUSH2 0xC9B JUMP JUMPDEST POP PUSH1 0x5 PUSH0 DUP3 DUP2 MSTORE PUSH1 0x20 ADD SWAP1 DUP2 MSTORE PUSH1 0x20 ADD PUSH0 KECCAK256 PUSH0 ADD DUP1 SLOAD PUSH2 0xD0D SWAP1 PUSH2 0x1B16 JUMP JUMPDEST DUP1 PUSH1 0x1F ADD PUSH1 0x20 DUP1 SWAP2 DIV MUL PUSH1 0x20 ADD PUSH1 0x40 MLOAD SWAP1 DUP2 ADD PUSH1 0x40 MSTORE DUP1 SWAP3 SWAP2 SWAP1 DUP2 DUP2 MSTORE PUSH1 0x20 ADD DUP3 DUP1 SLOAD PUSH2 0xD39 SWAP1 PUSH2 0x1B16 JUMP JUMPDEST DUP1 ISZERO PUSH2 0xD84 JUMPI DUP1 PUSH1 0x1F LT PUSH2 0xD5B JUMPI PUSH2 0x100 DUP1 DUP4 SLOAD DIV MUL DUP4 MSTORE SWAP2 PUSH1 0x20 ADD SWAP2 PUSH2 0xD84 JUMP JUMPDEST DUP3 ADD SWAP2 SWAP1 PUSH0 MSTORE PUSH1 0x20 PUSH0 KECCAK256 SWAP1 JUMPDEST DUP2 SLOAD DUP2 MSTORE SWAP1 PUSH1 0x1 ADD SWAP1 PUSH1 0x20 ADD DUP1 DUP4 GT PUSH2 0xD67 JUMPI DUP3 SWAP1 SUB PUSH1 0x1F AND DUP3 ADD SWAP2 JUMPDEST POP POP POP POP POP SWAP4 POP PUSH1 0x5 PUSH0 DUP3 DUP2 MSTORE PUSH1 0x20 ADD SWAP1 DUP2 MSTORE PUSH1 0x20 ADD PUSH0 KECCAK256 PUSH1 0x2 ADD SLOAD SWAP3 POP POP POP SWAP1 SWAP2 JUMP JUMPDEST PUSH1 0x6 PUSH1 0x20 MSTORE DUP1 PUSH0 MSTORE PUSH1 0x40 PUSH0 KECCAK256 PUSH0 SWAP2 POP SWAP1 POP DUP1 PUSH0 ADD DUP1 SLOAD PUSH2 0xDC7 SWAP1 PUSH2 0x1B16 JUMP JUMPDEST DUP1 PUSH1 0x1F ADD PUSH1 0x20 DUP1 SWAP2 DIV MUL PUSH1 0x20 ADD PUSH1 0x40 MLOAD SWAP1 DUP2 ADD PUSH1 0x40 MSTORE DUP1 SWAP3 SWAP2 SWAP1 DUP2 DUP2 MSTORE PUSH1 0x20 ADD DUP3 DUP1 SLOAD PUSH2 0xDF3 SWAP1 PUSH2 0x1B16 JUMP JUMPDEST DUP1 ISZERO PUSH2 0xE3E JUMPI DUP1 PUSH1 0x1F LT PUSH2 0xE15 JUMPI PUSH2 0x100 DUP1 DUP4 SLOAD DIV MUL DUP4 MSTORE SWAP2 PUSH1 0x20 ADD SWAP2 PUSH2 0xE3E JUMP JUMPDEST DUP3 ADD SWAP2 SWAP1 PUSH0 MSTORE PUSH1 0x20 PUSH0 KECCAK256 SWAP1 JUMPDEST DUP2 SLOAD DUP2 MSTORE SWAP1 PUSH1 0x1 ADD SWAP1 PUSH1 0x20 ADD DUP1 DUP4 GT PUSH2 0xE21 JUMPI DUP3 SWAP1 SUB PUSH1 0x1F AND DUP3 ADD SWAP2 JUMPDEST POP POP POP POP POP SWAP1 DUP1 PUSH1 0x1 ADD PUSH0 SWAP1 SLOAD SWAP1 PUSH2 0x100 EXP SWAP1 DIV PUSH1 0xFF AND SWAP1 POP DUP3 JUMP JUMPDEST PUSH1 0x4 PUSH0 SWAP1 SLOAD SWAP1 PUSH2 0x100 EXP SWAP1 DIV PUSH1 0xFF AND DUP2 JUMP JUMPDEST PUSH1 0x1 SLOAD DUP2 JUMP JUMPDEST PUSH0 DUP1 SLOAD SWAP1 PUSH2 0x100 EXP SWAP1 DIV PUSH20 0xFFFFFFFFFFFFFFFFFFFFFFFFFFFFFFFFFFFFFFFF AND PUSH20 0xFFFFFFFFFFFFFFFFFFFFFFFFFFFFFFFFFFFFFFFF AND CALLER PUSH20 0xFFFFFFFFFFFFFFFFFFFFFFFFFFFFFFFFFFFFFFFF AND EQ PUSH2 0xEFF JUMPI PUSH1 0x40 MLOAD PUSH32 0x8C379A000000000000000000000000000000000000000000000000000000000 DUP2 MSTORE PUSH1 0x4 ADD PUSH2 0xEF6 SWAP1 PUSH2 0x1985 JUMP JUMPDEST PUSH1 0x40 MLOAD DUP1 SWAP2 SUB SWAP1 REVERT JUMPDEST PUSH1 0x4 PUSH0 SWAP1 SLOAD SWAP1 PUSH2 0x100 EXP SWAP1 DIV PUSH1 0xFF AND PUSH2 0xF4D JUMPI PUSH1 0x40 MLOAD PUSH32 0x8C379A000000000000000000000000000000000000000000000000000000000 DUP2 MSTORE PUSH1 0x4 ADD PUSH2 0xF44 SWAP1 PUSH2 0x2346 JUMP JUMPDEST PUSH1 0x40 MLOAD DUP1 SWAP2 SUB SWAP1 REVERT JUMPDEST PUSH0 PUSH1 0x4 PUSH0 PUSH2 0x100 EXP DUP2 SLOAD DUP2 PUSH1 0xFF MUL NOT AND SWAP1 DUP4 ISZERO ISZERO MUL OR SWAP1 SSTORE POP JUMP JUMPDEST PUSH1 0x7 DUP2 DUP1 MLOAD PUSH1 0x20 DUP2 ADD DUP3 ADD DUP1 MLOAD DUP5 DUP3 MSTORE PUSH1 0x20 DUP4 ADD PUSH1 0x20 DUP6 ADD KECCAK256 DUP2 DUP4 MSTORE DUP1 SWAP6 POP POP POP POP POP POP PUSH0 SWAP2 POP SLOAD SWAP1 PUSH2 0x100 EXP SWAP1 DIV PUSH1 0xFF AND DUP2 JUMP JUMPDEST PUSH0 DUP1 SLOAD SWAP1 PUSH2 0x100 EXP SWAP1 DIV PUSH20 0xFFFFFFFFFFFFFFFFFFFFFFFFFFFFFFFFFFFFFFFF AND PUSH20 0xFFFFFFFFFFFFFFFFFFFFFFFFFFFFFFFFFFFFFFFF AND CALLER PUSH20 0xFFFFFFFFFFFFFFFFFFFFFFFFFFFFFFFFFFFFFFFF AND EQ PUSH2 0x102A JUMPI PUSH1 0x40 MLOAD PUSH32 0x8C379A000000000000000000000000000000000000000000000000000000000 DUP2 MSTORE PUSH1 0x4 ADD PUSH2 0x1021 SWAP1 PUSH2 0x1985 JUMP JUMPDEST PUSH1 0x40 MLOAD DUP1 SWAP2 SUB SWAP1 REVERT JUMPDEST PUSH1 0x3 SLOAD PUSH1 0x2 SLOAD LT PUSH2 0x1070 JUMPI PUSH1 0x40 MLOAD PUSH32 0x8C379A000000000000000000000000000000000000000000000000000000000 DUP2 MSTORE PUSH1 0x4 ADD PUSH2 0x1067 SWAP1 PUSH2 0x23D4 JUMP JUMPDEST PUSH1 0x40 MLOAD DUP1 SWAP2 SUB SWAP1 REVERT JUMPDEST PUSH1 0x7 DUP2 PUSH1 0x40 MLOAD PUSH2 0x1080 SWAP2 SWAP1 PUSH2 0x1A6B JUMP JUMPDEST SWAP1 DUP2 MSTORE PUSH1 0x20 ADD PUSH1 0x40 MLOAD DUP1 SWAP2 SUB SWAP1 KECCAK256 PUSH0 SWAP1 SLOAD SWAP1 PUSH2 0x100 EXP SWAP1 DIV PUSH1 0xFF AND ISZERO PUSH2 0x10DB JUMPI PUSH1 0x40 MLOAD PUSH32 0x8C379A000000000000000000000000000000000000000000000000000000000 DUP2 MSTORE PUSH1 0x4 ADD PUSH2 0x10D2 SWAP1 PUSH2 0x243C JUMP JUMPDEST PUSH1 0x40 MLOAD DUP1 SWAP2 SUB SWAP1 REVERT JUMPDEST PUSH0 PUSH1 0x6 PUSH0 DUP5 PUSH20 0xFFFFFFFFFFFFFFFFFFFFFFFFFFFFFFFFFFFFFFFF AND PUSH20 0xFFFFFFFFFFFFFFFFFFFFFFFFFFFFFFFFFFFFFFFF AND DUP2 MSTORE PUSH1 0x20 ADD SWAP1 DUP2 MSTORE PUSH1 0x20 ADD PUSH0 KECCAK256 PUSH0 ADD DUP1 SLOAD PUSH2 0x1126 SWAP1 PUSH2 0x1B16 JUMP JUMPDEST SWAP1 POP EQ PUSH2 0x1168 JUMPI PUSH1 0x40 MLOAD PUSH32 0x8C379A000000000000000000000000000000000000000000000000000000000 DUP2 MSTORE PUSH1 0x4 ADD PUSH2 0x115F SWAP1 PUSH2 0x24CA JUMP JUMPDEST PUSH1 0x40 MLOAD DUP1 SWAP2 SUB SWAP1 REVERT JUMPDEST PUSH2 0x1171 DUP2 PUSH2 0x12AE JUMP JUMPDEST PUSH2 0x11B0 JUMPI PUSH1 0x40 MLOAD PUSH32 0x8C379A000000000000000000000000000000000000000000000000000000000 DUP2 MSTORE PUSH1 0x4 ADD PUSH2 0x11A7 SWAP1 PUSH2 0x2558 JUMP JUMPDEST PUSH1 0x40 MLOAD DUP1 SWAP2 SUB SWAP1 REVERT JUMPDEST PUSH1 0x40 MLOAD DUP1 PUSH1 0x40 ADD PUSH1 0x40 MSTORE DUP1 DUP3 DUP2 MSTORE PUSH1 0x20 ADD PUSH0 ISZERO ISZERO DUP2 MSTORE POP PUSH1 0x6 PUSH0 DUP5 PUSH20 0xFFFFFFFFFFFFFFFFFFFFFFFFFFFFFFFFFFFFFFFF AND PUSH20 0xFFFFFFFFFFFFFFFFFFFFFFFFFFFFFFFFFFFFFFFF AND DUP2 MSTORE PUSH1 0x20 ADD SWAP1 DUP2 MSTORE PUSH1 0x20 ADD PUSH0 KECCAK256 PUSH0 DUP3 ADD MLOAD DUP2 PUSH0 ADD SWAP1 DUP2 PUSH2 0x1217 SWAP2 SWAP1 PUSH2 0x1E73 JUMP JUMPDEST POP PUSH1 0x20 DUP3 ADD MLOAD DUP2 PUSH1 0x1 ADD PUSH0 PUSH2 0x100 EXP DUP2 SLOAD DUP2 PUSH1 0xFF MUL NOT AND SWAP1 DUP4 ISZERO ISZERO MUL OR SWAP1 SSTORE POP SWAP1 POP POP PUSH1 0x1 PUSH1 0x7 DUP3 PUSH1 0x40 MLOAD PUSH2 0x124C SWAP2 SWAP1 PUSH2 0x1A6B JUMP JUMPDEST SWAP1 DUP2 MSTORE PUSH1 0x20 ADD PUSH1 0x40 MLOAD DUP1 SWAP2 SUB SWAP1 KECCAK256 PUSH0 PUSH2 0x100 EXP DUP2 SLOAD DUP2 PUSH1 0xFF MUL NOT AND SWAP1 DUP4 ISZERO ISZERO MUL OR SWAP1 SSTORE POP PUSH1 0x2 PUSH0 DUP2 SLOAD DUP1 SWAP3 SWAP2 SWAP1 PUSH2 0x1282 SWAP1 PUSH2 0x1C8F JUMP JUMPDEST SWAP2 SWAP1 POP SSTORE POP POP POP JUMP JUMPDEST PUSH0 DUP1 SLOAD SWAP1 PUSH2 0x100 EXP SWAP1 DIV PUSH20 0xFFFFFFFFFFFFFFFFFFFFFFFFFFFFFFFFFFFFFFFF AND DUP2 JUMP JUMPDEST PUSH0 DUP1 DUP3 SWAP1 POP PUSH1 0x7 DUP2 MLOAD EQ PUSH2 0x12C5 JUMPI PUSH0 SWAP2 POP POP PUSH2 0x1396 JUMP JUMPDEST PUSH32 0x3200000000000000000000000000000000000000000000000000000000000000 DUP2 PUSH0 DUP2 MLOAD DUP2 LT PUSH2 0x12F9 JUMPI PUSH2 0x12F8 PUSH2 0x2576 JUMP JUMPDEST JUMPDEST PUSH1 0x20 ADD ADD MLOAD PUSH1 0xF8 SHR PUSH1 0xF8 SHL PUSH31 0xFFFFFFFFFFFFFFFFFFFFFFFFFFFFFFFFFFFFFFFFFFFFFFFFFFFFFFFFFFFFFF NOT AND EQ DUP1 ISZERO PUSH2 0x1392 JUMPI POP PUSH32 0x3200000000000000000000000000000000000000000000000000000000000000 DUP2 PUSH1 0x1 DUP2 MLOAD DUP2 LT PUSH2 0x1363 JUMPI PUSH2 0x1362 PUSH2 0x2576 JUMP JUMPDEST JUMPDEST PUSH1 0x20 ADD ADD MLOAD PUSH1 0xF8 SHR PUSH1 0xF8 SHL PUSH31 0xFFFFFFFFFFFFFFFFFFFFFFFFFFFFFFFFFFFFFFFFFFFFFFFFFFFFFFFFFFFFFF NOT AND EQ JUMPDEST SWAP2 POP POP JUMPDEST SWAP2 SWAP1 POP JUMP JUMPDEST PUSH0 PUSH1 0x40 MLOAD SWAP1 POP SWAP1 JUMP JUMPDEST PUSH0 DUP1 REVERT JUMPDEST PUSH0 DUP1 REVERT JUMPDEST PUSH0 PUSH20 0xFFFFFFFFFFFFFFFFFFFFFFFFFFFFFFFFFFFFFFFF DUP3 AND SWAP1 POP SWAP2 SWAP1 POP JUMP JUMPDEST PUSH0 PUSH2 0x13D5 DUP3 PUSH2 0x13AC JUMP JUMPDEST SWAP1 POP SWAP2 SWAP1 POP JUMP JUMPDEST PUSH2 0x13E5 DUP2 PUSH2 0x13CB JUMP JUMPDEST DUP2 EQ PUSH2 0x13EF JUMPI PUSH0 DUP1 REVERT JUMPDEST POP JUMP JUMPDEST PUSH0 DUP2 CALLDATALOAD SWAP1 POP PUSH2 0x1400 DUP2 PUSH2 0x13DC JUMP JUMPDEST SWAP3 SWAP2 POP POP JUMP JUMPDEST PUSH0 DUP1 REVERT JUMPDEST PUSH0 DUP1 REVERT JUMPDEST PUSH0 PUSH1 0x1F NOT PUSH1 0x1F DUP4 ADD AND SWAP1 POP SWAP2 SWAP1 POP JUMP JUMPDEST PUSH32 0x4E487B7100000000000000000000000000000000000000000000000000000000 PUSH0 MSTORE PUSH1 0x41 PUSH1 0x4 MSTORE PUSH1 0x24 PUSH0 REVERT JUMPDEST PUSH2 0x1454 DUP3 PUSH2 0x140E JUMP JUMPDEST DUP2 ADD DUP2 DUP2 LT PUSH8 0xFFFFFFFFFFFFFFFF DUP3 GT OR ISZERO PUSH2 0x1473 JUMPI PUSH2 0x1472 PUSH2 0x141E JUMP JUMPDEST JUMPDEST DUP1 PUSH1 0x40 MSTORE POP POP POP JUMP JUMPDEST PUSH0 PUSH2 0x1485 PUSH2 0x139B JUMP JUMPDEST SWAP1 POP PUSH2 0x1491 DUP3 DUP3 PUSH2 0x144B JUMP JUMPDEST SWAP2 SWAP1 POP JUMP JUMPDEST PUSH0 PUSH8 0xFFFFFFFFFFFFFFFF DUP3 GT ISZERO PUSH2 0x14B0 JUMPI PUSH2 0x14AF PUSH2 0x141E JUMP JUMPDEST JUMPDEST PUSH2 0x14B9 DUP3 PUSH2 0x140E JUMP JUMPDEST SWAP1 POP PUSH1 0x20 DUP2 ADD SWAP1 POP SWAP2 SWAP1 POP JUMP JUMPDEST DUP3 DUP2 DUP4 CALLDATACOPY PUSH0 DUP4 DUP4 ADD MSTORE POP POP POP JUMP JUMPDEST PUSH0 PUSH2 0x14E6 PUSH2 0x14E1 DUP5 PUSH2 0x1496 JUMP JUMPDEST PUSH2 0x147C JUMP JUMPDEST SWAP1 POP DUP3 DUP2 MSTORE PUSH1 0x20 DUP2 ADD DUP5 DUP5 DUP5 ADD GT ISZERO PUSH2 0x1502 JUMPI PUSH2 0x1501 PUSH2 0x140A JUMP JUMPDEST JUMPDEST PUSH2 0x150D DUP5 DUP3 DUP6 PUSH2 0x14C6 JUMP JUMPDEST POP SWAP4 SWAP3 POP POP POP JUMP JUMPDEST PUSH0 DUP3 PUSH1 0x1F DUP4 ADD SLT PUSH2 0x1529 JUMPI PUSH2 0x1528 PUSH2 0x1406 JUMP JUMPDEST JUMPDEST DUP2 CALLDATALOAD PUSH2 0x1539 DUP5 DUP3 PUSH1 0x20 DUP7 ADD PUSH2 0x14D4 JUMP JUMPDEST SWAP2 POP POP SWAP3 SWAP2 POP POP JUMP JUMPDEST PUSH0 DUP1 PUSH0 DUP1 PUSH1 0x80 DUP6 DUP8 SUB SLT ISZERO PUSH2 0x155A JUMPI PUSH2 0x1559 PUSH2 0x13A4 JUMP JUMPDEST JUMPDEST PUSH0 PUSH2 0x1567 DUP8 DUP3 DUP9 ADD PUSH2 0x13F2 JUMP JUMPDEST SWAP5 POP POP PUSH1 0x20 DUP6 ADD CALLDATALOAD PUSH8 0xFFFFFFFFFFFFFFFF DUP2 GT ISZERO PUSH2 0x1588 JUMPI PUSH2 0x1587 PUSH2 0x13A8 JUMP JUMPDEST JUMPDEST PUSH2 0x1594 DUP8 DUP3 DUP9 ADD PUSH2 0x1515 JUMP JUMPDEST SWAP4 POP POP PUSH1 0x40 DUP6 ADD CALLDATALOAD PUSH8 0xFFFFFFFFFFFFFFFF DUP2 GT ISZERO PUSH2 0x15B5 JUMPI PUSH2 0x15B4 PUSH2 0x13A8 JUMP JUMPDEST JUMPDEST PUSH2 0x15C1 DUP8 DUP3 DUP9 ADD PUSH2 0x1515 JUMP JUMPDEST SWAP3 POP POP PUSH1 0x60 DUP6 ADD CALLDATALOAD PUSH8 0xFFFFFFFFFFFFFFFF DUP2 GT ISZERO PUSH2 0x15E2 JUMPI PUSH2 0x15E1 PUSH2 0x13A8 JUMP JUMPDEST JUMPDEST PUSH2 0x15EE DUP8 DUP3 DUP9 ADD PUSH2 0x1515 JUMP JUMPDEST SWAP2 POP POP SWAP3 SWAP6 SWAP2 SWAP5 POP SWAP3 POP JUMP JUMPDEST PUSH0 DUP2 SWAP1 POP SWAP2 SWAP1 POP JUMP JUMPDEST PUSH2 0x160C DUP2 PUSH2 0x15FA JUMP JUMPDEST DUP2 EQ PUSH2 0x1616 JUMPI PUSH0 DUP1 REVERT JUMPDEST POP JUMP JUMPDEST PUSH0 DUP2 CALLDATALOAD SWAP1 POP PUSH2 0x1627 DUP2 PUSH2 0x1603 JUMP JUMPDEST SWAP3 SWAP2 POP POP JUMP JUMPDEST PUSH0 DUP1 PUSH1 0x40 DUP4 DUP6 SUB SLT ISZERO PUSH2 0x1643 JUMPI PUSH2 0x1642 PUSH2 0x13A4 JUMP JUMPDEST JUMPDEST PUSH0 PUSH2 0x1650 DUP6 DUP3 DUP7 ADD PUSH2 0x1619 JUMP JUMPDEST SWAP3 POP POP PUSH1 0x20 DUP4 ADD CALLDATALOAD PUSH8 0xFFFFFFFFFFFFFFFF DUP2 GT ISZERO PUSH2 0x1671 JUMPI PUSH2 0x1670 PUSH2 0x13A8 JUMP JUMPDEST JUMPDEST PUSH2 0x167D DUP6 DUP3 DUP7 ADD PUSH2 0x1515 JUMP JUMPDEST SWAP2 POP POP SWAP3 POP SWAP3 SWAP1 POP JUMP JUMPDEST PUSH0 PUSH1 0x20 DUP3 DUP5 SUB SLT ISZERO PUSH2 0x169C JUMPI PUSH2 0x169B PUSH2 0x13A4 JUMP JUMPDEST JUMPDEST PUSH0 PUSH2 0x16A9 DUP5 DUP3 DUP6 ADD PUSH2 0x1619 JUMP JUMPDEST SWAP2 POP POP SWAP3 SWAP2 POP POP JUMP JUMPDEST PUSH0 DUP2 MLOAD SWAP1 POP SWAP2 SWAP1 POP JUMP JUMPDEST PUSH0 DUP3 DUP3 MSTORE PUSH1 0x20 DUP3 ADD SWAP1 POP SWAP3 SWAP2 POP POP JUMP JUMPDEST DUP3 DUP2 DUP4 MCOPY PUSH0 DUP4 DUP4 ADD MSTORE POP POP POP JUMP JUMPDEST PUSH0 PUSH2 0x16E4 DUP3 PUSH2 0x16B2 JUMP JUMPDEST PUSH2 0x16EE DUP2 DUP6 PUSH2 0x16BC JUMP JUMPDEST SWAP4 POP PUSH2 0x16FE DUP2 DUP6 PUSH1 0x20 DUP7 ADD PUSH2 0x16CC JUMP JUMPDEST PUSH2 0x1707 DUP2 PUSH2 0x140E JUMP JUMPDEST DUP5 ADD SWAP2 POP POP SWAP3 SWAP2 POP POP JUMP JUMPDEST PUSH2 0x171B DUP2 PUSH2 0x15FA JUMP JUMPDEST DUP3 MSTORE POP POP JUMP JUMPDEST PUSH0 PUSH1 0x80 DUP3 ADD SWAP1 POP DUP2 DUP2 SUB PUSH0 DUP4 ADD MSTORE PUSH2 0x1739 DUP2 DUP8 PUSH2 0x16DA JUMP JUMPDEST SWAP1 POP DUP2 DUP2 SUB PUSH1 0x20 DUP4 ADD MSTORE PUSH2 0x174D DUP2 DUP7 PUSH2 0x16DA JUMP JUMPDEST SWAP1 POP PUSH2 0x175C PUSH1 0x40 DUP4 ADD DUP6 PUSH2 0x1712 JUMP JUMPDEST DUP2 DUP2 SUB PUSH1 0x60 DUP4 ADD MSTORE PUSH2 0x176E DUP2 DUP5 PUSH2 0x16DA JUMP JUMPDEST SWAP1 POP SWAP6 SWAP5 POP POP POP POP POP JUMP JUMPDEST PUSH0 PUSH1 0x20 DUP3 ADD SWAP1 POP PUSH2 0x178C PUSH0 DUP4 ADD DUP5 PUSH2 0x1712 JUMP JUMPDEST SWAP3 SWAP2 POP POP JUMP JUMPDEST PUSH0 PUSH1 0x40 DUP3 ADD SWAP1 POP DUP2 DUP2 SUB PUSH0 DUP4 ADD MSTORE PUSH2 0x17AA DUP2 DUP6 PUSH2 0x16DA JUMP JUMPDEST SWAP1 POP PUSH2 0x17B9 PUSH1 0x20 DUP4 ADD DUP5 PUSH2 0x1712 JUMP JUMPDEST SWAP4 SWAP3 POP POP POP JUMP JUMPDEST PUSH0 PUSH1 0x20 DUP3 DUP5 SUB SLT ISZERO PUSH2 0x17D5 JUMPI PUSH2 0x17D4 PUSH2 0x13A4 JUMP JUMPDEST JUMPDEST PUSH0 PUSH2 0x17E2 DUP5 DUP3 DUP6 ADD PUSH2 0x13F2 JUMP JUMPDEST SWAP2 POP POP SWAP3 SWAP2 POP POP JUMP JUMPDEST PUSH0 DUP2 ISZERO ISZERO SWAP1 POP SWAP2 SWAP1 POP JUMP JUMPDEST PUSH2 0x17FF DUP2 PUSH2 0x17EB JUMP JUMPDEST DUP3 MSTORE POP POP JUMP JUMPDEST PUSH0 PUSH1 0x40 DUP3 ADD SWAP1 POP DUP2 DUP2 SUB PUSH0 DUP4 ADD MSTORE PUSH2 0x181D DUP2 DUP6 PUSH2 0x16DA JUMP JUMPDEST SWAP1 POP PUSH2 0x182C PUSH1 0x20 DUP4 ADD DUP5 PUSH2 0x17F6 JUMP JUMPDEST SWAP4 SWAP3 POP POP POP JUMP JUMPDEST PUSH0 PUSH1 0x20 DUP3 ADD SWAP1 POP PUSH2 0x1846 PUSH0 DUP4 ADD DUP5 PUSH2 0x17F6 JUMP JUMPDEST SWAP3 SWAP2 POP POP JUMP JUMPDEST PUSH0 PUSH1 0x20 DUP3 DUP5 SUB SLT ISZERO PUSH2 0x1861 JUMPI PUSH2 0x1860 PUSH2 0x13A4 JUMP JUMPDEST JUMPDEST PUSH0 DUP3 ADD CALLDATALOAD PUSH8 0xFFFFFFFFFFFFFFFF DUP2 GT ISZERO PUSH2 0x187E JUMPI PUSH2 0x187D PUSH2 0x13A8 JUMP JUMPDEST JUMPDEST PUSH2 0x188A DUP5 DUP3 DUP6 ADD PUSH2 0x1515 JUMP JUMPDEST SWAP2 POP POP SWAP3 SWAP2 POP POP JUMP JUMPDEST PUSH0 DUP1 PUSH1 0x40 DUP4 DUP6 SUB SLT ISZERO PUSH2 0x18A9 JUMPI PUSH2 0x18A8 PUSH2 0x13A4 JUMP JUMPDEST JUMPDEST PUSH0 PUSH2 0x18B6 DUP6 DUP3 DUP7 ADD PUSH2 0x13F2 JUMP JUMPDEST SWAP3 POP POP PUSH1 0x20 DUP4 ADD CALLDATALOAD PUSH8 0xFFFFFFFFFFFFFFFF DUP2 GT ISZERO PUSH2 0x18D7 JUMPI PUSH2 0x18D6 PUSH2 0x13A8 JUMP JUMPDEST JUMPDEST PUSH2 0x18E3 DUP6 DUP3 DUP7 ADD PUSH2 0x1515 JUMP JUMPDEST SWAP2 POP POP SWAP3 POP SWAP3 SWAP1 POP JUMP JUMPDEST PUSH2 0x18F6 DUP2 PUSH2 0x13CB JUMP JUMPDEST DUP3 MSTORE POP POP JUMP JUMPDEST PUSH0 PUSH1 0x20 DUP3 ADD SWAP1 POP PUSH2 0x190F PUSH0 DUP4 ADD DUP5 PUSH2 0x18ED JUMP JUMPDEST SWAP3 SWAP2 POP POP JUMP JUMPDEST PUSH32 0x4F6E6C792061646D696E2063616E20706572666F726D20746869732061637469 PUSH0 DUP3 ADD MSTORE PUSH32 0x6F6E000000000000000000000000000000000000000000000000000000000000 PUSH1 0x20 DUP3 ADD MSTORE POP JUMP JUMPDEST PUSH0 PUSH2 0x196F PUSH1 0x22 DUP4 PUSH2 0x16BC JUMP JUMPDEST SWAP2 POP PUSH2 0x197A DUP3 PUSH2 0x1915 JUMP JUMPDEST PUSH1 0x40 DUP3 ADD SWAP1 POP SWAP2 SWAP1 POP JUMP JUMPDEST PUSH0 PUSH1 0x20 DUP3 ADD SWAP1 POP DUP2 DUP2 SUB PUSH0 DUP4 ADD MSTORE PUSH2 0x199C DUP2 PUSH2 0x1963 JUMP JUMPDEST SWAP1 POP SWAP2 SWAP1 POP JUMP JUMPDEST PUSH32 0x4174206C656173742074776F2063616E64696461746573206172652072657175 PUSH0 DUP3 ADD MSTORE PUSH32 0x6972656420746F20737461727420766F74696E67000000000000000000000000 PUSH1 0x20 DUP3 ADD MSTORE POP JUMP JUMPDEST PUSH0 PUSH2 0x19FD PUSH1 0x34 DUP4 PUSH2 0x16BC JUMP JUMPDEST SWAP2 POP PUSH2 0x1A08 DUP3 PUSH2 0x19A3 JUMP JUMPDEST PUSH1 0x40 DUP3 ADD SWAP1 POP SWAP2 SWAP1 POP JUMP JUMPDEST PUSH0 PUSH1 0x20 DUP3 ADD SWAP1 POP DUP2 DUP2 SUB PUSH0 DUP4 ADD MSTORE PUSH2 0x1A2A DUP2 PUSH2 0x19F1 JUMP JUMPDEST SWAP1 POP SWAP2 SWAP1 POP JUMP JUMPDEST PUSH0 DUP2 SWAP1 POP SWAP3 SWAP2 POP POP JUMP JUMPDEST PUSH0 PUSH2 0x1A45 DUP3 PUSH2 0x16B2 JUMP JUMPDEST PUSH2 0x1A4F DUP2 DUP6 PUSH2 0x1A31 JUMP JUMPDEST SWAP4 POP PUSH2 0x1A5F DUP2 DUP6 PUSH1 0x20 DUP7 ADD PUSH2 0x16CC JUMP JUMPDEST DUP1 DUP5 ADD SWAP2 POP POP SWAP3 SWAP2 POP POP JUMP JUMPDEST PUSH0 PUSH2 0x1A76 DUP3 DUP5 PUSH2 0x1A3B JUMP JUMPDEST SWAP2 POP DUP2 SWAP1 POP SWAP3 SWAP2 POP POP JUMP JUMPDEST PUSH32 0x43616E64696461746520697320616C7265616479207265676973746572656400 PUSH0 DUP3 ADD MSTORE POP JUMP JUMPDEST PUSH0 PUSH2 0x1AB5 PUSH1 0x1F DUP4 PUSH2 0x16BC JUMP JUMPDEST SWAP2 POP PUSH2 0x1AC0 DUP3 PUSH2 0x1A81 JUMP JUMPDEST PUSH1 0x20 DUP3 ADD SWAP1 POP SWAP2 SWAP1 POP JUMP JUMPDEST PUSH0 PUSH1 0x20 DUP3 ADD SWAP1 POP DUP2 DUP2 SUB PUSH0 DUP4 ADD MSTORE PUSH2 0x1AE2 DUP2 PUSH2 0x1AA9 JUMP JUMPDEST SWAP1 POP SWAP2 SWAP1 POP JUMP JUMPDEST PUSH32 0x4E487B7100000000000000000000000000000000000000000000000000000000 PUSH0 MSTORE PUSH1 0x22 PUSH1 0x4 MSTORE PUSH1 0x24 PUSH0 REVERT JUMPDEST PUSH0 PUSH1 0x2 DUP3 DIV SWAP1 POP PUSH1 0x1 DUP3 AND DUP1 PUSH2 0x1B2D JUMPI PUSH1 0x7F DUP3 AND SWAP2 POP JUMPDEST PUSH1 0x20 DUP3 LT DUP2 SUB PUSH2 0x1B40 JUMPI PUSH2 0x1B3F PUSH2 0x1AE9 JUMP JUMPDEST JUMPDEST POP SWAP2 SWAP1 POP JUMP JUMPDEST PUSH32 0x54686973206164647265737320697320616C7265616479206173736F63696174 PUSH0 DUP3 ADD MSTORE PUSH32 0x6564207769746820612063616E64696461746500000000000000000000000000 PUSH1 0x20 DUP3 ADD MSTORE POP JUMP JUMPDEST PUSH0 PUSH2 0x1BA0 PUSH1 0x33 DUP4 PUSH2 0x16BC JUMP JUMPDEST SWAP2 POP PUSH2 0x1BAB DUP3 PUSH2 0x1B46 JUMP JUMPDEST PUSH1 0x40 DUP3 ADD SWAP1 POP SWAP2 SWAP1 POP JUMP JUMPDEST PUSH0 PUSH1 0x20 DUP3 ADD SWAP1 POP DUP2 DUP2 SUB PUSH0 DUP4 ADD MSTORE PUSH2 0x1BCD DUP2 PUSH2 0x1B94 JUMP JUMPDEST SWAP1 POP SWAP2 SWAP1 POP JUMP JUMPDEST PUSH32 0x496E76616C6964206E6174696F6E616C2049442C20796F7520617265206E6F74 PUSH0 DUP3 ADD MSTORE PUSH32 0x20656C696769626C6520666F722063616E646964617465000000000000000000 PUSH1 0x20 DUP3 ADD MSTORE POP JUMP JUMPDEST PUSH0 PUSH2 0x1C2E PUSH1 0x37 DUP4 PUSH2 0x16BC JUMP JUMPDEST SWAP2 POP PUSH2 0x1C39 DUP3 PUSH2 0x1BD4 JUMP JUMPDEST PUSH1 0x40 DUP3 ADD SWAP1 POP SWAP2 SWAP1 POP JUMP JUMPDEST PUSH0 PUSH1 0x20 DUP3 ADD SWAP1 POP DUP2 DUP2 SUB PUSH0 DUP4 ADD MSTORE PUSH2 0x1C5B DUP2 PUSH2 0x1C22 JUMP JUMPDEST SWAP1 POP SWAP2 SWAP1 POP JUMP JUMPDEST PUSH32 0x4E487B7100000000000000000000000000000000000000000000000000000000 PUSH0 MSTORE PUSH1 0x11 PUSH1 0x4 MSTORE PUSH1 0x24 PUSH0 REVERT JUMPDEST PUSH0 PUSH2 0x1C99 DUP3 PUSH2 0x15FA JUMP JUMPDEST SWAP2 POP PUSH32 0xFFFFFFFFFFFFFFFFFFFFFFFFFFFFFFFFFFFFFFFFFFFFFFFFFFFFFFFFFFFFFFFF DUP3 SUB PUSH2 0x1CCB JUMPI PUSH2 0x1CCA PUSH2 0x1C62 JUMP JUMPDEST JUMPDEST PUSH1 0x1 DUP3 ADD SWAP1 POP SWAP2 SWAP1 POP JUMP JUMPDEST PUSH0 DUP2 SWAP1 POP DUP2 PUSH0 MSTORE PUSH1 0x20 PUSH0 KECCAK256 SWAP1 POP SWAP2 SWAP1 POP JUMP JUMPDEST PUSH0 PUSH1 0x20 PUSH1 0x1F DUP4 ADD DIV SWAP1 POP SWAP2 SWAP1 POP JUMP JUMPDEST PUSH0 DUP3 DUP3 SHL SWAP1 POP SWAP3 SWAP2 POP POP JUMP JUMPDEST PUSH0 PUSH1 0x8 DUP4 MUL PUSH2 0x1D32 PUSH32 0xFFFFFFFFFFFFFFFFFFFFFFFFFFFFFFFFFFFFFFFFFFFFFFFFFFFFFFFFFFFFFFFF DUP3 PUSH2 0x1CF7 JUMP JUMPDEST PUSH2 0x1D3C DUP7 DUP4 PUSH2 0x1CF7 JUMP JUMPDEST SWAP6 POP DUP1 NOT DUP5 AND SWAP4 POP DUP1 DUP7 AND DUP5 OR SWAP3 POP POP POP SWAP4 SWAP3 POP POP POP JUMP JUMPDEST PUSH0 DUP2 SWAP1 POP SWAP2 SWAP1 POP JUMP JUMPDEST PUSH0 PUSH2 0x1D77 PUSH2 0x1D72 PUSH2 0x1D6D DUP5 PUSH2 0x15FA JUMP JUMPDEST PUSH2 0x1D54 JUMP JUMPDEST PUSH2 0x15FA JUMP JUMPDEST SWAP1 POP SWAP2 SWAP1 POP JUMP JUMPDEST PUSH0 DUP2 SWAP1 POP SWAP2 SWAP1 POP JUMP JUMPDEST PUSH2 0x1D90 DUP4 PUSH2 0x1D5D JUMP JUMPDEST PUSH2 0x1DA4 PUSH2 0x1D9C DUP3 PUSH2 0x1D7E JUMP JUMPDEST DUP5 DUP5 SLOAD PUSH2 0x1D03 JUMP JUMPDEST DUP3 SSTORE POP POP POP POP JUMP JUMPDEST PUSH0 SWAP1 JUMP JUMPDEST PUSH2 0x1DB8 PUSH2 0x1DAC JUMP JUMPDEST PUSH2 0x1DC3 DUP2 DUP5 DUP5 PUSH2 0x1D87 JUMP JUMPDEST POP POP POP JUMP JUMPDEST JUMPDEST DUP2 DUP2 LT ISZERO PUSH2 0x1DE6 JUMPI PUSH2 0x1DDB PUSH0 DUP3 PUSH2 0x1DB0 JUMP JUMPDEST PUSH1 0x1 DUP2 ADD SWAP1 POP PUSH2 0x1DC9 JUMP JUMPDEST POP POP JUMP JUMPDEST PUSH1 0x1F DUP3 GT ISZERO PUSH2 0x1E2B JUMPI PUSH2 0x1DFC DUP2 PUSH2 0x1CD6 JUMP JUMPDEST PUSH2 0x1E05 DUP5 PUSH2 0x1CE8 JUMP JUMPDEST DUP2 ADD PUSH1 0x20 DUP6 LT ISZERO PUSH2 0x1E14 JUMPI DUP2 SWAP1 POP JUMPDEST PUSH2 0x1E28 PUSH2 0x1E20 DUP6 PUSH2 0x1CE8 JUMP JUMPDEST DUP4 ADD DUP3 PUSH2 0x1DC8 JUMP JUMPDEST POP POP JUMPDEST POP POP POP JUMP JUMPDEST PUSH0 DUP3 DUP3 SHR SWAP1 POP SWAP3 SWAP2 POP POP JUMP JUMPDEST PUSH0 PUSH2 0x1E4B PUSH0 NOT DUP5 PUSH1 0x8 MUL PUSH2 0x1E30 JUMP JUMPDEST NOT DUP1 DUP4 AND SWAP2 POP POP SWAP3 SWAP2 POP POP JUMP JUMPDEST PUSH0 PUSH2 0x1E63 DUP4 DUP4 PUSH2 0x1E3C JUMP JUMPDEST SWAP2 POP DUP3 PUSH1 0x2 MUL DUP3 OR SWAP1 POP SWAP3 SWAP2 POP POP JUMP JUMPDEST PUSH2 0x1E7C DUP3 PUSH2 0x16B2 JUMP JUMPDEST PUSH8 0xFFFFFFFFFFFFFFFF DUP2 GT ISZERO PUSH2 0x1E95 JUMPI PUSH2 0x1E94 PUSH2 0x141E JUMP JUMPDEST JUMPDEST PUSH2 0x1E9F DUP3 SLOAD PUSH2 0x1B16 JUMP JUMPDEST PUSH2 0x1EAA DUP3 DUP3 DUP6 PUSH2 0x1DEA JUMP JUMPDEST PUSH0 PUSH1 0x20 SWAP1 POP PUSH1 0x1F DUP4 GT PUSH1 0x1 DUP2 EQ PUSH2 0x1EDB JUMPI PUSH0 DUP5 ISZERO PUSH2 0x1EC9 JUMPI DUP3 DUP8 ADD MLOAD SWAP1 POP JUMPDEST PUSH2 0x1ED3 DUP6 DUP3 PUSH2 0x1E58 JUMP JUMPDEST DUP7 SSTORE POP PUSH2 0x1F3A JUMP JUMPDEST PUSH1 0x1F NOT DUP5 AND PUSH2 0x1EE9 DUP7 PUSH2 0x1CD6 JUMP JUMPDEST PUSH0 JUMPDEST DUP3 DUP2 LT ISZERO PUSH2 0x1F10 JUMPI DUP5 DUP10 ADD MLOAD DUP3 SSTORE PUSH1 0x1 DUP3 ADD SWAP2 POP PUSH1 0x20 DUP6 ADD SWAP5 POP PUSH1 0x20 DUP2 ADD SWAP1 POP PUSH2 0x1EEB JUMP JUMPDEST DUP7 DUP4 LT ISZERO PUSH2 0x1F2D JUMPI DUP5 DUP10 ADD MLOAD PUSH2 0x1F29 PUSH1 0x1F DUP10 AND DUP3 PUSH2 0x1E3C JUMP JUMPDEST DUP4 SSTORE POP JUMPDEST PUSH1 0x1 PUSH1 0x2 DUP9 MUL ADD DUP9 SSTORE POP POP POP JUMPDEST POP POP POP POP POP POP JUMP JUMPDEST PUSH32 0x566F74696E67206973206E6F742063757272656E746C79206F70656E00000000 PUSH0 DUP3 ADD MSTORE POP JUMP JUMPDEST PUSH0 PUSH2 0x1F76 PUSH1 0x1C DUP4 PUSH2 0x16BC JUMP JUMPDEST SWAP2 POP PUSH2 0x1F81 DUP3 PUSH2 0x1F42 JUMP JUMPDEST PUSH1 0x20 DUP3 ADD SWAP1 POP SWAP2 SWAP1 POP JUMP JUMPDEST PUSH0 PUSH1 0x20 DUP3 ADD SWAP1 POP DUP2 DUP2 SUB PUSH0 DUP4 ADD MSTORE PUSH2 0x1FA3 DUP2 PUSH2 0x1F6A JUMP JUMPDEST SWAP1 POP SWAP2 SWAP1 POP JUMP JUMPDEST PUSH32 0x496E76616C69642063616E646964617465204944000000000000000000000000 PUSH0 DUP3 ADD MSTORE POP JUMP JUMPDEST PUSH0 PUSH2 0x1FDE PUSH1 0x14 DUP4 PUSH2 0x16BC JUMP JUMPDEST SWAP2 POP PUSH2 0x1FE9 DUP3 PUSH2 0x1FAA JUMP JUMPDEST PUSH1 0x20 DUP3 ADD SWAP1 POP SWAP2 SWAP1 POP JUMP JUMPDEST PUSH0 PUSH1 0x20 DUP3 ADD SWAP1 POP DUP2 DUP2 SUB PUSH0 DUP4 ADD MSTORE PUSH2 0x200B DUP2 PUSH2 0x1FD2 JUMP JUMPDEST SWAP1 POP SWAP2 SWAP1 POP JUMP JUMPDEST PUSH0 DUP2 SLOAD PUSH2 0x201E DUP2 PUSH2 0x1B16 JUMP JUMPDEST PUSH2 0x2028 DUP2 DUP7 PUSH2 0x1A31 JUMP JUMPDEST SWAP5 POP PUSH1 0x1 DUP3 AND PUSH0 DUP2 EQ PUSH2 0x2042 JUMPI PUSH1 0x1 DUP2 EQ PUSH2 0x2057 JUMPI PUSH2 0x2089 JUMP JUMPDEST PUSH1 0xFF NOT DUP4 AND DUP7 MSTORE DUP2 ISZERO ISZERO DUP3 MUL DUP7 ADD SWAP4 POP PUSH2 0x2089 JUMP JUMPDEST PUSH2 0x2060 DUP6 PUSH2 0x1CD6 JUMP JUMPDEST PUSH0 JUMPDEST DUP4 DUP2 LT ISZERO PUSH2 0x2081 JUMPI DUP2 SLOAD DUP2 DUP10 ADD MSTORE PUSH1 0x1 DUP3 ADD SWAP2 POP PUSH1 0x20 DUP2 ADD SWAP1 POP PUSH2 0x2062 JUMP JUMPDEST DUP4 DUP9 ADD SWAP6 POP POP POP JUMPDEST POP POP POP SWAP3 SWAP2 POP POP JUMP JUMPDEST PUSH0 PUSH2 0x209D DUP3 DUP5 PUSH2 0x2012 JUMP JUMPDEST SWAP2 POP DUP2 SWAP1 POP SWAP3 SWAP2 POP POP JUMP JUMPDEST PUSH32 0x4E6174696F6E616C204944206E6F74206D617463682072656769737465726564 PUSH0 DUP3 ADD MSTORE PUSH32 0x2049440000000000000000000000000000000000000000000000000000000000 PUSH1 0x20 DUP3 ADD MSTORE POP JUMP JUMPDEST PUSH0 PUSH2 0x2102 PUSH1 0x23 DUP4 PUSH2 0x16BC JUMP JUMPDEST SWAP2 POP PUSH2 0x210D DUP3 PUSH2 0x20A8 JUMP JUMPDEST PUSH1 0x40 DUP3 ADD SWAP1 POP SWAP2 SWAP1 POP JUMP JUMPDEST PUSH0 PUSH1 0x20 DUP3 ADD SWAP1 POP DUP2 DUP2 SUB PUSH0 DUP4 ADD MSTORE PUSH2 0x212F DUP2 PUSH2 0x20F6 JUMP JUMPDEST SWAP1 POP SWAP2 SWAP1 POP JUMP JUMPDEST PUSH32 0x536F7A2C20796F752063616E206F6E6C7920766F7465206F6E652074696D6500 PUSH0 DUP3 ADD MSTORE POP JUMP JUMPDEST PUSH0 PUSH2 0x216A PUSH1 0x1F DUP4 PUSH2 0x16BC JUMP JUMPDEST SWAP2 POP PUSH2 0x2175 DUP3 PUSH2 0x2136 JUMP JUMPDEST PUSH1 0x20 DUP3 ADD SWAP1 POP SWAP2 SWAP1 POP JUMP JUMPDEST PUSH0 PUSH1 0x20 DUP3 ADD SWAP1 POP DUP2 DUP2 SUB PUSH0 DUP4 ADD MSTORE PUSH2 0x2197 DUP2 PUSH2 0x215E JUMP JUMPDEST SWAP1 POP SWAP2 SWAP1 POP JUMP JUMPDEST PUSH32 0x6C696D6974206D7573742062652067726561746572207468616E207A65726F00 PUSH0 DUP3 ADD MSTORE POP JUMP JUMPDEST PUSH0 PUSH2 0x21D2 PUSH1 0x1F DUP4 PUSH2 0x16BC JUMP JUMPDEST SWAP2 POP PUSH2 0x21DD DUP3 PUSH2 0x219E JUMP JUMPDEST PUSH1 0x20 DUP3 ADD SWAP1 POP SWAP2 SWAP1 POP JUMP JUMPDEST PUSH0 PUSH1 0x20 DUP3 ADD SWAP1 POP DUP2 DUP2 SUB PUSH0 DUP4 ADD MSTORE PUSH2 0x21FF DUP2 PUSH2 0x21C6 JUMP JUMPDEST SWAP1 POP SWAP2 SWAP1 POP JUMP JUMPDEST PUSH32 0x566F74696E67206973207374696C6C206F70656E000000000000000000000000 PUSH0 DUP3 ADD MSTORE POP JUMP JUMPDEST PUSH0 PUSH2 0x223A PUSH1 0x14 DUP4 PUSH2 0x16BC JUMP JUMPDEST SWAP2 POP PUSH2 0x2245 DUP3 PUSH2 0x2206 JUMP JUMPDEST PUSH1 0x20 DUP3 ADD SWAP1 POP SWAP2 SWAP1 POP JUMP JUMPDEST PUSH0 PUSH1 0x20 DUP3 ADD SWAP1 POP DUP2 DUP2 SUB PUSH0 DUP4 ADD MSTORE PUSH2 0x2267 DUP2 PUSH2 0x222E JUMP JUMPDEST SWAP1 POP SWAP2 SWAP1 POP JUMP JUMPDEST PUSH32 0x596F752063616E6E6F7420766F746520666F7220612063616E6469646174652C PUSH0 DUP3 ADD MSTORE PUSH32 0x206966206E6F206F6E6520697320612063616E64696461746500000000000000 PUSH1 0x20 DUP3 ADD MSTORE POP JUMP JUMPDEST PUSH0 PUSH2 0x22C8 PUSH1 0x39 DUP4 PUSH2 0x16BC JUMP JUMPDEST SWAP2 POP PUSH2 0x22D3 DUP3 PUSH2 0x226E JUMP JUMPDEST PUSH1 0x40 DUP3 ADD SWAP1 POP SWAP2 SWAP1 POP JUMP JUMPDEST PUSH0 PUSH1 0x20 DUP3 ADD SWAP1 POP DUP2 DUP2 SUB PUSH0 DUP4 ADD MSTORE PUSH2 0x22F5 DUP2 PUSH2 0x22BC JUMP JUMPDEST SWAP1 POP SWAP2 SWAP1 POP JUMP JUMPDEST PUSH32 0x566F74696E6720697320616C726561647920636C6F7365640000000000000000 PUSH0 DUP3 ADD MSTORE POP JUMP JUMPDEST PUSH0 PUSH2 0x2330 PUSH1 0x18 DUP4 PUSH2 0x16BC JUMP JUMPDEST SWAP2 POP PUSH2 0x233B DUP3 PUSH2 0x22FC JUMP JUMPDEST PUSH1 0x20 DUP3 ADD SWAP1 POP SWAP2 SWAP1 POP JUMP JUMPDEST PUSH0 PUSH1 0x20 DUP3 ADD SWAP1 POP DUP2 DUP2 SUB PUSH0 DUP4 ADD MSTORE PUSH2 0x235D DUP2 PUSH2 0x2324 JUMP JUMPDEST SWAP1 POP SWAP2 SWAP1 POP JUMP JUMPDEST PUSH32 0x526567697374726174696F6E206F6620766F74657220666F7220746869732070 PUSH0 DUP3 ADD MSTORE PUSH32 0x6C61636520686173207265616368206C696D6974000000000000000000000000 PUSH1 0x20 DUP3 ADD MSTORE POP JUMP JUMPDEST PUSH0 PUSH2 0x23BE PUSH1 0x34 DUP4 PUSH2 0x16BC JUMP JUMPDEST SWAP2 POP PUSH2 0x23C9 DUP3 PUSH2 0x2364 JUMP JUMPDEST PUSH1 0x40 DUP3 ADD SWAP1 POP SWAP2 SWAP1 POP JUMP JUMPDEST PUSH0 PUSH1 0x20 DUP3 ADD SWAP1 POP DUP2 DUP2 SUB PUSH0 DUP4 ADD MSTORE PUSH2 0x23EB DUP2 PUSH2 0x23B2 JUMP JUMPDEST SWAP1 POP SWAP2 SWAP1 POP JUMP JUMPDEST PUSH32 0x566F74657220697320616C726561647920726567697374657265640000000000 PUSH0 DUP3 ADD MSTORE POP JUMP JUMPDEST PUSH0 PUSH2 0x2426 PUSH1 0x1B DUP4 PUSH2 0x16BC JUMP JUMPDEST SWAP2 POP PUSH2 0x2431 DUP3 PUSH2 0x23F2 JUMP JUMPDEST PUSH1 0x20 DUP3 ADD SWAP1 POP SWAP2 SWAP1 POP JUMP JUMPDEST PUSH0 PUSH1 0x20 DUP3 ADD SWAP1 POP DUP2 DUP2 SUB PUSH0 DUP4 ADD MSTORE PUSH2 0x2453 DUP2 PUSH2 0x241A JUMP JUMPDEST SWAP1 POP SWAP2 SWAP1 POP JUMP JUMPDEST PUSH32 0x54686973206164647265737320697320616C7265616479206173736F63696174 PUSH0 DUP3 ADD MSTORE PUSH32 0x65642077697468206120766F7465720000000000000000000000000000000000 PUSH1 0x20 DUP3 ADD MSTORE POP JUMP JUMPDEST PUSH0 PUSH2 0x24B4 PUSH1 0x2F DUP4 PUSH2 0x16BC JUMP JUMPDEST SWAP2 POP PUSH2 0x24BF DUP3 PUSH2 0x245A JUMP JUMPDEST PUSH1 0x40 DUP3 ADD SWAP1 POP SWAP2 SWAP1 POP JUMP JUMPDEST PUSH0 PUSH1 0x20 DUP3 ADD SWAP1 POP DUP2 DUP2 SUB PUSH0 DUP4 ADD MSTORE PUSH2 0x24E1 DUP2 PUSH2 0x24A8 JUMP JUMPDEST SWAP1 POP SWAP2 SWAP1 POP JUMP JUMPDEST PUSH32 0x496E76616C6964206E6174696F6E616C2049442C20796F7520617265206E6F74 PUSH0 DUP3 ADD MSTORE PUSH32 0x20656C696769626C6520666F7220766F74696E67000000000000000000000000 PUSH1 0x20 DUP3 ADD MSTORE POP JUMP JUMPDEST PUSH0 PUSH2 0x2542 PUSH1 0x34 DUP4 PUSH2 0x16BC JUMP JUMPDEST SWAP2 POP PUSH2 0x254D DUP3 PUSH2 0x24E8 JUMP JUMPDEST PUSH1 0x40 DUP3 ADD SWAP1 POP SWAP2 SWAP1 POP JUMP JUMPDEST PUSH0 PUSH1 0x20 DUP3 ADD SWAP1 POP DUP2 DUP2 SUB PUSH0 DUP4 ADD MSTORE PUSH2 0x256F DUP2 PUSH2 0x2536 JUMP JUMPDEST SWAP1 POP SWAP2 SWAP1 POP JUMP JUMPDEST PUSH32 0x4E487B7100000000000000000000000000000000000000000000000000000000 PUSH0 MSTORE PUSH1 0x32 PUSH1 0x4 MSTORE PUSH1 0x24 PUSH0 REVERT INVALID LOG2 PUSH5 0x6970667358 0x22 SLT KECCAK256 0xC0 DUP1 0xEA 0xC2 PUSH9 0xE144404DFB303E01 PUSH30 0x572BD92D8E9F7233B492C2CB2FA8174D4364736F6C634300081A00330000 "
				},
				"gasEstimates": {
					"creation": {
						"codeDepositCost": "1937800",
						"executionCost": "82716",
						"totalCost": "2020516"
					},
					"external": {
						"admin()": "2593",
						"candidateCount()": "2514",
						"candidates(uint256)": "infinite",
						"endVoting()": "28748",
						"getWinner()": "infinite",
						"registerCandidate(address,string,string,string)": "infinite",
						"registerVoter(address,string)": "infinite",
						"registeredNationalID(string)": "infinite",
						"setVoterLimit(uint256)": "24770",
						"startVoting()": "28725",
						"vote(uint256,string)": "infinite",
						"voterCount()": "2470",
						"voterLimit()": "2514",
						"voters(address)": "infinite",
						"votingOpen()": "2533"
					},
					"internal": {
						"validateNationalID(string memory)": "infinite"
					}
				},
				"methodIdentifiers": {
					"admin()": "f851a440",
					"candidateCount()": "a9a981a3",
					"candidates(uint256)": "3477ee2e",
					"endVoting()": "c3403ddf",
					"getWinner()": "8e7ea5b2",
					"registerCandidate(address,string,string,string)": "21b3f528",
					"registerVoter(address,string)": "ebbb4f84",
					"registeredNationalID(string)": "dbaf67bb",
					"setVoterLimit(uint256)": "4e0877f4",
					"startVoting()": "1ec6b60a",
					"vote(uint256,string)": "24108475",
					"voterCount()": "42169e48",
					"voterLimit()": "70b01bbd",
					"voters(address)": "a3ec138d",
					"votingOpen()": "a95824b4"
				}
			},
			"storageLayout": {
				"storage": [
					{
						"astId": 17,
						"contract": "election.sol:MASelection",
						"label": "admin",
						"offset": 0,
						"slot": "0",
						"type": "t_address"
					},
					{
						"astId": 19,
						"contract": "election.sol:MASelection",
						"label": "candidateCount",
						"offset": 0,
						"slot": "1",
						"type": "t_uint256"
					},
					{
						"astId": 21,
						"contract": "election.sol:MASelection",
						"label": "voterCount",
						"offset": 0,
						"slot": "2",
						"type": "t_uint256"
					},
					{
						"astId": 23,
						"contract": "election.sol:MASelection",
						"label": "voterLimit",
						"offset": 0,
						"slot": "3",
						"type": "t_uint256"
					},
					{
						"astId": 25,
						"contract": "election.sol:MASelection",
						"label": "votingOpen",
						"offset": 0,
						"slot": "4",
						"type": "t_bool"
					},
					{
						"astId": 30,
						"contract": "election.sol:MASelection",
						"label": "candidates",
						"offset": 0,
						"slot": "5",
						"type": "t_mapping(t_uint256,t_struct(Candidate)10_storage)"
					},
					{
						"astId": 35,
						"contract": "election.sol:MASelection",
						"label": "voters",
						"offset": 0,
						"slot": "6",
						"type": "t_mapping(t_address,t_struct(Voter)15_storage)"
					},
					{
						"astId": 39,
						"contract": "election.sol:MASelection",
						"label": "registeredNationalID",
						"offset": 0,
						"slot": "7",
						"type": "t_mapping(t_string_memory_ptr,t_bool)"
					}
				],
				"types": {
					"t_address": {
						"encoding": "inplace",
						"label": "address",
						"numberOfBytes": "20"
					},
					"t_bool": {
						"encoding": "inplace",
						"label": "bool",
						"numberOfBytes": "1"
					},
					"t_mapping(t_address,t_struct(Voter)15_storage)": {
						"encoding": "mapping",
						"key": "t_address",
						"label": "mapping(address => struct MASelection.Voter)",
						"numberOfBytes": "32",
						"value": "t_struct(Voter)15_storage"
					},
					"t_mapping(t_string_memory_ptr,t_bool)": {
						"encoding": "mapping",
						"key": "t_string_memory_ptr",
						"label": "mapping(string => bool)",
						"numberOfBytes": "32",
						"value": "t_bool"
					},
					"t_mapping(t_uint256,t_struct(Candidate)10_storage)": {
						"encoding": "mapping",
						"key": "t_uint256",
						"label": "mapping(uint256 => struct MASelection.Candidate)",
						"numberOfBytes": "32",
						"value": "t_struct(Candidate)10_storage"
					},
					"t_string_memory_ptr": {
						"encoding": "bytes",
						"label": "string",
						"numberOfBytes": "32"
					},
					"t_string_storage": {
						"encoding": "bytes",
						"label": "string",
						"numberOfBytes": "32"
					},
					"t_struct(Candidate)10_storage": {
						"encoding": "inplace",
						"label": "struct MASelection.Candidate",
						"members": [
							{
								"astId": 3,
								"contract": "election.sol:MASelection",
								"label": "name",
								"offset": 0,
								"slot": "0",
								"type": "t_string_storage"
							},
							{
								"astId": 5,
								"contract": "election.sol:MASelection",
								"label": "description",
								"offset": 0,
								"slot": "1",
								"type": "t_string_storage"
							},
							{
								"astId": 7,
								"contract": "election.sol:MASelection",
								"label": "voteCount",
								"offset": 0,
								"slot": "2",
								"type": "t_uint256"
							},
							{
								"astId": 9,
								"contract": "election.sol:MASelection",
								"label": "nationalID",
								"offset": 0,
								"slot": "3",
								"type": "t_string_storage"
							}
						],
						"numberOfBytes": "128"
					},
					"t_struct(Voter)15_storage": {
						"encoding": "inplace",
						"label": "struct MASelection.Voter",
						"members": [
							{
								"astId": 12,
								"contract": "election.sol:MASelection",
								"label": "nationalID",
								"offset": 0,
								"slot": "0",
								"type": "t_string_storage"
							},
							{
								"astId": 14,
								"contract": "election.sol:MASelection",
								"label": "hasVoted",
								"offset": 0,
								"slot": "1",
								"type": "t_bool"
							}
						],
						"numberOfBytes": "64"
					},
					"t_uint256": {
						"encoding": "inplace",
						"label": "uint256",
						"numberOfBytes": "32"
					}
				}
			},
			"userdoc": {
				"kind": "user",
				"methods": {},
				"version": 1
			}
		}
	}
}